{
  "_format": "hh-sol-artifact-1",
  "contractName": "CoffeeSupplyChain",
  "sourceName": "contracts/CoffeeSupplyChain.sol",
  "abi": [
    {
      "anonymous": false,
      "inputs": [
        {
          "indexed": true,
          "internalType": "string",
          "name": "lotNumber",
          "type": "string"
        },
        {
          "indexed": false,
          "internalType": "uint256",
          "name": "timestamp",
          "type": "uint256"
        }
      ],
      "name": "CosechaAdded",
      "type": "event"
    },
    {
      "anonymous": false,
      "inputs": [
        {
          "indexed": true,
          "internalType": "string",
          "name": "lotNumber",
          "type": "string"
        },
        {
          "indexed": false,
          "internalType": "uint256",
          "name": "timestamp",
          "type": "uint256"
        }
      ],
      "name": "DespulpadoAdded",
      "type": "event"
    },
    {
      "anonymous": false,
      "inputs": [
        {
          "indexed": true,
          "internalType": "string",
          "name": "lotNumber",
          "type": "string"
        },
        {
          "indexed": false,
          "internalType": "uint256",
          "name": "timestamp",
          "type": "uint256"
        }
      ],
      "name": "ImpactoAdded",
      "type": "event"
    },
    {
      "anonymous": false,
      "inputs": [
        {
          "indexed": true,
          "internalType": "string",
          "name": "lotNumber",
          "type": "string"
        },
        {
          "indexed": false,
          "internalType": "uint256",
          "name": "timestamp",
          "type": "uint256"
        }
      ],
      "name": "LotCreated",
      "type": "event"
    },
    {
      "anonymous": false,
      "inputs": [
        {
          "indexed": true,
          "internalType": "string",
          "name": "lotNumber",
          "type": "string"
        },
        {
          "indexed": false,
          "internalType": "uint256",
          "name": "timestamp",
          "type": "uint256"
        }
      ],
      "name": "SecadoAdded",
      "type": "event"
    },
    {
      "anonymous": false,
      "inputs": [
        {
          "indexed": true,
          "internalType": "string",
          "name": "lotNumber",
          "type": "string"
        },
        {
          "indexed": false,
          "internalType": "uint256",
          "name": "timestamp",
          "type": "uint256"
        }
      ],
      "name": "TrilladoAdded",
      "type": "event"
    },
    {
      "inputs": [
        {
          "internalType": "string",
          "name": "lotNumber",
          "type": "string"
        },
        {
          "internalType": "string",
          "name": "nombreCaficultor",
          "type": "string"
        },
        {
          "internalType": "string",
          "name": "ubicacion",
          "type": "string"
        },
        {
          "internalType": "string",
          "name": "tamanoFinca",
          "type": "string"
        },
        {
          "internalType": "string",
          "name": "variedadesCultivadas",
          "type": "string"
        },
        {
          "internalType": "string",
          "name": "altitudCultivo",
          "type": "string"
        },
        {
          "internalType": "string",
          "name": "fechaCosecha",
          "type": "string"
        },
        {
          "internalType": "string",
          "name": "metodoCosecha",
          "type": "string"
        },
        {
          "internalType": "string",
          "name": "cantidadCosechada",
          "type": "string"
        }
      ],
      "name": "addCosechaData",
      "outputs": [],
      "stateMutability": "nonpayable",
      "type": "function"
    },
    {
      "inputs": [
        {
          "internalType": "string",
          "name": "lotNumber",
          "type": "string"
        },
        {
          "internalType": "string",
          "name": "metodoDespulpado",
          "type": "string"
        },
        {
          "internalType": "string",
          "name": "fechaProceso",
          "type": "string"
        },
        {
          "internalType": "string",
          "name": "cantidadPulpaRetirada",
          "type": "string"
        },
        {
          "internalType": "string",
          "name": "destinoPulpa",
          "type": "string"
        }
      ],
      "name": "addDespulpadoData",
      "outputs": [],
      "stateMutability": "nonpayable",
      "type": "function"
    },
    {
      "inputs": [
        {
          "internalType": "string",
          "name": "lotNumber",
          "type": "string"
        },
        {
          "internalType": "string",
          "name": "ayudaFamilias",
          "type": "string"
        },
        {
          "internalType": "string",
          "name": "pagoSobrePromedio",
          "type": "string"
        },
        {
          "internalType": "string",
          "name": "reduccionPesticidas",
          "type": "string"
        },
        {
          "internalType": "string",
          "name": "usoComposta",
          "type": "string"
        }
      ],
      "name": "addImpactoData",
      "outputs": [],
      "stateMutability": "nonpayable",
      "type": "function"
    },
    {
      "inputs": [
        {
          "internalType": "string",
          "name": "lotNumber",
          "type": "string"
        },
        {
          "internalType": "string",
          "name": "metodoSecado",
          "type": "string"
        },
        {
          "internalType": "string",
          "name": "humedadFinal",
          "type": "string"
        }
      ],
      "name": "addSecadoData",
      "outputs": [],
      "stateMutability": "nonpayable",
      "type": "function"
    },
    {
      "inputs": [
        {
          "internalType": "string",
          "name": "lotNumber",
          "type": "string"
        },
        {
          "internalType": "string",
          "name": "fechaTrillado",
          "type": "string"
        },
        {
          "internalType": "string",
          "name": "cantidadTrillada",
          "type": "string"
        }
      ],
      "name": "addTrilladoData",
      "outputs": [],
      "stateMutability": "nonpayable",
      "type": "function"
    },
    {
      "inputs": [
        {
          "internalType": "string",
          "name": "",
          "type": "string"
        }
      ],
      "name": "cosechaData",
      "outputs": [
        {
          "internalType": "string",
          "name": "nombreCaficultor",
          "type": "string"
        },
        {
          "internalType": "string",
          "name": "ubicacion",
          "type": "string"
        },
        {
          "internalType": "string",
          "name": "tamanoFinca",
          "type": "string"
        },
        {
          "internalType": "string",
          "name": "variedadesCultivadas",
          "type": "string"
        },
        {
          "internalType": "string",
          "name": "altitudCultivo",
          "type": "string"
        },
        {
          "internalType": "string",
          "name": "fechaCosecha",
          "type": "string"
        },
        {
          "internalType": "string",
          "name": "metodoCosecha",
          "type": "string"
        },
        {
          "internalType": "string",
          "name": "cantidadCosechada",
          "type": "string"
        }
      ],
      "stateMutability": "view",
      "type": "function"
    },
    {
      "inputs": [
        {
          "internalType": "string",
          "name": "lotNumber",
          "type": "string"
        },
        {
          "internalType": "string",
          "name": "farmerName",
          "type": "string"
        },
        {
          "internalType": "string",
          "name": "farmLocation",
          "type": "string"
        },
        {
          "internalType": "string",
          "name": "farmSize",
          "type": "string"
        },
        {
          "internalType": "string",
          "name": "quantity",
          "type": "string"
        },
        {
          "internalType": "string",
          "name": "variety",
          "type": "string"
        },
        {
          "internalType": "string",
          "name": "altitud",
          "type": "string"
        },
        {
          "internalType": "string",
          "name": "harvestingMethod",
          "type": "string"
        },
        {
          "internalType": "string",
          "name": "harvestTimestamp",
          "type": "string"
        }
      ],
      "name": "createLot",
      "outputs": [],
      "stateMutability": "nonpayable",
      "type": "function"
    },
    {
      "inputs": [
        {
          "internalType": "string",
          "name": "",
          "type": "string"
        }
      ],
      "name": "despulpadoData",
      "outputs": [
        {
          "internalType": "string",
          "name": "metodoDespulpado",
          "type": "string"
        },
        {
          "internalType": "string",
          "name": "fechaProceso",
          "type": "string"
        },
        {
          "internalType": "string",
          "name": "cantidadPulpaRetirada",
          "type": "string"
        },
        {
          "internalType": "string",
          "name": "destinoPulpa",
          "type": "string"
        }
      ],
      "stateMutability": "view",
      "type": "function"
    },
    {
      "inputs": [],
      "name": "getAllLots",
      "outputs": [
        {
          "components": [
            {
              "internalType": "string",
              "name": "lotNumber",
              "type": "string"
            },
            {
              "internalType": "string",
              "name": "farmerName",
              "type": "string"
            },
            {
              "internalType": "string",
              "name": "farmLocation",
              "type": "string"
            },
            {
              "internalType": "string",
              "name": "farmSize",
              "type": "string"
            },
            {
              "internalType": "string",
              "name": "quantity",
              "type": "string"
            },
            {
              "internalType": "string",
              "name": "variety",
              "type": "string"
            },
            {
              "internalType": "string",
              "name": "altitud",
              "type": "string"
            },
            {
              "internalType": "string",
              "name": "harvestingMethod",
              "type": "string"
            },
            {
              "internalType": "string",
              "name": "harvestTimestamp",
              "type": "string"
            },
            {
              "internalType": "bool",
              "name": "isActive",
              "type": "bool"
            }
          ],
          "internalType": "struct CoffeeSupplyChain.Lot[]",
          "name": "",
          "type": "tuple[]"
        },
        {
          "components": [
            {
              "internalType": "string",
              "name": "nombreCaficultor",
              "type": "string"
            },
            {
              "internalType": "string",
              "name": "ubicacion",
              "type": "string"
            },
            {
              "internalType": "string",
              "name": "tamanoFinca",
              "type": "string"
            },
            {
              "internalType": "string",
              "name": "variedadesCultivadas",
              "type": "string"
            },
            {
              "internalType": "string",
              "name": "altitudCultivo",
              "type": "string"
            },
            {
              "internalType": "string",
              "name": "fechaCosecha",
              "type": "string"
            },
            {
              "internalType": "string",
              "name": "metodoCosecha",
              "type": "string"
            },
            {
              "internalType": "string",
              "name": "cantidadCosechada",
              "type": "string"
            }
          ],
          "internalType": "struct CoffeeSupplyChain.Cosecha[]",
          "name": "",
          "type": "tuple[]"
        },
        {
          "components": [
            {
              "internalType": "string",
              "name": "metodoDespulpado",
              "type": "string"
            },
            {
              "internalType": "string",
              "name": "fechaProceso",
              "type": "string"
            },
            {
              "internalType": "string",
              "name": "cantidadPulpaRetirada",
              "type": "string"
            },
            {
              "internalType": "string",
              "name": "destinoPulpa",
              "type": "string"
            }
          ],
          "internalType": "struct CoffeeSupplyChain.Despulpado[]",
          "name": "",
          "type": "tuple[]"
        },
        {
          "components": [
            {
              "internalType": "string",
              "name": "metodoSecado",
              "type": "string"
            },
            {
              "internalType": "string",
              "name": "humedadFinal",
              "type": "string"
            }
          ],
          "internalType": "struct CoffeeSupplyChain.Secado[]",
          "name": "",
          "type": "tuple[]"
        },
        {
          "components": [
            {
              "internalType": "string",
              "name": "fechaTrillado",
              "type": "string"
            },
            {
              "internalType": "string",
              "name": "cantidadTrillada",
              "type": "string"
            }
          ],
          "internalType": "struct CoffeeSupplyChain.Trillado[]",
          "name": "",
          "type": "tuple[]"
        },
        {
          "components": [
            {
              "internalType": "string",
              "name": "ayudaFamilias",
              "type": "string"
            },
            {
              "internalType": "string",
              "name": "pagoSobrePromedio",
              "type": "string"
            },
            {
              "internalType": "string",
              "name": "reduccionPesticidas",
              "type": "string"
            },
            {
              "internalType": "string",
              "name": "usoComposta",
              "type": "string"
            }
          ],
          "internalType": "struct CoffeeSupplyChain.Impacto[]",
          "name": "",
          "type": "tuple[]"
        }
      ],
      "stateMutability": "view",
      "type": "function"
    },
    {
      "inputs": [
        {
          "internalType": "string",
          "name": "lotNumber",
          "type": "string"
        }
      ],
      "name": "getLotWithAllData",
      "outputs": [
        {
          "components": [
            {
              "components": [
                {
                  "internalType": "string",
                  "name": "lotNumber",
                  "type": "string"
                },
                {
                  "internalType": "string",
                  "name": "farmerName",
                  "type": "string"
                },
                {
                  "internalType": "string",
                  "name": "farmLocation",
                  "type": "string"
                },
                {
                  "internalType": "string",
                  "name": "farmSize",
                  "type": "string"
                },
                {
                  "internalType": "string",
                  "name": "quantity",
                  "type": "string"
                },
                {
                  "internalType": "string",
                  "name": "variety",
                  "type": "string"
                },
                {
                  "internalType": "string",
                  "name": "altitud",
                  "type": "string"
                },
                {
                  "internalType": "string",
                  "name": "harvestingMethod",
                  "type": "string"
                },
                {
                  "internalType": "string",
                  "name": "harvestTimestamp",
                  "type": "string"
                },
                {
                  "internalType": "bool",
                  "name": "isActive",
                  "type": "bool"
                }
              ],
              "internalType": "struct CoffeeSupplyChain.Lot",
              "name": "lot",
              "type": "tuple"
            },
            {
              "components": [
                {
                  "internalType": "string",
                  "name": "nombreCaficultor",
                  "type": "string"
                },
                {
                  "internalType": "string",
                  "name": "ubicacion",
                  "type": "string"
                },
                {
                  "internalType": "string",
                  "name": "tamanoFinca",
                  "type": "string"
                },
                {
                  "internalType": "string",
                  "name": "variedadesCultivadas",
                  "type": "string"
                },
                {
                  "internalType": "string",
                  "name": "altitudCultivo",
                  "type": "string"
                },
                {
                  "internalType": "string",
                  "name": "fechaCosecha",
                  "type": "string"
                },
                {
                  "internalType": "string",
                  "name": "metodoCosecha",
                  "type": "string"
                },
                {
                  "internalType": "string",
                  "name": "cantidadCosechada",
                  "type": "string"
                }
              ],
              "internalType": "struct CoffeeSupplyChain.Cosecha",
              "name": "cosecha",
              "type": "tuple"
            },
            {
              "components": [
                {
                  "internalType": "string",
                  "name": "metodoDespulpado",
                  "type": "string"
                },
                {
                  "internalType": "string",
                  "name": "fechaProceso",
                  "type": "string"
                },
                {
                  "internalType": "string",
                  "name": "cantidadPulpaRetirada",
                  "type": "string"
                },
                {
                  "internalType": "string",
                  "name": "destinoPulpa",
                  "type": "string"
                }
              ],
              "internalType": "struct CoffeeSupplyChain.Despulpado",
              "name": "despulpado",
              "type": "tuple"
            },
            {
              "components": [
                {
                  "internalType": "string",
                  "name": "metodoSecado",
                  "type": "string"
                },
                {
                  "internalType": "string",
                  "name": "humedadFinal",
                  "type": "string"
                }
              ],
              "internalType": "struct CoffeeSupplyChain.Secado",
              "name": "secado",
              "type": "tuple"
            },
            {
              "components": [
                {
                  "internalType": "string",
                  "name": "fechaTrillado",
                  "type": "string"
                },
                {
                  "internalType": "string",
                  "name": "cantidadTrillada",
                  "type": "string"
                }
              ],
              "internalType": "struct CoffeeSupplyChain.Trillado",
              "name": "trillado",
              "type": "tuple"
            },
            {
              "components": [
                {
                  "internalType": "string",
                  "name": "ayudaFamilias",
                  "type": "string"
                },
                {
                  "internalType": "string",
                  "name": "pagoSobrePromedio",
                  "type": "string"
                },
                {
                  "internalType": "string",
                  "name": "reduccionPesticidas",
                  "type": "string"
                },
                {
                  "internalType": "string",
                  "name": "usoComposta",
                  "type": "string"
                }
              ],
              "internalType": "struct CoffeeSupplyChain.Impacto",
              "name": "impacto",
              "type": "tuple"
            }
          ],
          "internalType": "struct CoffeeSupplyChain.LotWithAllData",
          "name": "",
          "type": "tuple"
        }
      ],
      "stateMutability": "view",
      "type": "function"
    },
    {
      "inputs": [
        {
          "internalType": "string",
          "name": "",
          "type": "string"
        }
      ],
      "name": "impactoData",
      "outputs": [
        {
          "internalType": "string",
          "name": "ayudaFamilias",
          "type": "string"
        },
        {
          "internalType": "string",
          "name": "pagoSobrePromedio",
          "type": "string"
        },
        {
          "internalType": "string",
          "name": "reduccionPesticidas",
          "type": "string"
        },
        {
          "internalType": "string",
          "name": "usoComposta",
          "type": "string"
        }
      ],
      "stateMutability": "view",
      "type": "function"
    },
    {
      "inputs": [
        {
          "internalType": "uint256",
          "name": "",
          "type": "uint256"
        }
      ],
      "name": "lotIds",
      "outputs": [
        {
          "internalType": "string",
          "name": "",
          "type": "string"
        }
      ],
      "stateMutability": "view",
      "type": "function"
    },
    {
      "inputs": [
        {
          "internalType": "string",
          "name": "",
          "type": "string"
        }
      ],
      "name": "lots",
      "outputs": [
        {
          "internalType": "string",
          "name": "lotNumber",
          "type": "string"
        },
        {
          "internalType": "string",
          "name": "farmerName",
          "type": "string"
        },
        {
          "internalType": "string",
          "name": "farmLocation",
          "type": "string"
        },
        {
          "internalType": "string",
          "name": "farmSize",
          "type": "string"
        },
        {
          "internalType": "string",
          "name": "quantity",
          "type": "string"
        },
        {
          "internalType": "string",
          "name": "variety",
          "type": "string"
        },
        {
          "internalType": "string",
          "name": "altitud",
          "type": "string"
        },
        {
          "internalType": "string",
          "name": "harvestingMethod",
          "type": "string"
        },
        {
          "internalType": "string",
          "name": "harvestTimestamp",
          "type": "string"
        },
        {
          "internalType": "bool",
          "name": "isActive",
          "type": "bool"
        }
      ],
      "stateMutability": "view",
      "type": "function"
    },
    {
      "inputs": [
        {
          "internalType": "string",
          "name": "",
          "type": "string"
        }
      ],
      "name": "secadoData",
      "outputs": [
        {
          "internalType": "string",
          "name": "metodoSecado",
          "type": "string"
        },
        {
          "internalType": "string",
          "name": "humedadFinal",
          "type": "string"
        }
      ],
      "stateMutability": "view",
      "type": "function"
    },
    {
      "inputs": [
        {
          "internalType": "string",
          "name": "",
          "type": "string"
        }
      ],
      "name": "trilladoData",
      "outputs": [
        {
          "internalType": "string",
          "name": "fechaTrillado",
          "type": "string"
        },
        {
          "internalType": "string",
          "name": "cantidadTrillada",
          "type": "string"
        }
      ],
      "stateMutability": "view",
      "type": "function"
    }
  ],
  "bytecode": "0x60808060405234601557611ebb908161001b8239f35b600080fdfe6080604052600436101561001257600080fd5b60003560e01c806304dfdaf8146112da5780632dcb0ea3146112865780633624e35b1461113c578063425c1f6c146110ef57806343587a90146110a45780636b00c1cb14610e90578063706bc01b14610d4b5780638e3bea6f14610746578063b9de3c911461069f578063bc6cb85d14610642578063be65c4ec146105fa578063e2d6699214610482578063e4a92d201461020e578063eb3a46ac1461015a5763ec27f2c5146100c157600080fd5b34610155576020366003190112610155576004356001600160401b0381116101555760206100f66101099236906004016113d8565b8160405193828580945193849201611663565b8101600281520301902061011c816116c0565b61015161012b600184016116c0565b92610144600361013d600284016116c0565b92016116c0565b90604051948594856119d7565b0390f35b600080fd5b34610155576101e26101ce6101dd60206101733661142e565b604095929593919351906101aa60ff60098951948681818d019761019881838b611663565b81016000815203019020015416611a1f565b604051946101b78661132e565b855282850152604051809381928851928391611663565b81016004815203019020611b67565b611b83565b7f264d74d7c67ae6da06ea3e1ba6febfd064650290b42ce20f48d4912199b451b16020604051428152a2005b34610155576020366003190112610155576004356001600160401b0381116101555761023e9036906004016113d8565b60405161024a8161139c565b610252611bef565b815261025c611c42565b6020820152610269611c7e565b6040820152610276611ca2565b6060820152610283611ca2565b6080820152610290611c7e565b9060a001526040518151908060208401926102ac818386611663565b8101600081520360200190206009015460ff166102c890611a1f565b6040518083516102d9818386611663565b810160008152036020019020906040518084516102f7818386611663565b810160018152036020019020604051808551610314818387611663565b81016002815203602001902093604051808251610332818388611663565b81016003815203602001902092604051808351610350818386611663565b810160048152036020019020916040518092819251809261037092611663565b810160058152036020019020916040519461038a8661139c565b61039390611ccf565b855261039e90611d83565b94602085019586526103af90611e15565b92604085019384526103c090611e5e565b90606085019182526103d190611e5e565b91608085019283526103e290611e15565b9260a0850193845260405195869560208752516020870160c0905260e0870161040a916117df565b9051868203601f1901604088015261042291906118af565b9051858203601f1901606087015261043a9190611959565b9051848203601f1901608086015261045291906119ad565b9051838203601f190160a085015261046a91906119ad565b9051828203601f190160c08401526101519190611959565b34610155576020366003190112610155576004356001600160401b038111610155576104b29036906004016113d8565b60405181818093516020819301916104c992611663565b8101600081520360200190206104de816116c0565b6104ea600183016116c0565b916104f7600282016116c0565b90610504600382016116c0565b610510600483016116c0565b61051c600584016116c0565b610528600685016116c0565b91610535600786016116c0565b93610542600887016116c0565b956009015460ff1696604051998a996101408b526101408b0161056491611764565b8a810360208c015261057591611764565b89810360408b015261058691611764565b88810360608a015261059791611764565b87810360808901526105a891611764565b86810360a08801526105b991611764565b85810360c08701526105ca91611764565b84810360e08601526105db91611764565b8381036101008501526105ed91611764565b9015156101208301520390f35b34610155576020366003190112610155576004356001600160401b0381116101555760206100f661062f9236906004016113d8565b8101600581520301902061011c816116c0565b34610155576020366003190112610155576004356001600160401b0381116101555760206100f66106779236906004016113d8565b8101600381520301902061068f600161013d836116c0565b9061015160405192839283611789565b346101555761071a61070b6101dd60206106b836611499565b90849794926106dd60ff60096040999799518881818a519a019961019881838d611663565b604051966106ea88611349565b87528487015260408601526060850152604051809381928851928391611663565b81016005815203019020611ba3565b7fa3fc4ea807a2ced512bc603cedea5de267cc6229a2a1ecf01cb9ddff068e9be06020604051428152a2005b346101555760003660031901126101555760065461076381611bd8565b9061077160405192836113b7565b808252601f1961078082611bd8565b0160005b818110610d3457828461079682611bd8565b916107a460405193846113b7565b808352601f196107b382611bd8565b0160005b818110610d155750506107c981611bd8565b6107d660405191826113b7565b818152601f196107e583611bd8565b0160005b818110610cf65750506107fb82611bd8565b61080860405191826113b7565b828152601f1961081784611bd8565b0160005b818110610cd157505061082d83611bd8565b9161083b60405193846113b7565b838352601f1961084a85611bd8565b0160005b818110610cac57505061086084611bd8565b9361086e60405195866113b7565b808552601f1961087d82611bd8565b0160005b818110610c8757505060005b818110610af857505060405195869560c0870160c08852815180915260e0880190602060e08260051b8b01019301916000905b828210610ac057505050508681036020880152815180825260208201916020808360051b8301019401926000915b838310610a875750505050508581036040870152815180825260208201916020808360051b8301019401926000915b838310610a505750505050508481036060860152815180825260208201916020808360051b8301019401926000915b838310610a1b5750505050508381036080850152815180825260208201916020808360051b8301019401926000915b8383106109e857505050505082810360a0840152815180825260208201916020808360051b8301019401926000915b8383106109b75786860387f35b9193955091936020806109d6600193601f198682030187528951611959565b970193019301909286959492936109aa565b91939596509193602080610a08600193601f1986820301875289516119ad565b970193019301909287969594929361097b565b9193959697509193602080610a3c600193601f1986820301875289516119ad565b97019301930190928897969594929361094c565b919395969798509193602080610a72600193601f198682030187528951611959565b9701930193019092899897969594929361091d565b91939596979899509193602080610aaa600193601f1986820301875289516118af565b97019301930190928a99989796959492936108ee565b91936020610ae381926001949698999a9b9c9d60df1990820301865288516117df565b9601920192018a9998979695949391926108c0565b80610c64610c5560208a610b1d610b176001979e999a9b9c9d9e6117ae565b506116c0565b610b5b8660405193610b4b845195878181880198610b3c81838c611663565b81016000815203019020611ccf565b610b558383611cbb565b52611cbb565b50610b7f60405184818451610b71818389611663565b81018b815203019020611d83565b610b89878b611cbb565b52610b94868a611cbb565b50610bb960405184818451610baa818389611663565b81016002815203019020611e15565b610bc3878c611cbb565b52610bce868b611cbb565b50610bf360405184818451610be4818389611663565b81016003815203019020611e5e565b610bfd878d611cbb565b52610c08868c611cbb565b508b610c3887610c3260405187818751610c2381838c611663565b81016004815203019020611e5e565b92611cbb565b52610c43868d611cbb565b50604051938492839251928391611663565b81016005815203019020611e15565b610c6e828a611cbb565b52610c798189611cbb565b50019695949392919661088d565b602090610c9999949596979899611c7e565b82828b0101520197969594939297610881565b602090610cbe98939495969798611ca2565b828289010152019695949392919661084e565b602090610ce397959697949394611ca2565b828287010152019594939592919261081b565b602090610d0596949596611c7e565b82828601015201949392946107e9565b602090610d2495939495611c42565b82828601015201939291936107b7565b602090610d3f611bef565b82828701015201610784565b34610155576020366003190112610155576004356001600160401b03811161015557610d7b9036906004016113d8565b6040518181809351602081930191610d9292611663565b810160018152036020019020610da7816116c0565b610db3600183016116c0565b91610dc0600282016116c0565b90610dcd600382016116c0565b610dd9600483016116c0565b610de5600584016116c0565b91610df2600685016116c0565b93600701610dff906116c0565b9460405197889761010089526101008901610e1991611764565b88810360208a0152610e2a91611764565b8781036040890152610e3b91611764565b8681036060880152610e4c91611764565b8581036080870152610e5d91611764565b84810360a0860152610e6e91611764565b83810360c0850152610e7f91611764565b82810360e084015261015191611764565b3461015557610e9e3661153f565b604051895160208b01999892979396949594939291908190610ec181838e611663565b81016000815203602001902054610ed790611686565b61106e5760405197610ee889611380565b8a89526020890190815260408901918252606089019283526080890193845260a0890194855260c0890195865260e08901968752610100890197885261012089019960018b528b60405180928192518092610f4292611663565b8101600081520360200190209851610f5a908a611a5c565b51610f689060018a01611a5c565b51610f769060028901611a5c565b51610f849060038801611a5c565b51610f929060048701611a5c565b51610fa09060058601611a5c565b51610fae9060068501611a5c565b51610fbc9060078401611a5c565b51610fca9060088301611a5c565b6009019051151560ff198254169060ff16179055600654680100000000000000008110156110585780600161100292016006556117ae565b919091611042576101dd8161101693611a5c565b7f740b22bce40d316a9c849944a701c8b3fd23b03709bdd850c5dd19f1a8eeb8626020604051428152a2005b634e487b7160e01b600052600060045260246000fd5b634e487b7160e01b600052604160045260246000fd5b60405162461bcd60e51b815260206004820152600e60248201526d4c6f74652079612065786973746560901b6044820152606490fd5b3461015557602036600319011261015557600435600654811015610155576110cb906117ae565b611042576110db610151916116c0565b604051918291602083526020830190611764565b34610155576020366003190112610155576004356001600160401b0381116101555760206100f66111249236906004016113d8565b8101600481520301902061068f600161013d836116c0565b346101555761114a3661153f565b956040959195949294518951908060208c0192611168818386611663565b8101600081520360200190206009015460ff1661118490611a1f565b604051986111918a611364565b89526020890191825260408901928352606089019384526080890194855260a0890195865260c0890196875260e089019788526040518080928c5180926111d792611663565b81016001815203602001902097516111ef9089611a5c565b516111fd9060018901611a5c565b5161120b9060028801611a5c565b516112199060038701611a5c565b516112279060048601611a5c565b516112359060058501611a5c565b516112439060068401611a5c565b5161125091600701611a5c565b61125990611b83565b60405142815260207fe8f3871572477cb0f3520a039beedc0905b2c60d29dd3b12267b832205495db391a2005b34610155576112ae61129f6101dd60206106b836611499565b81016002815203019020611ba3565b7f7967622ef720c78f24912cb33664b9afbf703e1ac459ccd37d3cbc437d26a7456020604051428152a2005b34610155576113026112f36101dd60206101733661142e565b81016003815203019020611b67565b7f4621242f55258185ed743a265277cf88035a69b23efd73e632bebbb7f44e2e7c6020604051428152a2005b604081019081106001600160401b0382111761105857604052565b608081019081106001600160401b0382111761105857604052565b61010081019081106001600160401b0382111761105857604052565b61014081019081106001600160401b0382111761105857604052565b60c081019081106001600160401b0382111761105857604052565b90601f801991011681019081106001600160401b0382111761105857604052565b81601f82011215610155578035906001600160401b038211611058576040519261140c601f8401601f1916602001856113b7565b8284526020838301011161015557816000926020809301838601378301015290565b6060600319820112610155576004356001600160401b0381116101555781611458916004016113d8565b916024356001600160401b0381116101555782611477916004016113d8565b91604435906001600160401b03821161015557611496916004016113d8565b90565b60a0600319820112610155576004356001600160401b03811161015557816114c3916004016113d8565b916024356001600160401b03811161015557826114e2916004016113d8565b916044356001600160401b0381116101555781611501916004016113d8565b916064356001600160401b0381116101555782611520916004016113d8565b91608435906001600160401b03821161015557611496916004016113d8565b610120600319820112610155576004356001600160401b038111610155578161156a916004016113d8565b916024356001600160401b0381116101555782611589916004016113d8565b916044356001600160401b03811161015557816115a8916004016113d8565b916064356001600160401b03811161015557826115c7916004016113d8565b916084356001600160401b03811161015557816115e6916004016113d8565b9160a4356001600160401b0381116101555782611605916004016113d8565b9160c4356001600160401b0381116101555781611624916004016113d8565b9160e4356001600160401b0381116101555782611643916004016113d8565b9161010435906001600160401b03821161015557611496916004016113d8565b60005b8381106116765750506000910152565b8181015183820152602001611666565b90600182811c921680156116b6575b60208310146116a057565b634e487b7160e01b600052602260045260246000fd5b91607f1691611695565b90604051918260008254926116d484611686565b808452936001811690811561174257506001146116fb575b506116f9925003836113b7565b565b90506000929192526020600020906000915b8183106117265750509060206116f992820101386116ec565b602091935080600191548385890101520191019091849261170d565b9050602092506116f994915060ff191682840152151560051b820101386116ec565b9060209161177d81518092818552858086019101611663565b601f01601f1916010190565b90916117a061149693604084526040840190611764565b916020818403910152611764565b6006548110156117c957600660005260206000200190600090565b634e487b7160e01b600052603260045260246000fd5b90610120806118a461189061187e61186c61185a6118486118366118246118118c516101408d526101408d0190611764565b60208d01518c6020818403910152611764565b60408c01518b820360408d0152611764565b60608b01518a820360608c0152611764565b60808a015189820360808b0152611764565b60a089015188820360a08a0152611764565b60c088015187820360c0890152611764565b60e087015186820360e0880152611764565b610100860151858203610100870152611764565b930151151591015290565b6114969160e06119486119366119246119126119006118ee6118dc89516101008a526101008a0190611764565b60208a015189820360208b0152611764565b604089015188820360408a0152611764565b60608801518782036060890152611764565b60808701518682036080880152611764565b60a086015185820360a0870152611764565b60c085015184820360c0860152611764565b9201519060e0818403910152611764565b61149691606061199c61198a6119788551608086526080860190611764565b60208601518582036020870152611764565b60408501518482036040860152611764565b920151906060818403910152611764565b6114969160206119c68351604084526040840190611764565b920151906020818403910152611764565b92611a0361149695936119f5611a1194608088526080880190611764565b908682036020880152611764565b908482036040860152611764565b916060818403910152611764565b15611a2657565b60405162461bcd60e51b815260206004820152600e60248201526d4c6f7465206e6f2065786973746560901b6044820152606490fd5b91909182516001600160401b03811161105857611a798254611686565b601f8111611b1f575b506020601f8211600114611abd5781929394600092611ab2575b50508160011b916000199060031b1c1916179055565b015190503880611a9c565b601f1982169083600052806000209160005b818110611b0757509583600195969710611aee575b505050811b019055565b015160001960f88460031b161c19169055388080611ae4565b9192602060018192868b015181550194019201611acf565b826000526020600020601f830160051c81019160208410611b5d575b601f0160051c01905b818110611b515750611a82565b60008155600101611b44565b9091508190611b3b565b600160206116f993611b7a815185611a5c565b01519101611a5c565b611b9b90602060405192828480945193849201611663565b810103902090565b600360606116f993611bb6815185611a5c565b611bc7602082015160018601611a5c565b611b7a604082015160028601611a5c565b6001600160401b0381116110585760051b60200190565b60405190611bfc82611380565b60006101208360608152606060208201526060604082015260608082015260606080820152606060a0820152606060c0820152606060e082015260606101008201520152565b60405190611c4f82611364565b606060e08382815282602082015282604082015282808201528260808201528260a08201528260c08201520152565b60405190611c8b82611349565b606080838181528160208201528160408201520152565b60405190611caf8261132e565b60606020838281520152565b80518210156117c95760209160051b010190565b90604051611cdc81611380565b61012060ff60098395611cee816116c0565b8552611cfc600182016116c0565b6020860152611d0d600282016116c0565b6040860152611d1e600382016116c0565b6060860152611d2f600482016116c0565b6080860152611d40600582016116c0565b60a0860152611d51600682016116c0565b60c0860152611d62600782016116c0565b60e0860152611d73600882016116c0565b6101008601520154161515910152565b90604051611d9081611364565b60e0611e1060078395611da2816116c0565b8552611db0600182016116c0565b6020860152611dc1600282016116c0565b6040860152611dd2600382016116c0565b6060860152611de3600482016116c0565b6080860152611df4600582016116c0565b60a0860152611e05600682016116c0565b60c0860152016116c0565b910152565b90604051611e2281611349565b6060611e1060038395611e34816116c0565b8552611e42600182016116c0565b6020860152611e53600282016116c0565b6040860152016116c0565b90604051611e6b8161132e565b6020611e1060018395611e7d816116c0565b8552016116c056fea26469706673582212206622f01018c39f81e761a6563a59886eee1a2f64b5ec19c00ad343bc9dfd062b64736f6c634300081c0033",
  "linkReferences": {},
  "deployedLinkReferences": {}
}