{
  "_format": "hh-sol-artifact-1",
  "contractName": "CoffeeSupplyChain",
  "sourceName": "contracts/CoffeeSupplyChain.sol",
  "abi": [
    {
      "anonymous": false,
      "inputs": [
        {
          "indexed": true,
          "internalType": "string",
          "name": "lot",
          "type": "string"
        },
        {
          "indexed": false,
          "internalType": "string",
          "name": "farmerName",
          "type": "string"
        },
        {
          "indexed": false,
          "internalType": "uint256",
          "name": "timestamp",
          "type": "uint256"
        }
      ],
      "name": "LotCreated",
      "type": "event"
    },
    {
      "anonymous": false,
      "inputs": [
        {
          "indexed": true,
          "internalType": "string",
          "name": "lot",
          "type": "string"
        },
        {
          "indexed": false,
          "internalType": "uint256",
          "name": "timestamp",
          "type": "uint256"
        }
      ],
      "name": "LotDataUpdated",
      "type": "event"
    },
    {
      "anonymous": false,
      "inputs": [
        {
          "indexed": true,
          "internalType": "string",
          "name": "lot",
          "type": "string"
        },
        {
          "indexed": false,
          "internalType": "string",
          "name": "farmerName",
          "type": "string"
        },
        {
          "indexed": false,
          "internalType": "uint256",
          "name": "timestamp",
          "type": "uint256"
        }
      ],
      "name": "LotUpdated",
      "type": "event"
    },
    {
      "inputs": [
        {
          "internalType": "string",
          "name": "lot",
          "type": "string"
        },
        {
          "internalType": "string",
          "name": "farmerName",
          "type": "string"
        },
        {
          "internalType": "string",
          "name": "farmLocation",
          "type": "string"
        },
        {
          "internalType": "string",
          "name": "farmSize",
          "type": "string"
        },
        {
          "internalType": "string",
          "name": "quantity",
          "type": "string"
        },
        {
          "internalType": "string",
          "name": "variety",
          "type": "string"
        },
        {
          "internalType": "string",
          "name": "altitud",
          "type": "string"
        },
        {
          "internalType": "string",
          "name": "harvestingMethod",
          "type": "string"
        },
        {
          "internalType": "string",
          "name": "harvestTimestamp",
          "type": "string"
        },
        {
          "components": [
            {
              "internalType": "string",
              "name": "harvestMethod",
              "type": "string"
            },
            {
              "internalType": "string",
              "name": "harvestedQuantity",
              "type": "string"
            },
            {
              "components": [
                {
                  "internalType": "string",
                  "name": "pulpingMethod",
                  "type": "string"
                },
                {
                  "internalType": "string",
                  "name": "fermentationMethod",
                  "type": "string"
                },
                {
                  "internalType": "string",
                  "name": "dryingMethod",
                  "type": "string"
                },
                {
                  "internalType": "string",
                  "name": "millingMethod",
                  "type": "string"
                }
              ],
              "internalType": "struct CoffeeSupplyChain.ProcessingDetails",
              "name": "processing",
              "type": "tuple"
            },
            {
              "components": [
                {
                  "internalType": "string",
                  "name": "sortingMethod",
                  "type": "string"
                },
                {
                  "internalType": "string",
                  "name": "selectionCriteria",
                  "type": "string"
                },
                {
                  "internalType": "string",
                  "name": "defectsRemoved",
                  "type": "string"
                },
                {
                  "internalType": "string",
                  "name": "finalMoisture",
                  "type": "string"
                },
                {
                  "internalType": "string",
                  "name": "packagingType",
                  "type": "string"
                }
              ],
              "internalType": "struct CoffeeSupplyChain.QualityControl",
              "name": "quality",
              "type": "tuple"
            }
          ],
          "internalType": "struct CoffeeSupplyChain.ProcessingData",
          "name": "processingData",
          "type": "tuple"
        },
        {
          "components": [
            {
              "internalType": "string",
              "name": "familiesBenefited",
              "type": "string"
            },
            {
              "internalType": "string",
              "name": "biodiversityConservation",
              "type": "string"
            },
            {
              "internalType": "string",
              "name": "cultivationTechniques",
              "type": "string"
            },
            {
              "internalType": "string",
              "name": "waterManagement",
              "type": "string"
            }
          ],
          "internalType": "struct CoffeeSupplyChain.SustainabilityData",
          "name": "sustainabilityData",
          "type": "tuple"
        }
      ],
      "name": "createLot",
      "outputs": [],
      "stateMutability": "nonpayable",
      "type": "function"
    },
    {
      "inputs": [],
      "name": "getAllLotsInfo",
      "outputs": [
        {
          "components": [
            {
              "internalType": "string",
              "name": "lotNumber",
              "type": "string"
            },
            {
              "internalType": "string",
              "name": "farmerName",
              "type": "string"
            },
            {
              "internalType": "string",
              "name": "farmLocation",
              "type": "string"
            },
            {
              "internalType": "string",
              "name": "farmSize",
              "type": "string"
            },
            {
              "internalType": "string",
              "name": "quantity",
              "type": "string"
            },
            {
              "internalType": "string",
              "name": "variety",
              "type": "string"
            },
            {
              "internalType": "string",
              "name": "altitud",
              "type": "string"
            },
            {
              "internalType": "string",
              "name": "harvestingMethod",
              "type": "string"
            },
            {
              "internalType": "string",
              "name": "harvestTimestamp",
              "type": "string"
            },
            {
              "components": [
                {
                  "internalType": "string",
                  "name": "harvestMethod",
                  "type": "string"
                },
                {
                  "internalType": "string",
                  "name": "harvestedQuantity",
                  "type": "string"
                },
                {
                  "components": [
                    {
                      "internalType": "string",
                      "name": "pulpingMethod",
                      "type": "string"
                    },
                    {
                      "internalType": "string",
                      "name": "fermentationMethod",
                      "type": "string"
                    },
                    {
                      "internalType": "string",
                      "name": "dryingMethod",
                      "type": "string"
                    },
                    {
                      "internalType": "string",
                      "name": "millingMethod",
                      "type": "string"
                    }
                  ],
                  "internalType": "struct CoffeeSupplyChain.ProcessingDetails",
                  "name": "processing",
                  "type": "tuple"
                },
                {
                  "components": [
                    {
                      "internalType": "string",
                      "name": "sortingMethod",
                      "type": "string"
                    },
                    {
                      "internalType": "string",
                      "name": "selectionCriteria",
                      "type": "string"
                    },
                    {
                      "internalType": "string",
                      "name": "defectsRemoved",
                      "type": "string"
                    },
                    {
                      "internalType": "string",
                      "name": "finalMoisture",
                      "type": "string"
                    },
                    {
                      "internalType": "string",
                      "name": "packagingType",
                      "type": "string"
                    }
                  ],
                  "internalType": "struct CoffeeSupplyChain.QualityControl",
                  "name": "quality",
                  "type": "tuple"
                }
              ],
              "internalType": "struct CoffeeSupplyChain.ProcessingData",
              "name": "processingData",
              "type": "tuple"
            },
            {
              "components": [
                {
                  "internalType": "string",
                  "name": "familiesBenefited",
                  "type": "string"
                },
                {
                  "internalType": "string",
                  "name": "biodiversityConservation",
                  "type": "string"
                },
                {
                  "internalType": "string",
                  "name": "cultivationTechniques",
                  "type": "string"
                },
                {
                  "internalType": "string",
                  "name": "waterManagement",
                  "type": "string"
                }
              ],
              "internalType": "struct CoffeeSupplyChain.SustainabilityData",
              "name": "sustainabilityData",
              "type": "tuple"
            },
            {
              "internalType": "bytes32",
              "name": "processDataHash",
              "type": "bytes32"
            },
            {
              "internalType": "bytes32",
              "name": "sustainabilityHash",
              "type": "bytes32"
            },
            {
              "internalType": "bool",
              "name": "isActive",
              "type": "bool"
            }
          ],
          "internalType": "struct CoffeeSupplyChain.ReturnLotData[]",
          "name": "",
          "type": "tuple[]"
        }
      ],
      "stateMutability": "view",
      "type": "function"
    },
    {
      "inputs": [
        {
          "internalType": "string",
          "name": "lot",
          "type": "string"
        }
      ],
      "name": "getMainLotData",
      "outputs": [
        {
          "components": [
            {
              "internalType": "string",
              "name": "lotNumber",
              "type": "string"
            },
            {
              "internalType": "string",
              "name": "farmerName",
              "type": "string"
            },
            {
              "internalType": "string",
              "name": "farmLocation",
              "type": "string"
            },
            {
              "internalType": "string",
              "name": "farmSize",
              "type": "string"
            },
            {
              "internalType": "string",
              "name": "quantity",
              "type": "string"
            },
            {
              "internalType": "string",
              "name": "variety",
              "type": "string"
            },
            {
              "internalType": "string",
              "name": "altitud",
              "type": "string"
            },
            {
              "internalType": "string",
              "name": "harvestingMethod",
              "type": "string"
            },
            {
              "internalType": "string",
              "name": "harvestTimestamp",
              "type": "string"
            },
            {
              "internalType": "bytes32",
              "name": "processDataHash",
              "type": "bytes32"
            },
            {
              "internalType": "bytes32",
              "name": "sustainabilityHash",
              "type": "bytes32"
            },
            {
              "internalType": "bool",
              "name": "isActive",
              "type": "bool"
            }
          ],
          "internalType": "struct CoffeeSupplyChain.MainLotData",
          "name": "",
          "type": "tuple"
        }
      ],
      "stateMutability": "view",
      "type": "function"
    },
    {
      "inputs": [
        {
          "internalType": "string",
          "name": "lot",
          "type": "string"
        }
      ],
      "name": "getProcessingData",
      "outputs": [
        {
          "components": [
            {
              "internalType": "string",
              "name": "harvestMethod",
              "type": "string"
            },
            {
              "internalType": "string",
              "name": "harvestedQuantity",
              "type": "string"
            },
            {
              "components": [
                {
                  "internalType": "string",
                  "name": "pulpingMethod",
                  "type": "string"
                },
                {
                  "internalType": "string",
                  "name": "fermentationMethod",
                  "type": "string"
                },
                {
                  "internalType": "string",
                  "name": "dryingMethod",
                  "type": "string"
                },
                {
                  "internalType": "string",
                  "name": "millingMethod",
                  "type": "string"
                }
              ],
              "internalType": "struct CoffeeSupplyChain.ProcessingDetails",
              "name": "processing",
              "type": "tuple"
            },
            {
              "components": [
                {
                  "internalType": "string",
                  "name": "sortingMethod",
                  "type": "string"
                },
                {
                  "internalType": "string",
                  "name": "selectionCriteria",
                  "type": "string"
                },
                {
                  "internalType": "string",
                  "name": "defectsRemoved",
                  "type": "string"
                },
                {
                  "internalType": "string",
                  "name": "finalMoisture",
                  "type": "string"
                },
                {
                  "internalType": "string",
                  "name": "packagingType",
                  "type": "string"
                }
              ],
              "internalType": "struct CoffeeSupplyChain.QualityControl",
              "name": "quality",
              "type": "tuple"
            }
          ],
          "internalType": "struct CoffeeSupplyChain.ProcessingData",
          "name": "",
          "type": "tuple"
        }
      ],
      "stateMutability": "view",
      "type": "function"
    },
    {
      "inputs": [
        {
          "internalType": "string",
          "name": "lot",
          "type": "string"
        }
      ],
      "name": "getSustainabilityData",
      "outputs": [
        {
          "components": [
            {
              "internalType": "string",
              "name": "familiesBenefited",
              "type": "string"
            },
            {
              "internalType": "string",
              "name": "biodiversityConservation",
              "type": "string"
            },
            {
              "internalType": "string",
              "name": "cultivationTechniques",
              "type": "string"
            },
            {
              "internalType": "string",
              "name": "waterManagement",
              "type": "string"
            }
          ],
          "internalType": "struct CoffeeSupplyChain.SustainabilityData",
          "name": "",
          "type": "tuple"
        }
      ],
      "stateMutability": "view",
      "type": "function"
    },
    {
      "inputs": [
        {
          "internalType": "uint256",
          "name": "",
          "type": "uint256"
        }
      ],
      "name": "lotIds",
      "outputs": [
        {
          "internalType": "string",
          "name": "",
          "type": "string"
        }
      ],
      "stateMutability": "view",
      "type": "function"
    },
    {
      "inputs": [
        {
          "internalType": "string",
          "name": "",
          "type": "string"
        }
      ],
      "name": "mainLotRecords",
      "outputs": [
        {
          "internalType": "string",
          "name": "lotNumber",
          "type": "string"
        },
        {
          "internalType": "string",
          "name": "farmerName",
          "type": "string"
        },
        {
          "internalType": "string",
          "name": "farmLocation",
          "type": "string"
        },
        {
          "internalType": "string",
          "name": "farmSize",
          "type": "string"
        },
        {
          "internalType": "string",
          "name": "quantity",
          "type": "string"
        },
        {
          "internalType": "string",
          "name": "variety",
          "type": "string"
        },
        {
          "internalType": "string",
          "name": "altitud",
          "type": "string"
        },
        {
          "internalType": "string",
          "name": "harvestingMethod",
          "type": "string"
        },
        {
          "internalType": "string",
          "name": "harvestTimestamp",
          "type": "string"
        },
        {
          "internalType": "bytes32",
          "name": "processDataHash",
          "type": "bytes32"
        },
        {
          "internalType": "bytes32",
          "name": "sustainabilityHash",
          "type": "bytes32"
        },
        {
          "internalType": "bool",
          "name": "isActive",
          "type": "bool"
        }
      ],
      "stateMutability": "view",
      "type": "function"
    },
    {
      "inputs": [
        {
          "internalType": "string",
          "name": "lot",
          "type": "string"
        },
        {
          "components": [
            {
              "internalType": "string",
              "name": "harvestMethod",
              "type": "string"
            },
            {
              "internalType": "string",
              "name": "harvestedQuantity",
              "type": "string"
            },
            {
              "components": [
                {
                  "internalType": "string",
                  "name": "pulpingMethod",
                  "type": "string"
                },
                {
                  "internalType": "string",
                  "name": "fermentationMethod",
                  "type": "string"
                },
                {
                  "internalType": "string",
                  "name": "dryingMethod",
                  "type": "string"
                },
                {
                  "internalType": "string",
                  "name": "millingMethod",
                  "type": "string"
                }
              ],
              "internalType": "struct CoffeeSupplyChain.ProcessingDetails",
              "name": "processing",
              "type": "tuple"
            },
            {
              "components": [
                {
                  "internalType": "string",
                  "name": "sortingMethod",
                  "type": "string"
                },
                {
                  "internalType": "string",
                  "name": "selectionCriteria",
                  "type": "string"
                },
                {
                  "internalType": "string",
                  "name": "defectsRemoved",
                  "type": "string"
                },
                {
                  "internalType": "string",
                  "name": "finalMoisture",
                  "type": "string"
                },
                {
                  "internalType": "string",
                  "name": "packagingType",
                  "type": "string"
                }
              ],
              "internalType": "struct CoffeeSupplyChain.QualityControl",
              "name": "quality",
              "type": "tuple"
            }
          ],
          "internalType": "struct CoffeeSupplyChain.ProcessingData",
          "name": "newProcessingData",
          "type": "tuple"
        },
        {
          "components": [
            {
              "internalType": "string",
              "name": "familiesBenefited",
              "type": "string"
            },
            {
              "internalType": "string",
              "name": "biodiversityConservation",
              "type": "string"
            },
            {
              "internalType": "string",
              "name": "cultivationTechniques",
              "type": "string"
            },
            {
              "internalType": "string",
              "name": "waterManagement",
              "type": "string"
            }
          ],
          "internalType": "struct CoffeeSupplyChain.SustainabilityData",
          "name": "newSustainabilityData",
          "type": "tuple"
        }
      ],
      "name": "updateLotData",
      "outputs": [],
      "stateMutability": "nonpayable",
      "type": "function"
    },
    {
      "inputs": [
        {
          "internalType": "string",
          "name": "lot",
          "type": "string"
        },
        {
          "components": [
            {
              "internalType": "string",
              "name": "harvestMethod",
              "type": "string"
            },
            {
              "internalType": "string",
              "name": "harvestedQuantity",
              "type": "string"
            },
            {
              "components": [
                {
                  "internalType": "string",
                  "name": "pulpingMethod",
                  "type": "string"
                },
                {
                  "internalType": "string",
                  "name": "fermentationMethod",
                  "type": "string"
                },
                {
                  "internalType": "string",
                  "name": "dryingMethod",
                  "type": "string"
                },
                {
                  "internalType": "string",
                  "name": "millingMethod",
                  "type": "string"
                }
              ],
              "internalType": "struct CoffeeSupplyChain.ProcessingDetails",
              "name": "processing",
              "type": "tuple"
            },
            {
              "components": [
                {
                  "internalType": "string",
                  "name": "sortingMethod",
                  "type": "string"
                },
                {
                  "internalType": "string",
                  "name": "selectionCriteria",
                  "type": "string"
                },
                {
                  "internalType": "string",
                  "name": "defectsRemoved",
                  "type": "string"
                },
                {
                  "internalType": "string",
                  "name": "finalMoisture",
                  "type": "string"
                },
                {
                  "internalType": "string",
                  "name": "packagingType",
                  "type": "string"
                }
              ],
              "internalType": "struct CoffeeSupplyChain.QualityControl",
              "name": "quality",
              "type": "tuple"
            }
          ],
          "internalType": "struct CoffeeSupplyChain.ProcessingData",
          "name": "processingData",
          "type": "tuple"
        },
        {
          "components": [
            {
              "internalType": "string",
              "name": "familiesBenefited",
              "type": "string"
            },
            {
              "internalType": "string",
              "name": "biodiversityConservation",
              "type": "string"
            },
            {
              "internalType": "string",
              "name": "cultivationTechniques",
              "type": "string"
            },
            {
              "internalType": "string",
              "name": "waterManagement",
              "type": "string"
            }
          ],
          "internalType": "struct CoffeeSupplyChain.SustainabilityData",
          "name": "sustainabilityData",
          "type": "tuple"
        }
      ],
      "name": "verifyDataIntegrity",
      "outputs": [
        {
          "internalType": "bool",
          "name": "",
          "type": "bool"
        }
      ],
      "stateMutability": "view",
      "type": "function"
    }
  ],
  "bytecode": "0x60808060405234601557611bf9908161001b8239f35b600080fdfe6080604052600436101561001257600080fd5b60003560e01c80630252fe3e146111825780630450351a14610d3f57806343587a9014610cf457806344bd086a146108155780634648af65146107af57806361e1b4c3146107145780638556aa03146105855780639f952e90146103545763a33de4301461007f57600080fd5b3461034f57602036600319011261034f576004356001600160401b03811161034f576100af90369060040161137b565b6040516100bb816112ec565b60608152602081016060905260408101606090526060810160609052608081016060905260a081016060905260c081016060905260e0810160609052610100810160609052610120810160009052610140810160009052610160016000905260405190805191806020830193610132818387611645565b810160008152036020019020600b015460ff1661014e906118a5565b6040518092819251809261016192611645565b810160008152036020019020604051610179816112ec565b61018282611801565b815261019060018301611801565b60208201908152916101a460028201611801565b604083019081526101b760038301611801565b60608401908152916101cb60048201611801565b608085019081526101de60058301611801565b60a086019081526101f160068401611801565b60c0870190815261020460078501611801565b60e088019081529161021860088601611801565b9361010089019485526009860154976101208a01988952600a870154966101408b01978852600b015460ff16976101608b0198151589526040519b8c9b60208d525160208d0161018090526101a08d0161027191611668565b90518c8203601f190160408e01526102899190611668565b90518b8203601f190160608d01526102a19190611668565b90518a8203601f190160808c01526102b99190611668565b9051898203601f190160a08b01526102d19190611668565b9051888203601f190160c08a01526102e99190611668565b9051878203601f190160e08901526103019190611668565b9051868203601f190161010088015261031a9190611668565b9051858203601f19016101208701526103339190611668565b9251610140850152516101608401525115156101808301520390f35b600080fd5b3461034f57610362366115da565b91906040519061039660ff600b8551946020818189019761038481838b611645565b810160008152030190200154166118a5565b60ff600b60405160208187516103ad81838a611645565b81016000815203019020015416156105495761050c602061051d95600a9361046760405184818a516103e081838d611645565b810160018152030190206103f5835182611a63565b6104058584015160018301611a63565b610416604084015160028301611b6e565b866080606085015161042c815160068601611a63565b61043c8882015160078601611a63565b61044d604082015160088601611a63565b61045e606082015160098601611a63565b01519101611a63565b60405187516104909184918690829061048181838e611645565b81016002815203019020611b6e565b6040516104b9816104ab8682019487865260408301906116e1565b03601f19810183528261135a565b519020600960405184818a516104d081838d611645565b8101600081520301902001556040516104f7816104ab85820194868652604083019061168d565b51902093604051809381928851928391611645565b810160008152030190200155611ba3565b7f77a53f7bbeb5a0c59cbfb9194c64d012e71ca9628fe6b1095ca2a8c532c3adff6020604051428152a2005b60405162461bcd60e51b81526020600482015260146024820152734c6f7465206e6f20657374c3a12061637469766f60601b6044820152606490fd5b3461034f57602036600319011261034f576004356001600160401b03811161034f576105b590369060040161137b565b60405181818093516020819301916105cc92611645565b8101600081520360200190206105e181611801565b6105ed60018301611801565b916105fa60028201611801565b61060660038301611801565b9161061360048201611801565b61061f60058301611801565b61062b60068401611801565b61063760078501611801565b9161064460088601611801565b93600986015497600a87015496600b015460ff16976040519b8c9b6101808d526101808d0161067291611668565b8c810360208e015261068391611668565b8b810360408d015261069491611668565b8a810360608c01526106a591611668565b89810360808b01526106b691611668565b88810360a08a01526106c791611668565b87810360c08901526106d891611668565b86810360e08801526106e991611668565b8581036101008701526106fb91611668565b9261012085015261014084015215156101608301520390f35b3461034f57602036600319011261034f576004356001600160401b03811161034f57610797610788602061074f6107ab94369060040161137b565b6107576118f9565b506040519061077760ff600b83519486818187019761038481838b611645565b604051938492839251928391611645565b81016002815203019020611970565b60405191829160208352602083019061168d565b0390f35b3461034f57602036600319011261034f576004356001600160401b03811161034f576108016107f260206107ea6107ab94369060040161137b565b61075761191d565b810160018152030190206119b9565b6040519182916020835260208301906116e1565b3461034f5761016036600319011261034f576004356001600160401b03811161034f5761084690369060040161137b565b6024356001600160401b03811161034f5761086590369060040161137b565b906044356001600160401b03811161034f5761088590369060040161137b565b6064356001600160401b03811161034f576108a490369060040161137b565b906084356001600160401b03811161034f576108c490369060040161137b565b9060a4356001600160401b03811161034f576108e490369060040161137b565b60c4356001600160401b03811161034f5761090390369060040161137b565b9260e4356001600160401b03811161034f5761092390369060040161137b565b94610104356001600160401b03811161034f5761094490369060040161137b565b93610124356001600160401b03811161034f57610965903690600401611478565b94610144356001600160401b03811161034f576109869036906004016113d1565b976040519788808c80519b60208d92019c6109a1918e611645565b810160008152036020019020546109b7906117c7565b610cbe578a968c968b60405180602081019260208452604082016109da9161168d565b03601f19810182526109ec908261135a565b51902096604051602081019060208252808d60408201610a0b916116e1565b03601f1981018252610a1d908261135a565b5190209660405199610a2e8b6112ec565b8b8b5260208b0190815260408b0191825260608b0192835260808b0193845260a08b0194855260c08b0195865260e08b019687526101008b019788526101208b019889526101408b01998a528d6101608c019c60018e5260405180928192518092610a9892611645565b8101600081520360200190209a51610ab0908c611a63565b51610abe9060018c01611a63565b51610acc9060028b01611a63565b51610ada9060038a01611a63565b51610ae89060048901611a63565b51610af69060058801611a63565b51610b049060068701611a63565b51610b129060078601611a63565b51610b209060088501611a63565b51600983015551600a820155600b019051151560ff198254169060ff16179055604051808551610b51818387611645565b810160018152036020019020908051610b6a9083611a63565b6020810151610b7c9060018401611a63565b6040810151610b8e9060028401611b6e565b606001518051610ba19060068401611a63565b6020810151610bb39060078401611a63565b6040810151610bc59060088401611a63565b6060810151610bd79060098401611a63565b60800151610be791600a01611a63565b60405180809285518092610bfa92611645565b81016002815203602001902090610c1091611b6e565b60035468010000000000000000811015610ca857806001610c349201600355611796565b919091610c9257610c7281610c6d610c87937f0a9f342f718795a34b99dd509bd4a7358cc3f9b601cef661eca13437577c4a8895611a63565b611ba3565b92604051918291604083526040830190611668565b4260208301520390a2005b634e487b7160e01b600052600060045260246000fd5b634e487b7160e01b600052604160045260246000fd5b60405162461bcd60e51b815260206004820152600e60248201526d4c6f74652079612065786973746560901b6044820152606490fd5b3461034f57602036600319011261034f5760043560035481101561034f57610d1b90611796565b610c9257610d2b6107ab91611801565b604051918291602083526020830190611668565b3461034f57600036600319011261034f57600354610d5c816118e2565b90610d6a604051928361135a565b808252601f19610d79826118e2565b0160005b8181106110f857505060005b818110610f0b57826040518091602082016020835281518091526040830190602060408260051b8601019301916000905b828210610dc957505050500390f35b91936020610e34826101a080610edb610ec7610eb3610e9f610e8d8d9f610e6960019d9f8f8d9e6040610e5793610e4493610e7b97603f19908503019052519e8f92610e2084516101c083526101c0830190611668565b906020850151906020818403910152611668565b9101518d820360408f0152611668565b60608d01518c6060818403910152611668565b60808c01518b820360808d0152611668565b60a08b01518a820360a08c0152611668565b60c08a015189820360c08b0152611668565b60e089015188820360e08a0152611668565b610100880151878203610100890152611668565b6101208701518682036101208801526116e1565b61014086015185820361014087015261168d565b93610160810151610160850152610180810151610180850152015115159101529601920192018594939192610dba565b610f1481611796565b50610f1e90611801565b604051815190806020840192610f35818386611645565b81016000815203602001902090604051918291610f51836112ec565b610f5a82611801565b8352610f6860018301611801565b6020840190815294610f7c60028401611801565b6040850190815291610f9060038501611801565b6060860190815290610fa460048601611801565b60808701908152610fb760058701611801565b60a08801908152610fca60068801611801565b60c0890190815290610fde60078901611801565b60e08a0190815292610ff260088a01611801565b95866101008c015260098a0154998a6101208d0152600a810154610140819d0152600b015460ff1615159b8c610160820152519c5198519051915192519351945195604051808a51611045818386611645565b810160018152036020019020986040518092819251809261106592611645565b81016002815203602001902098604051809e61108082611308565b81526020015260408d015260608c015260808b015260a08a015260c089015260e08801526101008701526110b3906119b9565b6101208601526110c290611970565b6101408501526101608401526101808301526101a08201526110e48285611a4f565b526110ef8184611a4f565b50600101610d89565b60209060405161110781611308565b606081526060838201526060604082015260608082015260606080820152606060a0820152606060c0820152606060e0820152606061010082015261114a61191d565b6101208201526111586118f9565b6101408201526000610160820152600061018082015260006101a082015282828701015201610d7d565b3461034f576020806111ba611196366115da565b92916040949194519061077760ff600b83519486818187019761038481838b611645565b8101600081520301902091604051906111d2826112ec565b6111db84611801565b82526111e960018501611801565b858301526111f960028501611801565b604083015261120a60038501611801565b606083015261121b60048501611801565b608083015261122c60058501611801565b60a083015261123d60068501611801565b60c083015261124e60078501611801565b60e083015261125f60088501611801565b6101008301526009840154918261012082015261016060ff600b600a88015497610140850198895201541615159101526040516112aa816104ab8882019489865260408301906116e1565b5190201491826112c1575b50506040519015158152f35b90915051906040516112e1816104ab86820194878652604083019061168d565b5190201482806112b5565b61018081019081106001600160401b03821117610ca857604052565b6101c081019081106001600160401b03821117610ca857604052565b608081019081106001600160401b03821117610ca857604052565b60a081019081106001600160401b03821117610ca857604052565b90601f801991011681019081106001600160401b03821117610ca857604052565b81601f8201121561034f578035906001600160401b038211610ca857604051926113af601f8401601f19166020018561135a565b8284526020838301011161034f57816000926020809301838601378301015290565b919060808382031261034f57604051906113ea82611324565b819380356001600160401b03811161034f578261140891830161137b565b835260208101356001600160401b03811161034f578261142991830161137b565b602084015260408101356001600160401b03811161034f578261144d91830161137b565b60408401526060810135916001600160401b03831161034f57606092611473920161137b565b910152565b919060808382031261034f576040519061149182611324565b819380356001600160401b03811161034f57826114af91830161137b565b835260208101356001600160401b03811161034f57826114d091830161137b565b602084015260408101356001600160401b03811161034f57826114f49183016113d1565b60408401526060810135906001600160401b03821161034f57019160a08383031261034f57604051926115268461133f565b80356001600160401b03811161034f578361154291830161137b565b845260208101356001600160401b03811161034f578361156391830161137b565b602085015260408101356001600160401b03811161034f578361158791830161137b565b604085015260608101356001600160401b03811161034f57836115ab91830161137b565b60608501526080810135926001600160401b03841161034f576060936115d1920161137b565b60808401520152565b606060031982011261034f576004356001600160401b03811161034f57816116049160040161137b565b916024356001600160401b03811161034f578261162391600401611478565b91604435906001600160401b03821161034f57611642916004016113d1565b90565b60005b8381106116585750506000910152565b8181015183820152602001611648565b9060209161168181518092818552858086019101611645565b601f01601f1916010190565b6116429160606116d06116be6116ac8551608086526080860190611668565b60208601518582036020870152611668565b60408501518482036040860152611668565b920151906060818403910152611668565b906116429160606117256117136117018451608087526080870190611668565b60208501518682036020880152611668565b6040840151858203604087015261168d565b910151916060818303910152608061178561177361176161174f865160a0875260a0870190611668565b60208701518682036020880152611668565b60408601518582036040870152611668565b60608501518482036060860152611668565b920151906080818403910152611668565b6003548110156117b157600360005260206000200190600090565b634e487b7160e01b600052603260045260246000fd5b90600182811c921680156117f7575b60208310146117e157565b634e487b7160e01b600052602260045260246000fd5b91607f16916117d6565b9060405191826000825492611815846117c7565b8084529360018116908115611883575060011461183c575b5061183a9250038361135a565b565b90506000929192526020600020906000915b81831061186757505090602061183a928201013861182d565b602091935080600191548385890101520191019091849261184e565b90506020925061183a94915060ff191682840152151560051b8201013861182d565b156118ac57565b60405162461bcd60e51b815260206004820152600e60248201526d4c6f7465206e6f2065786973746560901b6044820152606490fd5b6001600160401b038111610ca85760051b60200190565b6040519061190682611324565b606080838181528160208201528160408201520152565b6040519061192a82611324565b81606081526060602082015261193e6118f9565b60408201526060604051916119528361133f565b81835281602084015281604084015281808401528160808401520152565b9060405161197d81611324565b60606114736003839561198f81611801565b855261199d60018201611801565b60208601526119ae60028201611801565b604086015201611801565b90604051916119c783611324565b6060836119d383611801565b81526119e160018401611801565b60208201526119f260028401611970565b60408201526115d1600a60405194611a098661133f565b611a1560068201611801565b8652611a2360078201611801565b6020870152611a3460088201611801565b6040870152611a4560098201611801565b8587015201611801565b80518210156117b15760209160051b010190565b91909182516001600160401b038111610ca857611a8082546117c7565b601f8111611b26575b506020601f8211600114611ac45781929394600092611ab9575b50508160011b916000199060031b1c1916179055565b015190503880611aa3565b601f1982169083600052806000209160005b818110611b0e57509583600195969710611af5575b505050811b019055565b015160001960f88460031b161c19169055388080611aeb565b9192602060018192868b015181550194019201611ad6565b826000526020600020601f830160051c81019160208410611b64575b601f0160051c01905b818110611b585750611a89565b60008155600101611b4b565b9091508190611b42565b6003606061183a93611b81815185611a63565b611b92602082015160018601611a63565b61045e604082015160028601611a63565b611bbb90602060405192828480945193849201611645565b81010390209056fea2646970667358221220304288fb9ebbe2cc52a224080985d96bcafb490c229a47f59e3541f2f76de19564736f6c634300081c0033",
  "linkReferences": {},
  "deployedLinkReferences": {}
}