{
  "_format": "hh-sol-artifact-1",
  "contractName": "CoffeeSupplyChain",
  "sourceName": "contracts/CoffeeSupplyChain.sol",
  "abi": [
    {
      "anonymous": false,
      "inputs": [
        {
          "indexed": true,
          "internalType": "string",
          "name": "lotNumber",
          "type": "string"
        },
        {
          "indexed": false,
          "internalType": "uint256",
          "name": "timestamp",
          "type": "uint256"
        }
      ],
      "name": "CosechaAdded",
      "type": "event"
    },
    {
      "anonymous": false,
      "inputs": [
        {
          "indexed": true,
          "internalType": "string",
          "name": "lotNumber",
          "type": "string"
        },
        {
          "indexed": false,
          "internalType": "uint256",
          "name": "timestamp",
          "type": "uint256"
        }
      ],
      "name": "DespulpadoAdded",
      "type": "event"
    },
    {
      "anonymous": false,
      "inputs": [
        {
          "indexed": true,
          "internalType": "string",
          "name": "lotNumber",
          "type": "string"
        },
        {
          "indexed": false,
          "internalType": "uint256",
          "name": "timestamp",
          "type": "uint256"
        }
      ],
      "name": "ImpactoAdded",
      "type": "event"
    },
    {
      "anonymous": false,
      "inputs": [
        {
          "indexed": true,
          "internalType": "string",
          "name": "lotNumber",
          "type": "string"
        },
        {
          "indexed": false,
          "internalType": "uint256",
          "name": "timestamp",
          "type": "uint256"
        }
      ],
      "name": "LotCreated",
      "type": "event"
    },
    {
      "anonymous": false,
      "inputs": [
        {
          "indexed": true,
          "internalType": "string",
          "name": "lotNumber",
          "type": "string"
        },
        {
          "indexed": false,
          "internalType": "uint256",
          "name": "timestamp",
          "type": "uint256"
        }
      ],
      "name": "SecadoAdded",
      "type": "event"
    },
    {
      "anonymous": false,
      "inputs": [
        {
          "indexed": true,
          "internalType": "string",
          "name": "lotNumber",
          "type": "string"
        },
        {
          "indexed": false,
          "internalType": "uint256",
          "name": "timestamp",
          "type": "uint256"
        }
      ],
      "name": "TrilladoAdded",
      "type": "event"
    },
    {
      "inputs": [
        {
          "internalType": "string",
          "name": "lotNumber",
          "type": "string"
        },
        {
          "internalType": "string",
          "name": "nombreCaficultor",
          "type": "string"
        },
        {
          "internalType": "string",
          "name": "ubicacion",
          "type": "string"
        },
        {
          "internalType": "string",
          "name": "tamanoFinca",
          "type": "string"
        },
        {
          "internalType": "string",
          "name": "variedadesCultivadas",
          "type": "string"
        },
        {
          "internalType": "string",
          "name": "altitudCultivo",
          "type": "string"
        },
        {
          "internalType": "string",
          "name": "fechaCosecha",
          "type": "string"
        },
        {
          "internalType": "string",
          "name": "metodoCosecha",
          "type": "string"
        },
        {
          "internalType": "string",
          "name": "cantidadCosechada",
          "type": "string"
        }
      ],
      "name": "addCosechaData",
      "outputs": [],
      "stateMutability": "nonpayable",
      "type": "function"
    },
    {
      "inputs": [
        {
          "internalType": "string",
          "name": "lotNumber",
          "type": "string"
        },
        {
          "internalType": "string",
          "name": "metodoDespulpado",
          "type": "string"
        },
        {
          "internalType": "string",
          "name": "fechaProceso",
          "type": "string"
        },
        {
          "internalType": "string",
          "name": "cantidadPulpaRetirada",
          "type": "string"
        },
        {
          "internalType": "string",
          "name": "destinoPulpa",
          "type": "string"
        }
      ],
      "name": "addDespulpadoData",
      "outputs": [],
      "stateMutability": "nonpayable",
      "type": "function"
    },
    {
      "inputs": [
        {
          "internalType": "string",
          "name": "lotNumber",
          "type": "string"
        },
        {
          "internalType": "string",
          "name": "ayudaFamilias",
          "type": "string"
        },
        {
          "internalType": "string",
          "name": "pagoSobrePromedio",
          "type": "string"
        },
        {
          "internalType": "string",
          "name": "reduccionPesticidas",
          "type": "string"
        },
        {
          "internalType": "string",
          "name": "usoComposta",
          "type": "string"
        },
        {
          "internalType": "string",
          "name": "fechaImpacto",
          "type": "string"
        }
      ],
      "name": "addImpactoData",
      "outputs": [],
      "stateMutability": "nonpayable",
      "type": "function"
    },
    {
      "inputs": [
        {
          "internalType": "string",
          "name": "lotNumber",
          "type": "string"
        },
        {
          "internalType": "string",
          "name": "metodoSecado",
          "type": "string"
        },
        {
          "internalType": "string",
          "name": "humedadFinal",
          "type": "string"
        },
        {
          "internalType": "string",
          "name": "fechaSecado",
          "type": "string"
        }
      ],
      "name": "addSecadoData",
      "outputs": [],
      "stateMutability": "nonpayable",
      "type": "function"
    },
    {
      "inputs": [
        {
          "internalType": "string",
          "name": "lotNumber",
          "type": "string"
        },
        {
          "internalType": "string",
          "name": "fechaTrillado",
          "type": "string"
        },
        {
          "internalType": "string",
          "name": "cantidadTrillada",
          "type": "string"
        }
      ],
      "name": "addTrilladoData",
      "outputs": [],
      "stateMutability": "nonpayable",
      "type": "function"
    },
    {
      "inputs": [
        {
          "internalType": "string",
          "name": "",
          "type": "string"
        }
      ],
      "name": "cosechaData",
      "outputs": [
        {
          "internalType": "string",
          "name": "nombreCaficultor",
          "type": "string"
        },
        {
          "internalType": "string",
          "name": "ubicacion",
          "type": "string"
        },
        {
          "internalType": "string",
          "name": "tamanoFinca",
          "type": "string"
        },
        {
          "internalType": "string",
          "name": "variedadesCultivadas",
          "type": "string"
        },
        {
          "internalType": "string",
          "name": "altitudCultivo",
          "type": "string"
        },
        {
          "internalType": "string",
          "name": "fechaCosecha",
          "type": "string"
        },
        {
          "internalType": "string",
          "name": "metodoCosecha",
          "type": "string"
        },
        {
          "internalType": "string",
          "name": "cantidadCosechada",
          "type": "string"
        }
      ],
      "stateMutability": "view",
      "type": "function"
    },
    {
      "inputs": [
        {
          "internalType": "string",
          "name": "lotNumber",
          "type": "string"
        },
        {
          "internalType": "string",
          "name": "farmerName",
          "type": "string"
        },
        {
          "internalType": "string",
          "name": "farmLocation",
          "type": "string"
        },
        {
          "internalType": "string",
          "name": "farmSize",
          "type": "string"
        },
        {
          "internalType": "string",
          "name": "quantity",
          "type": "string"
        },
        {
          "internalType": "string",
          "name": "variety",
          "type": "string"
        },
        {
          "internalType": "string",
          "name": "altitud",
          "type": "string"
        },
        {
          "internalType": "string",
          "name": "harvestingMethod",
          "type": "string"
        },
        {
          "internalType": "string",
          "name": "harvestTimestamp",
          "type": "string"
        }
      ],
      "name": "createLot",
      "outputs": [],
      "stateMutability": "nonpayable",
      "type": "function"
    },
    {
      "inputs": [
        {
          "internalType": "string",
          "name": "",
          "type": "string"
        }
      ],
      "name": "despulpadoData",
      "outputs": [
        {
          "internalType": "string",
          "name": "metodoDespulpado",
          "type": "string"
        },
        {
          "internalType": "string",
          "name": "fechaProceso",
          "type": "string"
        },
        {
          "internalType": "string",
          "name": "cantidadPulpaRetirada",
          "type": "string"
        },
        {
          "internalType": "string",
          "name": "destinoPulpa",
          "type": "string"
        }
      ],
      "stateMutability": "view",
      "type": "function"
    },
    {
      "inputs": [],
      "name": "getAllLots",
      "outputs": [
        {
          "components": [
            {
              "internalType": "string",
              "name": "lotNumber",
              "type": "string"
            },
            {
              "internalType": "string",
              "name": "farmerName",
              "type": "string"
            },
            {
              "internalType": "string",
              "name": "farmLocation",
              "type": "string"
            },
            {
              "internalType": "string",
              "name": "farmSize",
              "type": "string"
            },
            {
              "internalType": "string",
              "name": "quantity",
              "type": "string"
            },
            {
              "internalType": "string",
              "name": "variety",
              "type": "string"
            },
            {
              "internalType": "string",
              "name": "altitud",
              "type": "string"
            },
            {
              "internalType": "string",
              "name": "harvestingMethod",
              "type": "string"
            },
            {
              "internalType": "string",
              "name": "harvestTimestamp",
              "type": "string"
            },
            {
              "internalType": "bool",
              "name": "isActive",
              "type": "bool"
            }
          ],
          "internalType": "struct CoffeeSupplyChain.Lot[]",
          "name": "",
          "type": "tuple[]"
        },
        {
          "components": [
            {
              "internalType": "string",
              "name": "nombreCaficultor",
              "type": "string"
            },
            {
              "internalType": "string",
              "name": "ubicacion",
              "type": "string"
            },
            {
              "internalType": "string",
              "name": "tamanoFinca",
              "type": "string"
            },
            {
              "internalType": "string",
              "name": "variedadesCultivadas",
              "type": "string"
            },
            {
              "internalType": "string",
              "name": "altitudCultivo",
              "type": "string"
            },
            {
              "internalType": "string",
              "name": "fechaCosecha",
              "type": "string"
            },
            {
              "internalType": "string",
              "name": "metodoCosecha",
              "type": "string"
            },
            {
              "internalType": "string",
              "name": "cantidadCosechada",
              "type": "string"
            }
          ],
          "internalType": "struct CoffeeSupplyChain.Cosecha[]",
          "name": "",
          "type": "tuple[]"
        },
        {
          "components": [
            {
              "internalType": "string",
              "name": "metodoDespulpado",
              "type": "string"
            },
            {
              "internalType": "string",
              "name": "fechaProceso",
              "type": "string"
            },
            {
              "internalType": "string",
              "name": "cantidadPulpaRetirada",
              "type": "string"
            },
            {
              "internalType": "string",
              "name": "destinoPulpa",
              "type": "string"
            }
          ],
          "internalType": "struct CoffeeSupplyChain.Despulpado[]",
          "name": "",
          "type": "tuple[]"
        },
        {
          "components": [
            {
              "internalType": "string",
              "name": "metodoSecado",
              "type": "string"
            },
            {
              "internalType": "string",
              "name": "humedadFinal",
              "type": "string"
            },
            {
              "internalType": "string",
              "name": "fechaSecado",
              "type": "string"
            }
          ],
          "internalType": "struct CoffeeSupplyChain.Secado[]",
          "name": "",
          "type": "tuple[]"
        },
        {
          "components": [
            {
              "internalType": "string",
              "name": "fechaTrillado",
              "type": "string"
            },
            {
              "internalType": "string",
              "name": "cantidadTrillada",
              "type": "string"
            }
          ],
          "internalType": "struct CoffeeSupplyChain.Trillado[]",
          "name": "",
          "type": "tuple[]"
        },
        {
          "components": [
            {
              "internalType": "string",
              "name": "ayudaFamilias",
              "type": "string"
            },
            {
              "internalType": "string",
              "name": "pagoSobrePromedio",
              "type": "string"
            },
            {
              "internalType": "string",
              "name": "reduccionPesticidas",
              "type": "string"
            },
            {
              "internalType": "string",
              "name": "usoComposta",
              "type": "string"
            },
            {
              "internalType": "string",
              "name": "fechaImpacto",
              "type": "string"
            }
          ],
          "internalType": "struct CoffeeSupplyChain.Impacto[]",
          "name": "",
          "type": "tuple[]"
        }
      ],
      "stateMutability": "view",
      "type": "function"
    },
    {
      "inputs": [
        {
          "internalType": "string",
          "name": "lotNumber",
          "type": "string"
        }
      ],
      "name": "getLotWithAllData",
      "outputs": [
        {
          "components": [
            {
              "components": [
                {
                  "internalType": "string",
                  "name": "lotNumber",
                  "type": "string"
                },
                {
                  "internalType": "string",
                  "name": "farmerName",
                  "type": "string"
                },
                {
                  "internalType": "string",
                  "name": "farmLocation",
                  "type": "string"
                },
                {
                  "internalType": "string",
                  "name": "farmSize",
                  "type": "string"
                },
                {
                  "internalType": "string",
                  "name": "quantity",
                  "type": "string"
                },
                {
                  "internalType": "string",
                  "name": "variety",
                  "type": "string"
                },
                {
                  "internalType": "string",
                  "name": "altitud",
                  "type": "string"
                },
                {
                  "internalType": "string",
                  "name": "harvestingMethod",
                  "type": "string"
                },
                {
                  "internalType": "string",
                  "name": "harvestTimestamp",
                  "type": "string"
                },
                {
                  "internalType": "bool",
                  "name": "isActive",
                  "type": "bool"
                }
              ],
              "internalType": "struct CoffeeSupplyChain.Lot",
              "name": "lot",
              "type": "tuple"
            },
            {
              "components": [
                {
                  "internalType": "string",
                  "name": "nombreCaficultor",
                  "type": "string"
                },
                {
                  "internalType": "string",
                  "name": "ubicacion",
                  "type": "string"
                },
                {
                  "internalType": "string",
                  "name": "tamanoFinca",
                  "type": "string"
                },
                {
                  "internalType": "string",
                  "name": "variedadesCultivadas",
                  "type": "string"
                },
                {
                  "internalType": "string",
                  "name": "altitudCultivo",
                  "type": "string"
                },
                {
                  "internalType": "string",
                  "name": "fechaCosecha",
                  "type": "string"
                },
                {
                  "internalType": "string",
                  "name": "metodoCosecha",
                  "type": "string"
                },
                {
                  "internalType": "string",
                  "name": "cantidadCosechada",
                  "type": "string"
                }
              ],
              "internalType": "struct CoffeeSupplyChain.Cosecha",
              "name": "cosecha",
              "type": "tuple"
            },
            {
              "components": [
                {
                  "internalType": "string",
                  "name": "metodoDespulpado",
                  "type": "string"
                },
                {
                  "internalType": "string",
                  "name": "fechaProceso",
                  "type": "string"
                },
                {
                  "internalType": "string",
                  "name": "cantidadPulpaRetirada",
                  "type": "string"
                },
                {
                  "internalType": "string",
                  "name": "destinoPulpa",
                  "type": "string"
                }
              ],
              "internalType": "struct CoffeeSupplyChain.Despulpado",
              "name": "despulpado",
              "type": "tuple"
            },
            {
              "components": [
                {
                  "internalType": "string",
                  "name": "metodoSecado",
                  "type": "string"
                },
                {
                  "internalType": "string",
                  "name": "humedadFinal",
                  "type": "string"
                },
                {
                  "internalType": "string",
                  "name": "fechaSecado",
                  "type": "string"
                }
              ],
              "internalType": "struct CoffeeSupplyChain.Secado",
              "name": "secado",
              "type": "tuple"
            },
            {
              "components": [
                {
                  "internalType": "string",
                  "name": "fechaTrillado",
                  "type": "string"
                },
                {
                  "internalType": "string",
                  "name": "cantidadTrillada",
                  "type": "string"
                }
              ],
              "internalType": "struct CoffeeSupplyChain.Trillado",
              "name": "trillado",
              "type": "tuple"
            },
            {
              "components": [
                {
                  "internalType": "string",
                  "name": "ayudaFamilias",
                  "type": "string"
                },
                {
                  "internalType": "string",
                  "name": "pagoSobrePromedio",
                  "type": "string"
                },
                {
                  "internalType": "string",
                  "name": "reduccionPesticidas",
                  "type": "string"
                },
                {
                  "internalType": "string",
                  "name": "usoComposta",
                  "type": "string"
                },
                {
                  "internalType": "string",
                  "name": "fechaImpacto",
                  "type": "string"
                }
              ],
              "internalType": "struct CoffeeSupplyChain.Impacto",
              "name": "impacto",
              "type": "tuple"
            }
          ],
          "internalType": "struct CoffeeSupplyChain.LotWithAllData",
          "name": "",
          "type": "tuple"
        }
      ],
      "stateMutability": "view",
      "type": "function"
    },
    {
      "inputs": [
        {
          "internalType": "string",
          "name": "",
          "type": "string"
        }
      ],
      "name": "impactoData",
      "outputs": [
        {
          "internalType": "string",
          "name": "ayudaFamilias",
          "type": "string"
        },
        {
          "internalType": "string",
          "name": "pagoSobrePromedio",
          "type": "string"
        },
        {
          "internalType": "string",
          "name": "reduccionPesticidas",
          "type": "string"
        },
        {
          "internalType": "string",
          "name": "usoComposta",
          "type": "string"
        },
        {
          "internalType": "string",
          "name": "fechaImpacto",
          "type": "string"
        }
      ],
      "stateMutability": "view",
      "type": "function"
    },
    {
      "inputs": [
        {
          "internalType": "uint256",
          "name": "",
          "type": "uint256"
        }
      ],
      "name": "lotIds",
      "outputs": [
        {
          "internalType": "string",
          "name": "",
          "type": "string"
        }
      ],
      "stateMutability": "view",
      "type": "function"
    },
    {
      "inputs": [
        {
          "internalType": "string",
          "name": "",
          "type": "string"
        }
      ],
      "name": "lots",
      "outputs": [
        {
          "internalType": "string",
          "name": "lotNumber",
          "type": "string"
        },
        {
          "internalType": "string",
          "name": "farmerName",
          "type": "string"
        },
        {
          "internalType": "string",
          "name": "farmLocation",
          "type": "string"
        },
        {
          "internalType": "string",
          "name": "farmSize",
          "type": "string"
        },
        {
          "internalType": "string",
          "name": "quantity",
          "type": "string"
        },
        {
          "internalType": "string",
          "name": "variety",
          "type": "string"
        },
        {
          "internalType": "string",
          "name": "altitud",
          "type": "string"
        },
        {
          "internalType": "string",
          "name": "harvestingMethod",
          "type": "string"
        },
        {
          "internalType": "string",
          "name": "harvestTimestamp",
          "type": "string"
        },
        {
          "internalType": "bool",
          "name": "isActive",
          "type": "bool"
        }
      ],
      "stateMutability": "view",
      "type": "function"
    },
    {
      "inputs": [
        {
          "internalType": "string",
          "name": "",
          "type": "string"
        }
      ],
      "name": "secadoData",
      "outputs": [
        {
          "internalType": "string",
          "name": "metodoSecado",
          "type": "string"
        },
        {
          "internalType": "string",
          "name": "humedadFinal",
          "type": "string"
        },
        {
          "internalType": "string",
          "name": "fechaSecado",
          "type": "string"
        }
      ],
      "stateMutability": "view",
      "type": "function"
    },
    {
      "inputs": [
        {
          "internalType": "string",
          "name": "",
          "type": "string"
        }
      ],
      "name": "trilladoData",
      "outputs": [
        {
          "internalType": "string",
          "name": "fechaTrillado",
          "type": "string"
        },
        {
          "internalType": "string",
          "name": "cantidadTrillada",
          "type": "string"
        }
      ],
      "stateMutability": "view",
      "type": "function"
    }
  ],
  "bytecode": "0x60808060405234601557612336908161001b8239f35b600080fdfe6080604052600436101561001257600080fd5b60003560e01c80632dcb0ea31461164e5780633624e35b146115045780633bd68b5b146113cd578063425c1f6c1461135857806343587a901461130d5780635b18535e1461116b5780636b00c1cb14610f57578063706bc01b14610e125780638e3bea6f1461080d578063bc6cb85d14610779578063be65c4ec146106a3578063e2d669921461052b578063e4a92d20146102b7578063eb3a46ac146101965763ec27f2c5146100c157600080fd5b34610191576020366003190112610191576004356001600160401b0381116101915761010c60206100f961016393369060040161189c565b8160405193828580945193849201611a19565b8101600281520301902061018d61012282611a76565b9161017f61013260018301611a76565b9161017161014e600361014760028501611a76565b9301611a76565b93604051978897608089526080890190611b1a565b908782036020890152611b1a565b908582036040870152611b1a565b908382036060850152611b1a565b0390f35b600080fd5b34610191576060366003190112610191576004356001600160401b038111610191576101c690369060040161189c565b6024356001600160401b038111610191576101e590369060040161189c565b906044356001600160401b0381116101915761028b92600161020e61028693369060040161189c565b61027e61026c60208761024660ff6009604051858181875197019661023481838a611a19565b81016000815203019020015416611e10565b6040519661025388611860565b8752818701948552604051809381928b51928391611a19565b81016004815203019020935184611e4d565b519101611e4d565b611f58565b7f264d74d7c67ae6da06ea3e1ba6febfd064650290b42ce20f48d4912199b451b16020604051428152a2005b34610191576020366003190112610191576004356001600160401b038111610191576102e790369060040161189c565b6040516102f381611845565b6102fb611f8f565b8152610305611fe2565b602082015261031261201e565b604082015261031f612042565b606082015261032c612061565b608082015261033961207a565b9060a00152604051815190806020840192610355818386611a19565b8101600081520360200190206009015460ff1661037190611e10565b604051808351610382818386611a19565b810160008152036020019020906040518084516103a0818386611a19565b8101600181520360200190206040518085516103bd818387611a19565b810160028152036020019020936040518082516103db818388611a19565b810160038152036020019020926040518083516103f9818386611a19565b810160048152036020019020916040518092819251809261041992611a19565b810160058152036020019020916040519461043386611845565b61043c906120b8565b85526104479061216c565b9460208501958652610458906121fe565b926040850193845261046990612247565b906060850191825261047a9061227f565b916080850192835261048b906122a6565b9260a0850193845260405195869560208752516020870160c0905260e087016104b391611b70565b9051868203601f190160408801526104cb9190611c40565b9051858203601f190160608701526104e39190611cea565b9051848203601f190160808601526104fb9190611d3e565b9051838203601f190160a08501526105139190611d7d565b9051828203601f190160c084015261018d9190611da7565b34610191576020366003190112610191576004356001600160401b0381116101915761055b90369060040161189c565b604051818180935160208193019161057292611a19565b81016000815203602001902061058781611a76565b61059360018301611a76565b916105a060028201611a76565b906105ad60038201611a76565b6105b960048301611a76565b6105c560058401611a76565b6105d160068501611a76565b916105de60078601611a76565b936105eb60088701611a76565b956009015460ff1696604051998a996101408b526101408b0161060d91611b1a565b8a810360208c015261061e91611b1a565b89810360408b015261062f91611b1a565b88810360608a015261064091611b1a565b878103608089015261065191611b1a565b86810360a088015261066291611b1a565b85810360c087015261067391611b1a565b84810360e086015261068491611b1a565b83810361010085015261069691611b1a565b9015156101208301520390f35b34610191576020366003190112610191576004356001600160401b038111610191576106db60206100f961074193369060040161189c565b8101600581520301902061018d6106f182611a76565b9161076b61070160018301611a76565b9161075d61071160028301611a76565b61074f61072c600461072560038701611a76565b9501611a76565b95604051998a9960a08b5260a08b0190611b1a565b9089820360208b0152611b1a565b908782036040890152611b1a565b908582036060870152611b1a565b908382036080850152611b1a565b34610191576020366003190112610191576004356001600160401b038111610191576107b160206100f96107f193369060040161189c565b8101600381520301902061018d6107c782611a76565b916107ff6107dc600261014760018501611a76565b91604051958695606087526060870190611b1a565b908582036020870152611b1a565b908382036040850152611b1a565b346101915760003660031901126101915760065461082a81611f78565b90610838604051928361187b565b808252601f1961084782611f78565b0160005b818110610dfb57828461085d82611f78565b9161086b604051938461187b565b808352601f1961087a82611f78565b0160005b818110610ddc57505061089081611f78565b61089d604051918261187b565b818152601f196108ac83611f78565b0160005b818110610dbd5750506108c282611f78565b6108cf604051918261187b565b828152601f196108de84611f78565b0160005b818110610d985750506108f483611f78565b91610902604051938461187b565b838352601f1961091185611f78565b0160005b818110610d7357505061092784611f78565b93610935604051958661187b565b808552601f1961094482611f78565b0160005b818110610d4e57505060005b818110610bbf57505060405195869560c0870160c08852815180915260e0880190602060e08260051b8b01019301916000905b828210610b8757505050508681036020880152815180825260208201916020808360051b8301019401926000915b838310610b4e5750505050508581036040870152815180825260208201916020808360051b8301019401926000915b838310610b175750505050508481036060860152815180825260208201916020808360051b8301019401926000915b838310610ae25750505050508381036080850152815180825260208201916020808360051b8301019401926000915b838310610aaf57505050505082810360a0840152815180825260208201916020808360051b8301019401926000915b838310610a7e5786860387f35b919395509193602080610a9d600193601f198682030187528951611da7565b97019301930190928695949293610a71565b91939596509193602080610acf600193601f198682030187528951611d7d565b9701930193019092879695949293610a42565b9193959697509193602080610b03600193601f198682030187528951611d3e565b970193019301909288979695949293610a13565b919395969798509193602080610b39600193601f198682030187528951611cea565b970193019301909289989796959492936109e4565b91939596979899509193602080610b71600193601f198682030187528951611c40565b97019301930190928a99989796959492936109b5565b91936020610baa81926001949698999a9b9c9d60df199082030186528851611b70565b9601920192018a999897969594939192610987565b80610d2b610d1c60208a610be4610bde6001979e999a9b9c9d9e611b3f565b50611a76565b610c228660405193610c12845195878181880198610c0381838c611a19565b810160008152030190206120b8565b610c1c83836120a4565b526120a4565b50610c4660405184818451610c38818389611a19565b81018b81520301902061216c565b610c50878b6120a4565b52610c5b868a6120a4565b50610c8060405184818451610c71818389611a19565b810160028152030190206121fe565b610c8a878c6120a4565b52610c95868b6120a4565b50610cba60405184818451610cab818389611a19565b81016003815203019020612247565b610cc4878d6120a4565b52610ccf868c6120a4565b508b610cff87610cf960405187818751610cea81838c611a19565b8101600481520301902061227f565b926120a4565b52610d0a868d6120a4565b50604051938492839251928391611a19565b810160058152030190206122a6565b610d35828a6120a4565b52610d4081896120a4565b500196959493929196610954565b602090610d609994959697989961207a565b82828b0101520197969594939297610948565b602090610d8598939495969798612061565b8282890101520196959493929196610915565b602090610daa97959697949394612042565b82828701015201959493959291926108e2565b602090610dcc9694959661201e565b82828601015201949392946108b0565b602090610deb95939495611fe2565b828286010152019392919361087e565b602090610e06611f8f565b8282870101520161084b565b34610191576020366003190112610191576004356001600160401b03811161019157610e4290369060040161189c565b6040518181809351602081930191610e5992611a19565b810160018152036020019020610e6e81611a76565b610e7a60018301611a76565b91610e8760028201611a76565b90610e9460038201611a76565b610ea060048301611a76565b610eac60058401611a76565b91610eb960068501611a76565b93600701610ec690611a76565b9460405197889761010089526101008901610ee091611b1a565b88810360208a0152610ef191611b1a565b8781036040890152610f0291611b1a565b8681036060880152610f1391611b1a565b8581036080870152610f2491611b1a565b84810360a0860152610f3591611b1a565b83810360c0850152610f4691611b1a565b82810360e084015261018d91611b1a565b3461019157610f65366118f2565b604051895160208b01999892979396949594939291908190610f8881838e611a19565b81016000815203602001902054610f9e90611a3c565b6111355760405197610faf89611829565b8a89526020890190815260408901918252606089019283526080890193845260a0890194855260c0890195865260e08901968752610100890197885261012089019960018b528b6040518092819251809261100992611a19565b8101600081520360200190209851611021908a611e4d565b5161102f9060018a01611e4d565b5161103d9060028901611e4d565b5161104b9060038801611e4d565b516110599060048701611e4d565b516110679060058601611e4d565b516110759060068501611e4d565b516110839060078401611e4d565b516110919060088301611e4d565b6009019051151560ff198254169060ff161790556006546801000000000000000081101561111f578060016110c99201600655611b3f565b91909161110957610286816110dd93611e4d565b7f740b22bce40d316a9c849944a701c8b3fd23b03709bdd850c5dd19f1a8eeb8626020604051428152a2005b634e487b7160e01b600052600060045260246000fd5b634e487b7160e01b600052604160045260246000fd5b60405162461bcd60e51b815260206004820152600e60248201526d4c6f74652079612065786973746560901b6044820152606490fd5b346101915760c0366003190112610191576004356001600160401b0381116101915761119b90369060040161189c565b6024356001600160401b038111610191576111ba90369060040161189c565b906044356001600160401b038111610191576111da90369060040161189c565b6064356001600160401b038111610191576111f990369060040161189c565b926084356001600160401b0381116101915761121990369060040161189c565b9160a435906001600160401b0382116101915761027e610286946112d76112e1986112cd61124c6004973690890161189c565b956112c36112b160208d6040519061127560ff600983519486818187019761023481838b611a19565b60806040519e8f906112868261180e565b815284810197885260408101998a52606081019b8c52019b8c52604051938492839251928391611a19565b8101600581520301902099518a611e4d565b5160018901611e4d565b5160028701611e4d565b5160038501611e4d565b7fa3fc4ea807a2ced512bc603cedea5de267cc6229a2a1ecf01cb9ddff068e9be06020604051428152a2005b34610191576020366003190112610191576004356006548110156101915761133490611b3f565b6111095761134461018d91611a76565b604051918291602083526020830190611b1a565b34610191576020366003190112610191576004356001600160401b0381116101915761139060206100f96113bf93369060040161189c565b8101600481520301902061018d6113ab600161014784611a76565b604051938493604085526040850190611b1a565b908382036020850152611b1a565b34610191576080366003190112610191576004356001600160401b038111610191576113fd90369060040161189c565b6024356001600160401b0381116101915761141c90369060040161189c565b906044356001600160401b0381116101915761143c90369060040161189c565b606435926001600160401b0384116101915760026102869261027e6114686114d897369060040161189c565b916114ce6114bc60208961148f60ff6009604051858181875197019661023481838a611a19565b6040519861149c8a6117f3565b895281890194855260408901968752604051809381928d51928391611a19565b81016003815203019020955186611e4d565b5160018501611e4d565b7f4621242f55258185ed743a265277cf88035a69b23efd73e632bebbb7f44e2e7c6020604051428152a2005b3461019157611512366118f2565b956040959195949294518951908060208c0192611530818386611a19565b8101600081520360200190206009015460ff1661154c90611e10565b604051986115598a6117d7565b89526020890191825260408901928352606089019384526080890194855260a0890195865260c0890196875260e089019788526040518080928c51809261159f92611a19565b81016001815203602001902097516115b79089611e4d565b516115c59060018901611e4d565b516115d39060028801611e4d565b516115e19060038701611e4d565b516115ef9060048601611e4d565b516115fd9060058501611e4d565b5161160b9060068401611e4d565b5161161891600701611e4d565b61162190611f58565b60405142815260207fe8f3871572477cb0f3520a039beedc0905b2c60d29dd3b12267b832205495db391a2005b346101915760a0366003190112610191576004356001600160401b0381116101915761167e90369060040161189c565b6024356001600160401b0381116101915761169d90369060040161189c565b906044356001600160401b038111610191576116bd90369060040161189c565b916064356001600160401b038111610191576116dd90369060040161189c565b90608435916001600160401b038311610191576117909461027e60039261178661170e61028697369060040161189c565b9361177c61176a60208b61173560ff6009604051858181875197019661023481838a611a19565b6040519a6117428c6117bc565b8b52818b0194855260408b0196875260608b019889528c604051938492839251928391611a19565b81016002815203019020975188611e4d565b5160018701611e4d565b5160028501611e4d565b7f7967622ef720c78f24912cb33664b9afbf703e1ac459ccd37d3cbc437d26a7456020604051428152a2005b608081019081106001600160401b0382111761111f57604052565b61010081019081106001600160401b0382111761111f57604052565b606081019081106001600160401b0382111761111f57604052565b60a081019081106001600160401b0382111761111f57604052565b61014081019081106001600160401b0382111761111f57604052565b60c081019081106001600160401b0382111761111f57604052565b604081019081106001600160401b0382111761111f57604052565b90601f801991011681019081106001600160401b0382111761111f57604052565b81601f82011215610191578035906001600160401b03821161111f57604051926118d0601f8401601f19166020018561187b565b8284526020838301011161019157816000926020809301838601378301015290565b610120600319820112610191576004356001600160401b038111610191578161191d9160040161189c565b916024356001600160401b038111610191578261193c9160040161189c565b916044356001600160401b038111610191578161195b9160040161189c565b916064356001600160401b038111610191578261197a9160040161189c565b916084356001600160401b03811161019157816119999160040161189c565b9160a4356001600160401b03811161019157826119b89160040161189c565b9160c4356001600160401b03811161019157816119d79160040161189c565b9160e4356001600160401b03811161019157826119f69160040161189c565b9161010435906001600160401b03821161019157611a169160040161189c565b90565b60005b838110611a2c5750506000910152565b8181015183820152602001611a1c565b90600182811c92168015611a6c575b6020831014611a5657565b634e487b7160e01b600052602260045260246000fd5b91607f1691611a4b565b9060405191826000825492611a8a84611a3c565b8084529360018116908115611af85750600114611ab1575b50611aaf9250038361187b565b565b90506000929192526020600020906000915b818310611adc575050906020611aaf9282010138611aa2565b6020919350806001915483858901015201910190918492611ac3565b905060209250611aaf94915060ff191682840152151560051b82010138611aa2565b90602091611b3381518092818552858086019101611a19565b601f01601f1916010190565b600654811015611b5a57600660005260206000200190600090565b634e487b7160e01b600052603260045260246000fd5b9061012080611c35611c21611c0f611bfd611beb611bd9611bc7611bb5611ba28c516101408d526101408d0190611b1a565b60208d01518c6020818403910152611b1a565b60408c01518b820360408d0152611b1a565b60608b01518a820360608c0152611b1a565b60808a015189820360808b0152611b1a565b60a089015188820360a08a0152611b1a565b60c088015187820360c0890152611b1a565b60e087015186820360e0880152611b1a565b610100860151858203610100870152611b1a565b930151151591015290565b611a169160e0611cd9611cc7611cb5611ca3611c91611c7f611c6d89516101008a526101008a0190611b1a565b60208a015189820360208b0152611b1a565b604089015188820360408a0152611b1a565b60608801518782036060890152611b1a565b60808701518682036080880152611b1a565b60a086015185820360a0870152611b1a565b60c085015184820360c0860152611b1a565b9201519060e0818403910152611b1a565b611a16916060611d2d611d1b611d098551608086526080860190611b1a565b60208601518582036020870152611b1a565b60408501518482036040860152611b1a565b920151906060818403910152611b1a565b611a16916040611d6c611d5a8451606085526060850190611b1a565b60208501518482036020860152611b1a565b920151906040818403910152611b1a565b611a16916020611d968351604084526040840190611b1a565b920151906020818403910152611b1a565b611a16916080611dff611ded611ddb611dc9865160a0875260a0870190611b1a565b60208701518682036020880152611b1a565b60408601518582036040870152611b1a565b60608501518482036060860152611b1a565b920151906080818403910152611b1a565b15611e1757565b60405162461bcd60e51b815260206004820152600e60248201526d4c6f7465206e6f2065786973746560901b6044820152606490fd5b91909182516001600160401b03811161111f57611e6a8254611a3c565b601f8111611f10575b506020601f8211600114611eae5781929394600092611ea3575b50508160011b916000199060031b1c1916179055565b015190503880611e8d565b601f1982169083600052806000209160005b818110611ef857509583600195969710611edf575b505050811b019055565b015160001960f88460031b161c19169055388080611ed5565b9192602060018192868b015181550194019201611ec0565b826000526020600020601f830160051c81019160208410611f4e575b601f0160051c01905b818110611f425750611e73565b60008155600101611f35565b9091508190611f2c565b611f7090602060405192828480945193849201611a19565b810103902090565b6001600160401b03811161111f5760051b60200190565b60405190611f9c82611829565b60006101208360608152606060208201526060604082015260608082015260606080820152606060a0820152606060c0820152606060e082015260606101008201520152565b60405190611fef826117d7565b606060e08382815282602082015282604082015282808201528260808201528260a08201528260c08201520152565b6040519061202b826117bc565b606080838181528160208201528160408201520152565b6040519061204f826117f3565b60606040838281528260208201520152565b6040519061206e82611860565b60606020838281520152565b604051906120878261180e565b606060808382815282602082015282604082015282808201520152565b8051821015611b5a5760209160051b010190565b906040516120c581611829565b61012060ff600983956120d781611a76565b85526120e560018201611a76565b60208601526120f660028201611a76565b604086015261210760038201611a76565b606086015261211860048201611a76565b608086015261212960058201611a76565b60a086015261213a60068201611a76565b60c086015261214b60078201611a76565b60e086015261215c60088201611a76565b6101008601520154161515910152565b90604051612179816117d7565b60e06121f96007839561218b81611a76565b855261219960018201611a76565b60208601526121aa60028201611a76565b60408601526121bb60038201611a76565b60608601526121cc60048201611a76565b60808601526121dd60058201611a76565b60a08601526121ee60068201611a76565b60c086015201611a76565b910152565b9060405161220b816117bc565b60606121f96003839561221d81611a76565b855261222b60018201611a76565b602086015261223c60028201611a76565b604086015201611a76565b90604051612254816117f3565b60406121f96002839561226681611a76565b855261227460018201611a76565b602086015201611a76565b9060405161228c81611860565b60206121f96001839561229e81611a76565b855201611a76565b906040516122b38161180e565b60806121f9600483956122c581611a76565b85526122d360018201611a76565b60208601526122e460028201611a76565b60408601526122f560038201611a76565b606086015201611a7656fea2646970667358221220d128fdbe13df5e3051db4110df1373a6132f096bb43ef800df2301009789445564736f6c634300081c0033",
  "linkReferences": {},
  "deployedLinkReferences": {}
}