{
  "_format": "hh-sol-artifact-1",
  "contractName": "CoffeeSupplyChain",
  "sourceName": "contracts/CoffeeSupplyChain.sol",
  "abi": [
    {
      "anonymous": false,
      "inputs": [
        {
          "indexed": true,
          "internalType": "string",
          "name": "lotNumber",
          "type": "string"
        },
        {
          "indexed": false,
          "internalType": "uint256",
          "name": "timestamp",
          "type": "uint256"
        }
      ],
      "name": "ClasificacionGranoAdded",
      "type": "event"
    },
    {
      "anonymous": false,
      "inputs": [
        {
          "indexed": true,
          "internalType": "string",
          "name": "lotNumber",
          "type": "string"
        },
        {
          "indexed": false,
          "internalType": "uint256",
          "name": "timestamp",
          "type": "uint256"
        }
      ],
      "name": "CosechaAdded",
      "type": "event"
    },
    {
      "anonymous": false,
      "inputs": [
        {
          "indexed": true,
          "internalType": "string",
          "name": "lotNumber",
          "type": "string"
        },
        {
          "indexed": false,
          "internalType": "uint256",
          "name": "timestamp",
          "type": "uint256"
        }
      ],
      "name": "DespulpadoAdded",
      "type": "event"
    },
    {
      "anonymous": false,
      "inputs": [
        {
          "indexed": true,
          "internalType": "string",
          "name": "lotNumber",
          "type": "string"
        },
        {
          "indexed": false,
          "internalType": "uint256",
          "name": "timestamp",
          "type": "uint256"
        }
      ],
      "name": "EmpaqueAdded",
      "type": "event"
    },
    {
      "anonymous": false,
      "inputs": [
        {
          "indexed": true,
          "internalType": "string",
          "name": "lotNumber",
          "type": "string"
        },
        {
          "indexed": false,
          "internalType": "uint256",
          "name": "timestamp",
          "type": "uint256"
        }
      ],
      "name": "FermentacionAdded",
      "type": "event"
    },
    {
      "anonymous": false,
      "inputs": [
        {
          "indexed": true,
          "internalType": "string",
          "name": "lotNumber",
          "type": "string"
        },
        {
          "indexed": false,
          "internalType": "uint256",
          "name": "timestamp",
          "type": "uint256"
        }
      ],
      "name": "ImpactoAdded",
      "type": "event"
    },
    {
      "anonymous": false,
      "inputs": [
        {
          "indexed": true,
          "internalType": "string",
          "name": "lotNumber",
          "type": "string"
        },
        {
          "indexed": false,
          "internalType": "uint256",
          "name": "timestamp",
          "type": "uint256"
        }
      ],
      "name": "LavadoAdded",
      "type": "event"
    },
    {
      "anonymous": false,
      "inputs": [
        {
          "indexed": true,
          "internalType": "string",
          "name": "lotNumber",
          "type": "string"
        },
        {
          "indexed": false,
          "internalType": "uint256",
          "name": "timestamp",
          "type": "uint256"
        }
      ],
      "name": "LotCreated",
      "type": "event"
    },
    {
      "anonymous": false,
      "inputs": [
        {
          "indexed": true,
          "internalType": "string",
          "name": "lotNumber",
          "type": "string"
        },
        {
          "indexed": false,
          "internalType": "uint256",
          "name": "timestamp",
          "type": "uint256"
        }
      ],
      "name": "SecadoAdded",
      "type": "event"
    },
    {
      "anonymous": false,
      "inputs": [
        {
          "indexed": true,
          "internalType": "string",
          "name": "lotNumber",
          "type": "string"
        },
        {
          "indexed": false,
          "internalType": "uint256",
          "name": "timestamp",
          "type": "uint256"
        }
      ],
      "name": "TrilladoAdded",
      "type": "event"
    },
    {
      "inputs": [
        {
          "internalType": "string",
          "name": "lotNumber",
          "type": "string"
        },
        {
          "internalType": "string",
          "name": "metodoClasificacion",
          "type": "string"
        },
        {
          "internalType": "string",
          "name": "criteriosSeleccion",
          "type": "string"
        },
        {
          "internalType": "string",
          "name": "porcentajeImpurezas",
          "type": "string"
        },
        {
          "internalType": "string",
          "name": "fechaClasificacion",
          "type": "string"
        }
      ],
      "name": "addClasificacionGranoData",
      "outputs": [],
      "stateMutability": "nonpayable",
      "type": "function"
    },
    {
      "inputs": [
        {
          "internalType": "string",
          "name": "lotNumber",
          "type": "string"
        },
        {
          "internalType": "string",
          "name": "nombreCaficultor",
          "type": "string"
        },
        {
          "internalType": "string",
          "name": "ubicacion",
          "type": "string"
        },
        {
          "internalType": "string",
          "name": "tamanoFinca",
          "type": "string"
        },
        {
          "internalType": "string",
          "name": "variedadesCultivadas",
          "type": "string"
        },
        {
          "internalType": "string",
          "name": "altitudCultivo",
          "type": "string"
        },
        {
          "internalType": "string",
          "name": "fechaCosecha",
          "type": "string"
        },
        {
          "internalType": "string",
          "name": "metodoCosecha",
          "type": "string"
        },
        {
          "internalType": "string",
          "name": "cantidadCosechada",
          "type": "string"
        }
      ],
      "name": "addCosechaData",
      "outputs": [],
      "stateMutability": "nonpayable",
      "type": "function"
    },
    {
      "inputs": [
        {
          "internalType": "string",
          "name": "lotNumber",
          "type": "string"
        },
        {
          "internalType": "string",
          "name": "metodoDespulpado",
          "type": "string"
        },
        {
          "internalType": "string",
          "name": "fechaProceso",
          "type": "string"
        },
        {
          "internalType": "string",
          "name": "cantidadPulpaRetirada",
          "type": "string"
        },
        {
          "internalType": "string",
          "name": "destinoPulpa",
          "type": "string"
        }
      ],
      "name": "addDespulpadoData",
      "outputs": [],
      "stateMutability": "nonpayable",
      "type": "function"
    },
    {
      "inputs": [
        {
          "internalType": "string",
          "name": "lotNumber",
          "type": "string"
        },
        {
          "internalType": "string",
          "name": "tipoEmpaque",
          "type": "string"
        },
        {
          "internalType": "string",
          "name": "pesoLote",
          "type": "string"
        },
        {
          "internalType": "string",
          "name": "fechaEmpaque",
          "type": "string"
        }
      ],
      "name": "addEmpaqueData",
      "outputs": [],
      "stateMutability": "nonpayable",
      "type": "function"
    },
    {
      "inputs": [
        {
          "internalType": "string",
          "name": "lotNumber",
          "type": "string"
        },
        {
          "internalType": "string",
          "name": "duracionFermentacion",
          "type": "string"
        },
        {
          "internalType": "string",
          "name": "temperaturaPromedio",
          "type": "string"
        },
        {
          "internalType": "string",
          "name": "metodoFermentacion",
          "type": "string"
        },
        {
          "internalType": "string",
          "name": "fechaFermentacion",
          "type": "string"
        }
      ],
      "name": "addFermentacionData",
      "outputs": [],
      "stateMutability": "nonpayable",
      "type": "function"
    },
    {
      "inputs": [
        {
          "internalType": "string",
          "name": "lotNumber",
          "type": "string"
        },
        {
          "internalType": "string",
          "name": "ayudaFamilias",
          "type": "string"
        },
        {
          "internalType": "string",
          "name": "pagoSobrePromedio",
          "type": "string"
        },
        {
          "internalType": "string",
          "name": "reduccionPesticidas",
          "type": "string"
        },
        {
          "internalType": "string",
          "name": "usoComposta",
          "type": "string"
        },
        {
          "internalType": "string",
          "name": "fechaImpacto",
          "type": "string"
        }
      ],
      "name": "addImpactoData",
      "outputs": [],
      "stateMutability": "nonpayable",
      "type": "function"
    },
    {
      "inputs": [
        {
          "internalType": "string",
          "name": "lotNumber",
          "type": "string"
        },
        {
          "internalType": "string",
          "name": "volumenAguaUtilizada",
          "type": "string"
        },
        {
          "internalType": "string",
          "name": "metodoReciclajeAgua",
          "type": "string"
        },
        {
          "internalType": "string",
          "name": "cantidadAguaReutilizada",
          "type": "string"
        },
        {
          "internalType": "string",
          "name": "fechaLavado",
          "type": "string"
        }
      ],
      "name": "addLavadoData",
      "outputs": [],
      "stateMutability": "nonpayable",
      "type": "function"
    },
    {
      "inputs": [
        {
          "internalType": "string",
          "name": "lotNumber",
          "type": "string"
        },
        {
          "internalType": "string",
          "name": "metodoSecado",
          "type": "string"
        },
        {
          "internalType": "string",
          "name": "humedadFinal",
          "type": "string"
        },
        {
          "internalType": "string",
          "name": "fechaSecado",
          "type": "string"
        }
      ],
      "name": "addSecadoData",
      "outputs": [],
      "stateMutability": "nonpayable",
      "type": "function"
    },
    {
      "inputs": [
        {
          "internalType": "string",
          "name": "lotNumber",
          "type": "string"
        },
        {
          "internalType": "string",
          "name": "fechaTrillado",
          "type": "string"
        },
        {
          "internalType": "string",
          "name": "cantidadTrillada",
          "type": "string"
        }
      ],
      "name": "addTrilladoData",
      "outputs": [],
      "stateMutability": "nonpayable",
      "type": "function"
    },
    {
      "inputs": [
        {
          "internalType": "string",
          "name": "",
          "type": "string"
        }
      ],
      "name": "clasificacionGranoData",
      "outputs": [
        {
          "internalType": "string",
          "name": "metodoClasificacion",
          "type": "string"
        },
        {
          "internalType": "string",
          "name": "criteriosSeleccion",
          "type": "string"
        },
        {
          "internalType": "string",
          "name": "porcentajeImpurezas",
          "type": "string"
        },
        {
          "internalType": "string",
          "name": "fechaClasificacion",
          "type": "string"
        }
      ],
      "stateMutability": "view",
      "type": "function"
    },
    {
      "inputs": [
        {
          "internalType": "string",
          "name": "",
          "type": "string"
        }
      ],
      "name": "cosechaData",
      "outputs": [
        {
          "internalType": "string",
          "name": "nombreCaficultor",
          "type": "string"
        },
        {
          "internalType": "string",
          "name": "ubicacion",
          "type": "string"
        },
        {
          "internalType": "string",
          "name": "tamanoFinca",
          "type": "string"
        },
        {
          "internalType": "string",
          "name": "variedadesCultivadas",
          "type": "string"
        },
        {
          "internalType": "string",
          "name": "altitudCultivo",
          "type": "string"
        },
        {
          "internalType": "string",
          "name": "fechaCosecha",
          "type": "string"
        },
        {
          "internalType": "string",
          "name": "metodoCosecha",
          "type": "string"
        },
        {
          "internalType": "string",
          "name": "cantidadCosechada",
          "type": "string"
        }
      ],
      "stateMutability": "view",
      "type": "function"
    },
    {
      "inputs": [
        {
          "internalType": "string",
          "name": "lotNumber",
          "type": "string"
        },
        {
          "internalType": "string",
          "name": "producto",
          "type": "string"
        },
        {
          "internalType": "string",
          "name": "farmerName",
          "type": "string"
        },
        {
          "internalType": "string",
          "name": "farmLocation",
          "type": "string"
        },
        {
          "internalType": "string",
          "name": "farmSize",
          "type": "string"
        },
        {
          "internalType": "string",
          "name": "quantity",
          "type": "string"
        },
        {
          "internalType": "string",
          "name": "variety",
          "type": "string"
        },
        {
          "internalType": "string",
          "name": "altitud",
          "type": "string"
        },
        {
          "internalType": "string",
          "name": "harvestingMethod",
          "type": "string"
        },
        {
          "internalType": "string",
          "name": "harvestTimestamp",
          "type": "string"
        }
      ],
      "name": "createLot",
      "outputs": [],
      "stateMutability": "nonpayable",
      "type": "function"
    },
    {
      "inputs": [
        {
          "internalType": "string",
          "name": "",
          "type": "string"
        }
      ],
      "name": "despulpadoData",
      "outputs": [
        {
          "internalType": "string",
          "name": "metodoDespulpado",
          "type": "string"
        },
        {
          "internalType": "string",
          "name": "fechaProceso",
          "type": "string"
        },
        {
          "internalType": "string",
          "name": "cantidadPulpaRetirada",
          "type": "string"
        },
        {
          "internalType": "string",
          "name": "destinoPulpa",
          "type": "string"
        }
      ],
      "stateMutability": "view",
      "type": "function"
    },
    {
      "inputs": [
        {
          "internalType": "string",
          "name": "",
          "type": "string"
        }
      ],
      "name": "empaqueData",
      "outputs": [
        {
          "internalType": "string",
          "name": "tipoEmpaque",
          "type": "string"
        },
        {
          "internalType": "string",
          "name": "pesoLote",
          "type": "string"
        },
        {
          "internalType": "string",
          "name": "fechaEmpaque",
          "type": "string"
        }
      ],
      "stateMutability": "view",
      "type": "function"
    },
    {
      "inputs": [
        {
          "internalType": "string",
          "name": "",
          "type": "string"
        }
      ],
      "name": "fermentacionData",
      "outputs": [
        {
          "internalType": "string",
          "name": "duracionFermentacion",
          "type": "string"
        },
        {
          "internalType": "string",
          "name": "temperaturaPromedio",
          "type": "string"
        },
        {
          "internalType": "string",
          "name": "metodoFermentacion",
          "type": "string"
        },
        {
          "internalType": "string",
          "name": "fechaFermentacion",
          "type": "string"
        }
      ],
      "stateMutability": "view",
      "type": "function"
    },
    {
      "inputs": [],
      "name": "getAllLots",
      "outputs": [
        {
          "components": [
            {
              "internalType": "string",
              "name": "lotNumber",
              "type": "string"
            },
            {
              "internalType": "string",
              "name": "producto",
              "type": "string"
            },
            {
              "internalType": "string",
              "name": "farmerName",
              "type": "string"
            },
            {
              "internalType": "string",
              "name": "farmLocation",
              "type": "string"
            },
            {
              "internalType": "string",
              "name": "farmSize",
              "type": "string"
            },
            {
              "internalType": "string",
              "name": "quantity",
              "type": "string"
            },
            {
              "internalType": "string",
              "name": "variety",
              "type": "string"
            },
            {
              "internalType": "string",
              "name": "altitud",
              "type": "string"
            },
            {
              "internalType": "string",
              "name": "harvestingMethod",
              "type": "string"
            },
            {
              "internalType": "string",
              "name": "harvestTimestamp",
              "type": "string"
            },
            {
              "internalType": "bool",
              "name": "isActive",
              "type": "bool"
            }
          ],
          "internalType": "struct CoffeeSupplyChain.Lot[]",
          "name": "",
          "type": "tuple[]"
        },
        {
          "components": [
            {
              "internalType": "string",
              "name": "nombreCaficultor",
              "type": "string"
            },
            {
              "internalType": "string",
              "name": "ubicacion",
              "type": "string"
            },
            {
              "internalType": "string",
              "name": "tamanoFinca",
              "type": "string"
            },
            {
              "internalType": "string",
              "name": "variedadesCultivadas",
              "type": "string"
            },
            {
              "internalType": "string",
              "name": "altitudCultivo",
              "type": "string"
            },
            {
              "internalType": "string",
              "name": "fechaCosecha",
              "type": "string"
            },
            {
              "internalType": "string",
              "name": "metodoCosecha",
              "type": "string"
            },
            {
              "internalType": "string",
              "name": "cantidadCosechada",
              "type": "string"
            }
          ],
          "internalType": "struct CoffeeSupplyChain.Cosecha[]",
          "name": "",
          "type": "tuple[]"
        },
        {
          "components": [
            {
              "internalType": "string",
              "name": "metodoDespulpado",
              "type": "string"
            },
            {
              "internalType": "string",
              "name": "fechaProceso",
              "type": "string"
            },
            {
              "internalType": "string",
              "name": "cantidadPulpaRetirada",
              "type": "string"
            },
            {
              "internalType": "string",
              "name": "destinoPulpa",
              "type": "string"
            }
          ],
          "internalType": "struct CoffeeSupplyChain.Despulpado[]",
          "name": "",
          "type": "tuple[]"
        },
        {
          "components": [
            {
              "internalType": "string",
              "name": "metodoSecado",
              "type": "string"
            },
            {
              "internalType": "string",
              "name": "humedadFinal",
              "type": "string"
            },
            {
              "internalType": "string",
              "name": "fechaSecado",
              "type": "string"
            }
          ],
          "internalType": "struct CoffeeSupplyChain.Secado[]",
          "name": "",
          "type": "tuple[]"
        },
        {
          "components": [
            {
              "internalType": "string",
              "name": "fechaTrillado",
              "type": "string"
            },
            {
              "internalType": "string",
              "name": "cantidadTrillada",
              "type": "string"
            }
          ],
          "internalType": "struct CoffeeSupplyChain.Trillado[]",
          "name": "",
          "type": "tuple[]"
        },
        {
          "components": [
            {
              "internalType": "string",
              "name": "ayudaFamilias",
              "type": "string"
            },
            {
              "internalType": "string",
              "name": "pagoSobrePromedio",
              "type": "string"
            },
            {
              "internalType": "string",
              "name": "reduccionPesticidas",
              "type": "string"
            },
            {
              "internalType": "string",
              "name": "usoComposta",
              "type": "string"
            },
            {
              "internalType": "string",
              "name": "fechaImpacto",
              "type": "string"
            }
          ],
          "internalType": "struct CoffeeSupplyChain.Impacto[]",
          "name": "",
          "type": "tuple[]"
        },
        {
          "components": [
            {
              "internalType": "string",
              "name": "duracionFermentacion",
              "type": "string"
            },
            {
              "internalType": "string",
              "name": "temperaturaPromedio",
              "type": "string"
            },
            {
              "internalType": "string",
              "name": "metodoFermentacion",
              "type": "string"
            },
            {
              "internalType": "string",
              "name": "fechaFermentacion",
              "type": "string"
            }
          ],
          "internalType": "struct CoffeeSupplyChain.Fermentacion[]",
          "name": "",
          "type": "tuple[]"
        },
        {
          "components": [
            {
              "internalType": "string",
              "name": "volumenAguaUtilizada",
              "type": "string"
            },
            {
              "internalType": "string",
              "name": "metodoReciclajeAgua",
              "type": "string"
            },
            {
              "internalType": "string",
              "name": "cantidadAguaReutilizada",
              "type": "string"
            },
            {
              "internalType": "string",
              "name": "fechaLavado",
              "type": "string"
            }
          ],
          "internalType": "struct CoffeeSupplyChain.Lavado[]",
          "name": "",
          "type": "tuple[]"
        },
        {
          "components": [
            {
              "internalType": "string",
              "name": "metodoClasificacion",
              "type": "string"
            },
            {
              "internalType": "string",
              "name": "criteriosSeleccion",
              "type": "string"
            },
            {
              "internalType": "string",
              "name": "porcentajeImpurezas",
              "type": "string"
            },
            {
              "internalType": "string",
              "name": "fechaClasificacion",
              "type": "string"
            }
          ],
          "internalType": "struct CoffeeSupplyChain.ClasificacionGrano[]",
          "name": "",
          "type": "tuple[]"
        },
        {
          "components": [
            {
              "internalType": "string",
              "name": "tipoEmpaque",
              "type": "string"
            },
            {
              "internalType": "string",
              "name": "pesoLote",
              "type": "string"
            },
            {
              "internalType": "string",
              "name": "fechaEmpaque",
              "type": "string"
            }
          ],
          "internalType": "struct CoffeeSupplyChain.Empaque[]",
          "name": "",
          "type": "tuple[]"
        }
      ],
      "stateMutability": "view",
      "type": "function"
    },
    {
      "inputs": [
        {
          "internalType": "string",
          "name": "lotNumber",
          "type": "string"
        }
      ],
      "name": "getLotWithAllData",
      "outputs": [
        {
          "components": [
            {
              "components": [
                {
                  "internalType": "string",
                  "name": "lotNumber",
                  "type": "string"
                },
                {
                  "internalType": "string",
                  "name": "producto",
                  "type": "string"
                },
                {
                  "internalType": "string",
                  "name": "farmerName",
                  "type": "string"
                },
                {
                  "internalType": "string",
                  "name": "farmLocation",
                  "type": "string"
                },
                {
                  "internalType": "string",
                  "name": "farmSize",
                  "type": "string"
                },
                {
                  "internalType": "string",
                  "name": "quantity",
                  "type": "string"
                },
                {
                  "internalType": "string",
                  "name": "variety",
                  "type": "string"
                },
                {
                  "internalType": "string",
                  "name": "altitud",
                  "type": "string"
                },
                {
                  "internalType": "string",
                  "name": "harvestingMethod",
                  "type": "string"
                },
                {
                  "internalType": "string",
                  "name": "harvestTimestamp",
                  "type": "string"
                },
                {
                  "internalType": "bool",
                  "name": "isActive",
                  "type": "bool"
                }
              ],
              "internalType": "struct CoffeeSupplyChain.Lot",
              "name": "lot",
              "type": "tuple"
            },
            {
              "components": [
                {
                  "internalType": "string",
                  "name": "nombreCaficultor",
                  "type": "string"
                },
                {
                  "internalType": "string",
                  "name": "ubicacion",
                  "type": "string"
                },
                {
                  "internalType": "string",
                  "name": "tamanoFinca",
                  "type": "string"
                },
                {
                  "internalType": "string",
                  "name": "variedadesCultivadas",
                  "type": "string"
                },
                {
                  "internalType": "string",
                  "name": "altitudCultivo",
                  "type": "string"
                },
                {
                  "internalType": "string",
                  "name": "fechaCosecha",
                  "type": "string"
                },
                {
                  "internalType": "string",
                  "name": "metodoCosecha",
                  "type": "string"
                },
                {
                  "internalType": "string",
                  "name": "cantidadCosechada",
                  "type": "string"
                }
              ],
              "internalType": "struct CoffeeSupplyChain.Cosecha",
              "name": "cosecha",
              "type": "tuple"
            },
            {
              "components": [
                {
                  "internalType": "string",
                  "name": "metodoDespulpado",
                  "type": "string"
                },
                {
                  "internalType": "string",
                  "name": "fechaProceso",
                  "type": "string"
                },
                {
                  "internalType": "string",
                  "name": "cantidadPulpaRetirada",
                  "type": "string"
                },
                {
                  "internalType": "string",
                  "name": "destinoPulpa",
                  "type": "string"
                }
              ],
              "internalType": "struct CoffeeSupplyChain.Despulpado",
              "name": "despulpado",
              "type": "tuple"
            },
            {
              "components": [
                {
                  "internalType": "string",
                  "name": "metodoSecado",
                  "type": "string"
                },
                {
                  "internalType": "string",
                  "name": "humedadFinal",
                  "type": "string"
                },
                {
                  "internalType": "string",
                  "name": "fechaSecado",
                  "type": "string"
                }
              ],
              "internalType": "struct CoffeeSupplyChain.Secado",
              "name": "secado",
              "type": "tuple"
            },
            {
              "components": [
                {
                  "internalType": "string",
                  "name": "fechaTrillado",
                  "type": "string"
                },
                {
                  "internalType": "string",
                  "name": "cantidadTrillada",
                  "type": "string"
                }
              ],
              "internalType": "struct CoffeeSupplyChain.Trillado",
              "name": "trillado",
              "type": "tuple"
            },
            {
              "components": [
                {
                  "internalType": "string",
                  "name": "ayudaFamilias",
                  "type": "string"
                },
                {
                  "internalType": "string",
                  "name": "pagoSobrePromedio",
                  "type": "string"
                },
                {
                  "internalType": "string",
                  "name": "reduccionPesticidas",
                  "type": "string"
                },
                {
                  "internalType": "string",
                  "name": "usoComposta",
                  "type": "string"
                },
                {
                  "internalType": "string",
                  "name": "fechaImpacto",
                  "type": "string"
                }
              ],
              "internalType": "struct CoffeeSupplyChain.Impacto",
              "name": "impacto",
              "type": "tuple"
            },
            {
              "components": [
                {
                  "internalType": "string",
                  "name": "duracionFermentacion",
                  "type": "string"
                },
                {
                  "internalType": "string",
                  "name": "temperaturaPromedio",
                  "type": "string"
                },
                {
                  "internalType": "string",
                  "name": "metodoFermentacion",
                  "type": "string"
                },
                {
                  "internalType": "string",
                  "name": "fechaFermentacion",
                  "type": "string"
                }
              ],
              "internalType": "struct CoffeeSupplyChain.Fermentacion",
              "name": "fermentacion",
              "type": "tuple"
            },
            {
              "components": [
                {
                  "internalType": "string",
                  "name": "volumenAguaUtilizada",
                  "type": "string"
                },
                {
                  "internalType": "string",
                  "name": "metodoReciclajeAgua",
                  "type": "string"
                },
                {
                  "internalType": "string",
                  "name": "cantidadAguaReutilizada",
                  "type": "string"
                },
                {
                  "internalType": "string",
                  "name": "fechaLavado",
                  "type": "string"
                }
              ],
              "internalType": "struct CoffeeSupplyChain.Lavado",
              "name": "lavado",
              "type": "tuple"
            },
            {
              "components": [
                {
                  "internalType": "string",
                  "name": "metodoClasificacion",
                  "type": "string"
                },
                {
                  "internalType": "string",
                  "name": "criteriosSeleccion",
                  "type": "string"
                },
                {
                  "internalType": "string",
                  "name": "porcentajeImpurezas",
                  "type": "string"
                },
                {
                  "internalType": "string",
                  "name": "fechaClasificacion",
                  "type": "string"
                }
              ],
              "internalType": "struct CoffeeSupplyChain.ClasificacionGrano",
              "name": "clasificacionGrano",
              "type": "tuple"
            },
            {
              "components": [
                {
                  "internalType": "string",
                  "name": "tipoEmpaque",
                  "type": "string"
                },
                {
                  "internalType": "string",
                  "name": "pesoLote",
                  "type": "string"
                },
                {
                  "internalType": "string",
                  "name": "fechaEmpaque",
                  "type": "string"
                }
              ],
              "internalType": "struct CoffeeSupplyChain.Empaque",
              "name": "empaque",
              "type": "tuple"
            }
          ],
          "internalType": "struct CoffeeSupplyChain.LotWithAllData",
          "name": "",
          "type": "tuple"
        }
      ],
      "stateMutability": "view",
      "type": "function"
    },
    {
      "inputs": [
        {
          "internalType": "string",
          "name": "",
          "type": "string"
        }
      ],
      "name": "impactoData",
      "outputs": [
        {
          "internalType": "string",
          "name": "ayudaFamilias",
          "type": "string"
        },
        {
          "internalType": "string",
          "name": "pagoSobrePromedio",
          "type": "string"
        },
        {
          "internalType": "string",
          "name": "reduccionPesticidas",
          "type": "string"
        },
        {
          "internalType": "string",
          "name": "usoComposta",
          "type": "string"
        },
        {
          "internalType": "string",
          "name": "fechaImpacto",
          "type": "string"
        }
      ],
      "stateMutability": "view",
      "type": "function"
    },
    {
      "inputs": [
        {
          "internalType": "string",
          "name": "",
          "type": "string"
        }
      ],
      "name": "lavadoData",
      "outputs": [
        {
          "internalType": "string",
          "name": "volumenAguaUtilizada",
          "type": "string"
        },
        {
          "internalType": "string",
          "name": "metodoReciclajeAgua",
          "type": "string"
        },
        {
          "internalType": "string",
          "name": "cantidadAguaReutilizada",
          "type": "string"
        },
        {
          "internalType": "string",
          "name": "fechaLavado",
          "type": "string"
        }
      ],
      "stateMutability": "view",
      "type": "function"
    },
    {
      "inputs": [
        {
          "internalType": "uint256",
          "name": "",
          "type": "uint256"
        }
      ],
      "name": "lotIds",
      "outputs": [
        {
          "internalType": "string",
          "name": "",
          "type": "string"
        }
      ],
      "stateMutability": "view",
      "type": "function"
    },
    {
      "inputs": [
        {
          "internalType": "string",
          "name": "",
          "type": "string"
        }
      ],
      "name": "lots",
      "outputs": [
        {
          "internalType": "string",
          "name": "lotNumber",
          "type": "string"
        },
        {
          "internalType": "string",
          "name": "producto",
          "type": "string"
        },
        {
          "internalType": "string",
          "name": "farmerName",
          "type": "string"
        },
        {
          "internalType": "string",
          "name": "farmLocation",
          "type": "string"
        },
        {
          "internalType": "string",
          "name": "farmSize",
          "type": "string"
        },
        {
          "internalType": "string",
          "name": "quantity",
          "type": "string"
        },
        {
          "internalType": "string",
          "name": "variety",
          "type": "string"
        },
        {
          "internalType": "string",
          "name": "altitud",
          "type": "string"
        },
        {
          "internalType": "string",
          "name": "harvestingMethod",
          "type": "string"
        },
        {
          "internalType": "string",
          "name": "harvestTimestamp",
          "type": "string"
        },
        {
          "internalType": "bool",
          "name": "isActive",
          "type": "bool"
        }
      ],
      "stateMutability": "view",
      "type": "function"
    },
    {
      "inputs": [
        {
          "internalType": "string",
          "name": "",
          "type": "string"
        }
      ],
      "name": "secadoData",
      "outputs": [
        {
          "internalType": "string",
          "name": "metodoSecado",
          "type": "string"
        },
        {
          "internalType": "string",
          "name": "humedadFinal",
          "type": "string"
        },
        {
          "internalType": "string",
          "name": "fechaSecado",
          "type": "string"
        }
      ],
      "stateMutability": "view",
      "type": "function"
    },
    {
      "inputs": [
        {
          "internalType": "string",
          "name": "",
          "type": "string"
        }
      ],
      "name": "trilladoData",
      "outputs": [
        {
          "internalType": "string",
          "name": "fechaTrillado",
          "type": "string"
        },
        {
          "internalType": "string",
          "name": "cantidadTrillada",
          "type": "string"
        }
      ],
      "stateMutability": "view",
      "type": "function"
    }
  ],
  "bytecode": "0x60808060405234601557612d75908161001b8239f35b600080fdfe6080604052600436101561001257600080fd5b60003560e01c806312696743146120965780631da69848146120435780631da917d414611ffb5780632dcb0ea314611fa757806336247d8b14611f535780633624e35b14611cf15780633bd68b5b14611c505780633d4a453214611bfc578063425c1f6c14611b8057806343587a9014611b355780634741eaf114611aed578063489214a61461178c5780635b18535e146115ea578063706bc01b146114a55780638e3bea6f14610a69578063935866ea146109c2578063bc6cb85d14610953578063be65c4ec1461087d578063e2d66992146106e6578063e4a92d201461031b578063eb3a46ac146101fa578063ec27f2c5146101b25763f9c160631461011957600080fd5b346101ad5760203660031901126101ad576004356001600160401b0381116101ad57602061014e6101619236906004016121bf565b8160405193828580945193849201612215565b8101600681520301902061017481612272565b6101a961018360018401612272565b9261019c600361019560028401612272565b9201612272565b906040519485948561233b565b0390f35b600080fd5b346101ad5760203660031901126101ad576004356001600160401b0381116101ad57602061014e6101e79236906004016121bf565b8101600281520301902061017481612272565b346101ad5760603660031901126101ad576004356001600160401b0381116101ad5761022a9036906004016121bf565b6024356001600160401b0381116101ad576102499036906004016121bf565b906044356001600160401b0381116101ad576102ef9260016102726102ea9336906004016121bf565b6102e26102d06020876102aa60ff600a604051858181875197019661029881838a612215565b810160008152030190200154166127d3565b604051966102b788612183565b8752818701948552604051809381928b51928391612215565b81016004815203019020935184612810565b519101612810565b612948565b7f264d74d7c67ae6da06ea3e1ba6febfd064650290b42ce20f48d4912199b451b16020604051428152a2005b346101ad5760203660031901126101ad576004356001600160401b0381116101ad5761034b9036906004016121bf565b60405161035781612167565b61035f6129b4565b8152610369612a0f565b6020820152610376612a4b565b6040820152610383612a6f565b6060820152610390612a8e565b608082015261039d612aa7565b60a08201526103aa612a4b565b60c08201526103b7612a4b565b60e08201526103c4612a4b565b6101008201526103d2612a6f565b9061012001526040518151908060208401926103ef818386612215565b810160008152036020019020600a015460ff1661040b906127d3565b60405180835161041c818386612215565b8101600081520360200190209060405180845161043a818386612215565b810160018152036020019020604051808551610457818387612215565b81016002815203602001902093604051808251610475818388612215565b81016003815203602001902092604051808351610493818386612215565b8101600481520360200190206040518084516104b0818387612215565b8101600581520360200190206040518085516104cd818388612215565b810160068152036020019020916040518086516104eb818389612215565b81016007815203602001902093604051808751610509818386612215565b810160088152036020019020956040518092819251809261052992612215565b81016009815203602001902095604051986105438a612167565b61054c90612ae5565b895261055790612bab565b9860208901998a5261056890612c3d565b966040890197885261057990612c86565b906060890191825261058a90612cbe565b916080890192835261059b90612ce5565b9260a089019384526105ac90612c3d565b9360c089019485526105bd90612c3d565b9460e089019586526105ce90612c3d565b9561010089019687526105e090612c86565b966101208901978852604051998a9960208b525160208b0161014090526101608b0161060b9161251c565b90518a8203601f190160408c01526106239190612603565b9051898203601f190160608b015261063b91906126ad565b9051888203601f190160808a01526106539190612701565b9051878203601f190160a089015261066b9190612740565b9051868203601f190160c0880152610683919061276a565b9051858203601f190160e087015261069b91906126ad565b9051848203601f19016101008601526106b491906126ad565b9051838203601f19016101208501526106cd91906126ad565b9051828203601f19016101408401526101a99190612701565b346101ad5760203660031901126101ad576004356001600160401b0381116101ad576107169036906004016121bf565b604051818180935160208193019161072d92612215565b81016000815203602001902061074281612272565b61074e60018301612272565b9161075b60028201612272565b9061076860038201612272565b61077460048301612272565b61078060058401612272565b61078c60068501612272565b9061079960078601612272565b926107a660088701612272565b946107b360098801612272565b96600a015460ff16976040519a8b9a6101608c526101608c016107d591612316565b8b810360208d01526107e691612316565b8a810360408c01526107f791612316565b89810360608b015261080891612316565b88810360808a015261081991612316565b87810360a089015261082a91612316565b86810360c088015261083b91612316565b85810360e087015261084c91612316565b84810361010086015261085e91612316565b83810361012085015261087091612316565b9015156101408301520390f35b346101ad5760203660031901126101ad576004356001600160401b0381116101ad576108b5602061014e61091b9336906004016121bf565b810160058152030190206101a96108cb82612272565b916109456108db60018301612272565b916109376108eb60028301612272565b61092961090660046108ff60038701612272565b9501612272565b95604051998a9960a08b5260a08b0190612316565b9089820360208b0152612316565b908782036040890152612316565b908582036060870152612316565b908382036080850152612316565b346101ad5760203660031901126101ad576004356001600160401b0381116101ad57602061014e6109889236906004016121bf565b8101600381520301902061099b81612272565b6101a96109b660026109af60018601612272565b9401612272565b6040519384938461240e565b346101ad57610a3d610a2e6102ea60206109db36612445565b9084979492610a0060ff600a6040999799518881818a519a019961029881838d612215565b60405196610a0d886120f9565b87528487015260408601526060850152604051809381928851928391612215565b81016006815203019020612968565b7fea4ccf211b78c45da5b800456d0e9021c4a3117f2f229fe84610c66a2238f6b86020604051428152a2005b346101ad5760003660031901126101ad57600a54610a868161299d565b90610a94604051928361219e565b808252601f19610aa38261299d565b0160005b81811061148e578284610ab98261299d565b91610ac7604051938461219e565b808352601f19610ad68261299d565b0160005b81811061146f575050610aec8161299d565b610af9604051918261219e565b818152601f19610b088361299d565b0160005b818110611450575050610b1e8261299d565b610b2b604051918261219e565b828152601f19610b3a8461299d565b0160005b818110611431575050610b508361299d565b610b5d604051918261219e565b838152601f19610b6c8561299d565b0160005b818110611412575050610b828461299d565b610b8f604051918261219e565b848152601f19610b9e8661299d565b0160005b8181106113ed575050610bb48561299d565b91610bc2604051938461219e565b858352601f19610bd18761299d565b0160005b8181106113c4575050610be78661299d565b93610bf5604051958661219e565b868552601f19610c048861299d565b0160005b818110611397575050610c1a8761299d565b95610c28604051978861219e565b878752601f19610c378961299d565b0160005b81811061136a575050610c4d8861299d565b97610c5b604051998a61219e565b808952601f19610c6a8261299d565b0160005b81811061133c57505060005b8181106110a7575050604051998a998a6101408101610140825282518091526020610160808401938360051b01019301916000905b82821061106557505050508a810360208c0152815180825260208201916020808360051b8301019401926000915b83831061102457505050505089810360408b0152815180825260208201916020808360051b8301019401926000915b838310610fe557505050505088810360608a0152815180825260208201916020808360051b8301019401926000915b838310610fa85750505050508781036080890152815180825260208201916020808360051b8301019401926000915b838310610f6d57505050505086810360a0880152815180825260208201916020808360051b8301019401926000915b838310610f3457505050505085810360c0870152815180825260208201916020808360051b8301019401926000915b838310610efd57505050505084810360e0860152815180825260208201916020808360051b8301019401926000915b838310610ec8575050505050838103610100850152815180825260208201916020808360051b8301019401926000915b838310610e95575050505050828103610120840152815180825260208201916020808360051b8301019401926000915b838310610e645786860387f35b919395509193602080610e83600193601f198682030187528951612701565b97019301930190928695949293610e57565b91939596509193602080610eb5600193601f1986820301875289516126ad565b9701930193019092879695949293610e27565b9193959697509193602080610ee9600193601f1986820301875289516126ad565b970193019301909288979695949293610df7565b919395969798509193602080610f1f600193601f1986820301875289516126ad565b97019301930190928998979695949293610dc8565b91939596979899509193602080610f57600193601f19868203018752895161276a565b97019301930190928a9998979695949293610d99565b919395969798999a509193602080610f91600193601f198682030187528951612740565b97019301930190928b9a9998979695949293610d6a565b919395969798999a9b509193602080610fcd600193601f198682030187528951612701565b97019301930190928c9b9a9998979695949293610d3b565b919395969798999a9b9c50919360208061100b600193601f1986820301875289516126ad565b97019301930190928d9c9b9a9998979695949293610d0c565b919395969798999a9b9c9d50919360208061104b600193601f198682030187528951612603565b97019301930190928e9d9c9b9a9998979695949293610cdd565b9193602060019294969798999a9b9c9d9e9f819261108e9161015f19908203018652885161251c565b9601920192018e9d9c9b9a999897969594939192610caf565b6110bb819c939495969798999a9b9c6124eb565b506110c590612272565b604051908d838251938060208501956110df818389612215565b8101600081520360200190206110f490612ae5565b6110fe8284612ad1565b5261110891612ad1565b5060405180825161111a818387612215565b81016001815203602001902061112f90612bab565b6111398487612ad1565b526111448386612ad1565b50604051808251611156818387612215565b81016002815203602001902061116b90612c3d565b6111758488612ad1565b526111808387612ad1565b50604051808251611192818387612215565b8101600381520360200190206111a790612c86565b6111b18489612ad1565b526111bc8388612ad1565b506040518082516111ce818387612215565b8101600481520360200190206111e390612cbe565b6111ed848a612ad1565b526111f88389612ad1565b5060405180825161120a818387612215565b81016005815203602001902061121f90612ce5565b611229848b612ad1565b52611234838a612ad1565b50604051808251611246818387612215565b81016006815203602001902061125b90612c3d565b611265848c612ad1565b52611270838b612ad1565b50604051808251611282818387612215565b81016007815203602001902061129790612c3d565b6112a1848d612ad1565b526112ac838c612ad1565b50828c6040518084516112c0818389612215565b8101600881520360200190206112d590612c3d565b916112df91612ad1565b526112ea838d612ad1565b50604051809281925180926112fe92612215565b81016009815203602001902061131390612c86565b61131d828d612ad1565b52611328818c612ad1565b506001019a9998979695949392919a610c7a565b808b60209d9e95969798999a9b9c9d8093611355612a6f565b92010152019b9a99989796959493929b610c6e565b6020906113809c939495969798999a9b9c612a4b565b82828d010152019a9998979695949392919a610c3b565b6020906113ad9b999a9b98939495969798612a4b565b82828b010152019998979996959493929196610c08565b6020906113d89a98999a9693949596612a4b565b82828901015201989796989493929194610bd5565b6020906113ff99979899949394612aa7565b8282870101520197969597929192610ba2565b60209061142198969798612a8e565b8282860101520196959496610b70565b60209061144097959697612a6f565b8282860101520195949395610b3e565b60209061145f96949596612a4b565b8282860101520194939294610b0c565b60209061147e95939495612a0f565b8282860101520193929193610ada565b6020906114996129b4565b82828701015201610aa7565b346101ad5760203660031901126101ad576004356001600160401b0381116101ad576114d59036906004016121bf565b60405181818093516020819301916114ec92612215565b81016001815203602001902061150181612272565b61150d60018301612272565b9161151a60028201612272565b9061152760038201612272565b61153360048301612272565b61153f60058401612272565b9161154c60068501612272565b9360070161155990612272565b946040519788976101008952610100890161157391612316565b88810360208a015261158491612316565b878103604089015261159591612316565b86810360608801526115a691612316565b85810360808701526115b791612316565b84810360a08601526115c891612316565b83810360c08501526115d991612316565b82810360e08401526101a991612316565b346101ad5760c03660031901126101ad576004356001600160401b0381116101ad5761161a9036906004016121bf565b6024356001600160401b0381116101ad576116399036906004016121bf565b906044356001600160401b0381116101ad576116599036906004016121bf565b6064356001600160401b0381116101ad576116789036906004016121bf565b926084356001600160401b0381116101ad576116989036906004016121bf565b9160a435906001600160401b0382116101ad576102e26102ea946117566117609861174c6116cb600497369089016121bf565b9561174261173060208d604051906116f460ff600a83519486818187019761029881838b612215565b60806040519e8f906117058261214c565b815284810197885260408101998a52606081019b8c52019b8c52604051938492839251928391612215565b8101600581520301902099518a612810565b5160018901612810565b5160028701612810565b5160038501612810565b7fa3fc4ea807a2ced512bc603cedea5de267cc6229a2a1ecf01cb9ddff068e9be06020604051428152a2005b346101ad576101403660031901126101ad576004356001600160401b0381116101ad576117bd9036906004016121bf565b6024356001600160401b0381116101ad576117dc9036906004016121bf565b6044356001600160401b0381116101ad576117fb9036906004016121bf565b906064356001600160401b0381116101ad5761181b9036906004016121bf565b6084356001600160401b0381116101ad5761183a9036906004016121bf565b60a4356001600160401b0381116101ad576118599036906004016121bf565b60c4356001600160401b0381116101ad576118789036906004016121bf565b60e4356001600160401b0381116101ad576118979036906004016121bf565b91610104356001600160401b0381116101ad576118b89036906004016121bf565b93610124356001600160401b0381116101ad576118d99036906004016121bf565b956040519889808c80519c60208e92019d6118f4918f612215565b8101600081520360200190205461190a90612238565b611ab7576040519861191b8a612130565b8b8a5260208a0190815260408a0191825260608a0192835260808a0193845260a08a0194855260c08a0195865260e08a019687526101008a019788526101208a019889526101408a019a60018c528c6040518092819251809261197d92612215565b8101600081520360200190209951611995908b612810565b516119a39060018b01612810565b516119b19060028a01612810565b516119bf9060038901612810565b516119cd9060048801612810565b516119db9060058701612810565b516119e99060068601612810565b516119f79060078501612810565b51611a059060088401612810565b51611a139060098301612810565b600a019051151560ff198254169060ff16179055600a5468010000000000000000811015611aa157806001611a4b9201600a556124eb565b919091611a8b576102ea81611a5f93612810565b7f740b22bce40d316a9c849944a701c8b3fd23b03709bdd850c5dd19f1a8eeb8626020604051428152a2005b634e487b7160e01b600052600060045260246000fd5b634e487b7160e01b600052604160045260246000fd5b60405162461bcd60e51b815260206004820152600e60248201526d4c6f74652079612065786973746560901b6044820152606490fd5b346101ad5760203660031901126101ad576004356001600160401b0381116101ad57602061014e611b229236906004016121bf565b8101600881520301902061017481612272565b346101ad5760203660031901126101ad57600435600a548110156101ad57611b5c906124eb565b611a8b57611b6c6101a991612272565b604051918291602083526020830190612316565b346101ad5760203660031901126101ad576004356001600160401b0381116101ad57611bb8602061014e611bee9336906004016121bf565b810160048152030190206101a9611bda6001611bd384612272565b9301612272565b604051938493604085526040850190612316565b908382036020850152612316565b346101ad57611c24611c156102ea60206109db36612445565b81016007815203019020612968565b7fcac5975d8964851b0704856190f6bebb29fb6070eb068da685e292cd16def0686020604051428152a2005b346101ad57611cc5611cb66102ea6020611c6936612386565b83969391611c8d60ff600a604098969851878181895199019861029881838c612215565b60405195611c9a876120de565b8652838601526040850152604051809381928851928391612215565b8101600381520301902061291b565b7f4621242f55258185ed743a265277cf88035a69b23efd73e632bebbb7f44e2e7c6020604051428152a2005b346101ad576101203660031901126101ad576004356001600160401b0381116101ad57611d229036906004016121bf565b6024356001600160401b0381116101ad57611d419036906004016121bf565b6044356001600160401b0381116101ad57611d609036906004016121bf565b6064356001600160401b0381116101ad57611d7f9036906004016121bf565b6084356001600160401b0381116101ad57611d9e9036906004016121bf565b60a4356001600160401b0381116101ad57611dbd9036906004016121bf565b60c4356001600160401b0381116101ad57611ddc9036906004016121bf565b9160e4356001600160401b0381116101ad57611dfc9036906004016121bf565b93610104356001600160401b0381116101ad57611e1d9036906004016121bf565b956040518951908060208c0192611e35818386612215565b810160008152036020019020600a015460ff16611e51906127d3565b60405198611e5e8a612114565b89526020890191825260408901928352606089019384526080890194855260a0890195865260c0890196875260e089019788526040518080928c518092611ea492612215565b8101600181520360200190209751611ebc9089612810565b51611eca9060018901612810565b51611ed89060028801612810565b51611ee69060038701612810565b51611ef49060048601612810565b51611f029060058501612810565b51611f109060068401612810565b51611f1d91600701612810565b611f2690612948565b60405142815260207fe8f3871572477cb0f3520a039beedc0905b2c60d29dd3b12267b832205495db391a2005b346101ad57611f7b611f6c6102ea60206109db36612445565b81016008815203019020612968565b7f46adc582f2dc9e80c7e3f92a0fde51e1535888892300e2c1b9bf8be80ed348026020604051428152a2005b346101ad57611fcf611fc06102ea60206109db36612445565b81016002815203019020612968565b7f7967622ef720c78f24912cb33664b9afbf703e1ac459ccd37d3cbc437d26a7456020604051428152a2005b346101ad5760203660031901126101ad576004356001600160401b0381116101ad57602061014e6120309236906004016121bf565b8101600981520301902061099b81612272565b346101ad5761206b61205c6102ea6020611c6936612386565b8101600981520301902061291b565b7ebc9616feaf4aecfd0ed84cacda82e89bede729176f42dafbbf88c5ff90ba876020604051428152a2005b346101ad5760203660031901126101ad576004356001600160401b0381116101ad57602061014e6120cb9236906004016121bf565b8101600781520301902061017481612272565b606081019081106001600160401b03821117611aa157604052565b608081019081106001600160401b03821117611aa157604052565b61010081019081106001600160401b03821117611aa157604052565b61016081019081106001600160401b03821117611aa157604052565b60a081019081106001600160401b03821117611aa157604052565b61014081019081106001600160401b03821117611aa157604052565b604081019081106001600160401b03821117611aa157604052565b90601f801991011681019081106001600160401b03821117611aa157604052565b81601f820112156101ad578035906001600160401b038211611aa157604051926121f3601f8401601f19166020018561219e565b828452602083830101116101ad57816000926020809301838601378301015290565b60005b8381106122285750506000910152565b8181015183820152602001612218565b90600182811c92168015612268575b602083101461225257565b634e487b7160e01b600052602260045260246000fd5b91607f1691612247565b906040519182600082549261228684612238565b80845293600181169081156122f457506001146122ad575b506122ab9250038361219e565b565b90506000929192526020600020906000915b8183106122d85750509060206122ab928201013861229e565b60209193508060019154838589010152019101909184926122bf565b9050602092506122ab94915060ff191682840152151560051b8201013861229e565b9060209161232f81518092818552858086019101612215565b601f01601f1916010190565b92612367612383959361235961237594608088526080880190612316565b908682036020880152612316565b908482036040860152612316565b916060818403910152612316565b90565b9060806003198301126101ad576004356001600160401b0381116101ad57826123b1916004016121bf565b916024356001600160401b0381116101ad57816123d0916004016121bf565b916044356001600160401b0381116101ad57826123ef916004016121bf565b91606435906001600160401b0382116101ad57612383916004016121bf565b91612437906124296123839593606086526060860190612316565b908482036020860152612316565b916040818403910152612316565b60a06003198201126101ad576004356001600160401b0381116101ad578161246f916004016121bf565b916024356001600160401b0381116101ad578261248e916004016121bf565b916044356001600160401b0381116101ad57816124ad916004016121bf565b916064356001600160401b0381116101ad57826124cc916004016121bf565b91608435906001600160401b0382116101ad57612383916004016121bf565b600a5481101561250657600a60005260206000200190600090565b634e487b7160e01b600052603260045260246000fd5b90610140806125f86125e46125d06125be6125ac61259a6125886125766125638c60206125538e6101608451918181520190612316565b9101518d820360208f0152612316565b60408d01518c6040818403910152612316565b60608c01518b820360608d0152612316565b60808b01518a820360808c0152612316565b60a08a015189820360a08b0152612316565b60c089015188820360c08a0152612316565b60e088015187820360e0890152612316565b610100870151868203610100880152612316565b610120860151858203610120870152612316565b930151151591015290565b6123839160e061269c61268a61267861266661265461264261263089516101008a526101008a0190612316565b60208a015189820360208b0152612316565b604089015188820360408a0152612316565b60608801518782036060890152612316565b60808701518682036080880152612316565b60a086015185820360a0870152612316565b60c085015184820360c0860152612316565b9201519060e0818403910152612316565b6123839160606126f06126de6126cc8551608086526080860190612316565b60208601518582036020870152612316565b60408501518482036040860152612316565b920151906060818403910152612316565b61238391604061272f61271d8451606085526060850190612316565b60208501518482036020860152612316565b920151906040818403910152612316565b6123839160206127598351604084526040840190612316565b920151906020818403910152612316565b6123839160806127c26127b061279e61278c865160a0875260a0870190612316565b60208701518682036020880152612316565b60408601518582036040870152612316565b60608501518482036060860152612316565b920151906080818403910152612316565b156127da57565b60405162461bcd60e51b815260206004820152600e60248201526d4c6f7465206e6f2065786973746560901b6044820152606490fd5b91909182516001600160401b038111611aa15761282d8254612238565b601f81116128d3575b506020601f82116001146128715781929394600092612866575b50508160011b916000199060031b1c1916179055565b015190503880612850565b601f1982169083600052806000209160005b8181106128bb575095836001959697106128a2575b505050811b019055565b015160001960f88460031b161c19169055388080612898565b9192602060018192868b015181550194019201612883565b826000526020600020601f830160051c81019160208410612911575b601f0160051c01905b8181106129055750612836565b600081556001016128f8565b90915081906128ef565b600260406122ab9361292e815185612810565b61293f602082015160018601612810565b01519101612810565b61296090602060405192828480945193849201612215565b810103902090565b600360606122ab9361297b815185612810565b61298c602082015160018601612810565b61293f604082015160028601612810565b6001600160401b038111611aa15760051b60200190565b604051906129c182612130565b60006101408360608152606060208201526060604082015260608082015260606080820152606060a0820152606060c0820152606060e0820152606061010082015260606101208201520152565b60405190612a1c82612114565b606060e08382815282602082015282604082015282808201528260808201528260a08201528260c08201520152565b60405190612a58826120f9565b606080838181528160208201528160408201520152565b60405190612a7c826120de565b60606040838281528260208201520152565b60405190612a9b82612183565b60606020838281520152565b60405190612ab48261214c565b606060808382815282602082015282604082015282808201520152565b80518210156125065760209160051b010190565b90604051612af281612130565b61014060ff600a8395612b0481612272565b8552612b1260018201612272565b6020860152612b2360028201612272565b6040860152612b3460038201612272565b6060860152612b4560048201612272565b6080860152612b5660058201612272565b60a0860152612b6760068201612272565b60c0860152612b7860078201612272565b60e0860152612b8960088201612272565b610100860152612b9b60098201612272565b6101208601520154161515910152565b90604051612bb881612114565b60e0612c3860078395612bca81612272565b8552612bd860018201612272565b6020860152612be960028201612272565b6040860152612bfa60038201612272565b6060860152612c0b60048201612272565b6080860152612c1c60058201612272565b60a0860152612c2d60068201612272565b60c086015201612272565b910152565b90604051612c4a816120f9565b6060612c3860038395612c5c81612272565b8552612c6a60018201612272565b6020860152612c7b60028201612272565b604086015201612272565b90604051612c93816120de565b6040612c3860028395612ca581612272565b8552612cb360018201612272565b602086015201612272565b90604051612ccb81612183565b6020612c3860018395612cdd81612272565b855201612272565b90604051612cf28161214c565b6080612c3860048395612d0481612272565b8552612d1260018201612272565b6020860152612d2360028201612272565b6040860152612d3460038201612272565b60608601520161227256fea2646970667358221220fd04df5491885969cba792b8cb97ab4fbe3922f234999b70493c12ece8284d7964736f6c634300081c0033",
  "linkReferences": {},
  "deployedLinkReferences": {}
}