{
  "_format": "hh-sol-artifact-1",
  "contractName": "CoffeeSupplyChain",
  "sourceName": "contracts/CoffeeSupplyChain.sol",
  "abi": [
    {
      "anonymous": false,
      "inputs": [
        {
          "indexed": true,
          "internalType": "string",
          "name": "lot",
          "type": "string"
        },
        {
          "indexed": false,
          "internalType": "string",
          "name": "farmerName",
          "type": "string"
        },
        {
          "indexed": false,
          "internalType": "uint256",
          "name": "timestamp",
          "type": "uint256"
        }
      ],
      "name": "LotCreated",
      "type": "event"
    },
    {
      "anonymous": false,
      "inputs": [
        {
          "indexed": true,
          "internalType": "string",
          "name": "lot",
          "type": "string"
        },
        {
          "indexed": false,
          "internalType": "string",
          "name": "farmerName",
          "type": "string"
        },
        {
          "indexed": false,
          "internalType": "uint256",
          "name": "timestamp",
          "type": "uint256"
        }
      ],
      "name": "LotUpdated",
      "type": "event"
    },
    {
      "inputs": [
        {
          "internalType": "string",
          "name": "lot",
          "type": "string"
        },
        {
          "internalType": "string",
          "name": "farmerName",
          "type": "string"
        },
        {
          "internalType": "string",
          "name": "farmLocation",
          "type": "string"
        },
        {
          "internalType": "string",
          "name": "lotWeight",
          "type": "string"
        },
        {
          "components": [
            {
              "internalType": "string",
              "name": "harvestMethod",
              "type": "string"
            },
            {
              "internalType": "string",
              "name": "harvestedQuantity",
              "type": "string"
            },
            {
              "components": [
                {
                  "internalType": "string",
                  "name": "pulpingMethod",
                  "type": "string"
                },
                {
                  "internalType": "string",
                  "name": "fermentationMethod",
                  "type": "string"
                },
                {
                  "internalType": "string",
                  "name": "dryingMethod",
                  "type": "string"
                },
                {
                  "internalType": "string",
                  "name": "millingMethod",
                  "type": "string"
                }
              ],
              "internalType": "struct CoffeeSupplyChain.ProcessingDetails",
              "name": "processing",
              "type": "tuple"
            },
            {
              "components": [
                {
                  "internalType": "string",
                  "name": "sortingMethod",
                  "type": "string"
                },
                {
                  "internalType": "string",
                  "name": "selectionCriteria",
                  "type": "string"
                },
                {
                  "internalType": "string",
                  "name": "defectsRemoved",
                  "type": "string"
                },
                {
                  "internalType": "string",
                  "name": "finalMoisture",
                  "type": "string"
                },
                {
                  "internalType": "string",
                  "name": "packagingType",
                  "type": "string"
                }
              ],
              "internalType": "struct CoffeeSupplyChain.QualityControl",
              "name": "quality",
              "type": "tuple"
            }
          ],
          "internalType": "struct CoffeeSupplyChain.ProcessingData",
          "name": "processingData",
          "type": "tuple"
        },
        {
          "components": [
            {
              "internalType": "string",
              "name": "familiesBenefited",
              "type": "string"
            },
            {
              "internalType": "string",
              "name": "biodiversityConservation",
              "type": "string"
            },
            {
              "internalType": "string",
              "name": "cultivationTechniques",
              "type": "string"
            },
            {
              "internalType": "string",
              "name": "waterManagement",
              "type": "string"
            }
          ],
          "internalType": "struct CoffeeSupplyChain.SustainabilityData",
          "name": "sustainabilityData",
          "type": "tuple"
        }
      ],
      "name": "createLot",
      "outputs": [],
      "stateMutability": "nonpayable",
      "type": "function"
    },
    {
      "inputs": [],
      "name": "getAllLotsInfo",
      "outputs": [
        {
          "components": [
            {
              "internalType": "string",
              "name": "farmerName",
              "type": "string"
            },
            {
              "internalType": "string",
              "name": "farmLocation",
              "type": "string"
            },
            {
              "internalType": "string",
              "name": "lotWeight",
              "type": "string"
            },
            {
              "internalType": "uint256",
              "name": "harvestTimestamp",
              "type": "uint256"
            },
            {
              "internalType": "bool",
              "name": "isActive",
              "type": "bool"
            },
            {
              "internalType": "bytes32",
              "name": "processDataHash",
              "type": "bytes32"
            },
            {
              "internalType": "bytes32",
              "name": "sustainabilityHash",
              "type": "bytes32"
            }
          ],
          "internalType": "struct CoffeeSupplyChain.MainLotData[]",
          "name": "",
          "type": "tuple[]"
        }
      ],
      "stateMutability": "view",
      "type": "function"
    },
    {
      "inputs": [
        {
          "internalType": "string",
          "name": "lot",
          "type": "string"
        }
      ],
      "name": "getMainLotData",
      "outputs": [
        {
          "components": [
            {
              "internalType": "string",
              "name": "farmerName",
              "type": "string"
            },
            {
              "internalType": "string",
              "name": "farmLocation",
              "type": "string"
            },
            {
              "internalType": "string",
              "name": "lotWeight",
              "type": "string"
            },
            {
              "internalType": "uint256",
              "name": "harvestTimestamp",
              "type": "uint256"
            },
            {
              "internalType": "bool",
              "name": "isActive",
              "type": "bool"
            },
            {
              "internalType": "bytes32",
              "name": "processDataHash",
              "type": "bytes32"
            },
            {
              "internalType": "bytes32",
              "name": "sustainabilityHash",
              "type": "bytes32"
            }
          ],
          "internalType": "struct CoffeeSupplyChain.MainLotData",
          "name": "",
          "type": "tuple"
        }
      ],
      "stateMutability": "view",
      "type": "function"
    },
    {
      "inputs": [
        {
          "internalType": "string",
          "name": "lot",
          "type": "string"
        }
      ],
      "name": "getProcessingData",
      "outputs": [
        {
          "components": [
            {
              "internalType": "string",
              "name": "harvestMethod",
              "type": "string"
            },
            {
              "internalType": "string",
              "name": "harvestedQuantity",
              "type": "string"
            },
            {
              "components": [
                {
                  "internalType": "string",
                  "name": "pulpingMethod",
                  "type": "string"
                },
                {
                  "internalType": "string",
                  "name": "fermentationMethod",
                  "type": "string"
                },
                {
                  "internalType": "string",
                  "name": "dryingMethod",
                  "type": "string"
                },
                {
                  "internalType": "string",
                  "name": "millingMethod",
                  "type": "string"
                }
              ],
              "internalType": "struct CoffeeSupplyChain.ProcessingDetails",
              "name": "processing",
              "type": "tuple"
            },
            {
              "components": [
                {
                  "internalType": "string",
                  "name": "sortingMethod",
                  "type": "string"
                },
                {
                  "internalType": "string",
                  "name": "selectionCriteria",
                  "type": "string"
                },
                {
                  "internalType": "string",
                  "name": "defectsRemoved",
                  "type": "string"
                },
                {
                  "internalType": "string",
                  "name": "finalMoisture",
                  "type": "string"
                },
                {
                  "internalType": "string",
                  "name": "packagingType",
                  "type": "string"
                }
              ],
              "internalType": "struct CoffeeSupplyChain.QualityControl",
              "name": "quality",
              "type": "tuple"
            }
          ],
          "internalType": "struct CoffeeSupplyChain.ProcessingData",
          "name": "",
          "type": "tuple"
        }
      ],
      "stateMutability": "view",
      "type": "function"
    },
    {
      "inputs": [
        {
          "internalType": "string",
          "name": "lot",
          "type": "string"
        }
      ],
      "name": "getSustainabilityData",
      "outputs": [
        {
          "components": [
            {
              "internalType": "string",
              "name": "familiesBenefited",
              "type": "string"
            },
            {
              "internalType": "string",
              "name": "biodiversityConservation",
              "type": "string"
            },
            {
              "internalType": "string",
              "name": "cultivationTechniques",
              "type": "string"
            },
            {
              "internalType": "string",
              "name": "waterManagement",
              "type": "string"
            }
          ],
          "internalType": "struct CoffeeSupplyChain.SustainabilityData",
          "name": "",
          "type": "tuple"
        }
      ],
      "stateMutability": "view",
      "type": "function"
    },
    {
      "inputs": [
        {
          "internalType": "uint256",
          "name": "",
          "type": "uint256"
        }
      ],
      "name": "lotIds",
      "outputs": [
        {
          "internalType": "string",
          "name": "",
          "type": "string"
        }
      ],
      "stateMutability": "view",
      "type": "function"
    },
    {
      "inputs": [
        {
          "internalType": "string",
          "name": "",
          "type": "string"
        }
      ],
      "name": "mainLotRecords",
      "outputs": [
        {
          "internalType": "string",
          "name": "farmerName",
          "type": "string"
        },
        {
          "internalType": "string",
          "name": "farmLocation",
          "type": "string"
        },
        {
          "internalType": "string",
          "name": "lotWeight",
          "type": "string"
        },
        {
          "internalType": "uint256",
          "name": "harvestTimestamp",
          "type": "uint256"
        },
        {
          "internalType": "bool",
          "name": "isActive",
          "type": "bool"
        },
        {
          "internalType": "bytes32",
          "name": "processDataHash",
          "type": "bytes32"
        },
        {
          "internalType": "bytes32",
          "name": "sustainabilityHash",
          "type": "bytes32"
        }
      ],
      "stateMutability": "view",
      "type": "function"
    },
    {
      "inputs": [
        {
          "internalType": "string",
          "name": "lot",
          "type": "string"
        },
        {
          "components": [
            {
              "internalType": "string",
              "name": "harvestMethod",
              "type": "string"
            },
            {
              "internalType": "string",
              "name": "harvestedQuantity",
              "type": "string"
            },
            {
              "components": [
                {
                  "internalType": "string",
                  "name": "pulpingMethod",
                  "type": "string"
                },
                {
                  "internalType": "string",
                  "name": "fermentationMethod",
                  "type": "string"
                },
                {
                  "internalType": "string",
                  "name": "dryingMethod",
                  "type": "string"
                },
                {
                  "internalType": "string",
                  "name": "millingMethod",
                  "type": "string"
                }
              ],
              "internalType": "struct CoffeeSupplyChain.ProcessingDetails",
              "name": "processing",
              "type": "tuple"
            },
            {
              "components": [
                {
                  "internalType": "string",
                  "name": "sortingMethod",
                  "type": "string"
                },
                {
                  "internalType": "string",
                  "name": "selectionCriteria",
                  "type": "string"
                },
                {
                  "internalType": "string",
                  "name": "defectsRemoved",
                  "type": "string"
                },
                {
                  "internalType": "string",
                  "name": "finalMoisture",
                  "type": "string"
                },
                {
                  "internalType": "string",
                  "name": "packagingType",
                  "type": "string"
                }
              ],
              "internalType": "struct CoffeeSupplyChain.QualityControl",
              "name": "quality",
              "type": "tuple"
            }
          ],
          "internalType": "struct CoffeeSupplyChain.ProcessingData",
          "name": "processingData",
          "type": "tuple"
        },
        {
          "components": [
            {
              "internalType": "string",
              "name": "familiesBenefited",
              "type": "string"
            },
            {
              "internalType": "string",
              "name": "biodiversityConservation",
              "type": "string"
            },
            {
              "internalType": "string",
              "name": "cultivationTechniques",
              "type": "string"
            },
            {
              "internalType": "string",
              "name": "waterManagement",
              "type": "string"
            }
          ],
          "internalType": "struct CoffeeSupplyChain.SustainabilityData",
          "name": "sustainabilityData",
          "type": "tuple"
        }
      ],
      "name": "verifyDataIntegrity",
      "outputs": [
        {
          "internalType": "bool",
          "name": "",
          "type": "bool"
        }
      ],
      "stateMutability": "view",
      "type": "function"
    }
  ],
  "bytecode": "0x6080806040523460155761134d908161001b8239f35b600080fdfe6080604052600436101561001257600080fd5b60003560e01c80630252fe3e146109df5780630450351a1461081c57806343587a90146107d15780634648af651461067a57806361e1b4c3146106145780638556aa0314610531578063a33de430146104265763f86b6e3f1461007457600080fd5b346104215760c0366003190112610421576004356001600160401b038111610421576100a4903690600401610baf565b6024356001600160401b038111610421576100c3903690600401610baf565b906044356001600160401b038111610421576100e3903690600401610baf565b906064356001600160401b03811161042157610103903690600401610baf565b916084356001600160401b03811161042157610123903690600401610cac565b9260a4356001600160401b03811161042157610143903690600401610c05565b906040519460ff600487602081895161016081848d019d8e610e0e565b810160008152030190200154166103eb5785600661032e9561030c948a8961024960405160208101906101a5816101978c85611026565b03601f198101835282610b8e565b5190209361023f8b6040516101ca816101976020820194602086526040830190610fcf565b5190209661023561022360206040519c8d996101e58b610b3d565b8a52818a0194855260408a0196875260608a0198428a5260c060808c019b60018d5260a081019d8e52019c8d52604051938492839251928391610e0e565b810160008152030190209a518b6111d7565b5160018a016111d7565b51600288016111d7565b516003860155600485019051151560ff8019835416911617905551600584015551910155600a60806060604051602081806102888d8d51928391610e0e565b810160018152030190209361029e8151866111d7565b6102af6020820151600187016111d7565b6102c06040820151600287016112e2565b01516102d08151600686016111d7565b6102e16020820151600786016111d7565b6102f26040820151600886016111d7565b6103036060820151600986016111d7565b015191016111d7565b604051602081855161031f81838a610e0e565b810160028152030190206112e2565b600354680100000000000000008110156103d5578060016103529201600355610ec0565b6103bf577f0a9f342f718795a34b99dd509bd4a7358cc3f9b601cef661eca13437577c4a8892826103896103b49461039a946111d7565b604051928392839251928391610e0e565b810103902092604051918291604083526040830190610e31565b4260208301520390a2005b634e487b7160e01b600052600060045260246000fd5b634e487b7160e01b600052604160045260246000fd5b60405162461bcd60e51b815260206004820152600e60248201526d4c6f74652079612065786973746560901b6044820152606490fd5b600080fd5b34610421576020366003190112610421576004356001600160401b038111610421576104a9602061045e61052d933690600401610baf565b61046661111c565b506040519061049860ff600483519486818187019761048681838b610e0e565b810160008152030190200154166110c8565b604051938492839251928391610e0e565b810160008152030190206006604051916104c283610b3d565b6104cb81610f2b565b83526104d960018201610f2b565b60208401526104ea60028201610f2b565b60408401526003810154606084015260ff60048201541615156080840152600581015460a0840152015460c0820152604051918291602083526020830190610e56565b0390f35b34610421576020366003190112610421576004356001600160401b0381116104215761057c60206105696105dd933690600401610baf565b8160405193828580945193849201610e0e565b8101600081520301902061058f81610f2b565b9061059c60018201610f2b565b6105a860028301610f2b565b916003810154926105f960ff600484015416916105eb6006600586015495015495604051998a9960e08b5260e08b0190610e31565b9089820360208b0152610e31565b908782036040890152610e31565b9360608601521515608085015260a084015260c08301520390f35b34610421576020366003190112610421576004356001600160401b03811161042157610666610657602061064f61052d943690600401610baf565b61046661116a565b8101600281520301902061118e565b604051918291602083526020830190610fcf565b34610421576020366003190112610421576004356001600160401b0381116104215761071e60206106b261052d933690600401610baf565b6040516106be81610b58565b606081526060838201526106d061116a565b60408201526060604051916106e483610b73565b8183528185840152816040840152818084015281608084015201526040519061049860ff600483519486818187019761048681838b610e0e565b810160018152030190206040519061073582610b58565b61073e81610f2b565b825261074c60018201610f2b565b602083015261075d6002820161118e565b60408301526107bb600a6040519261077484610b73565b61078060068201610f2b565b845261078e60078201610f2b565b602085015261079f60088201610f2b565b60408501526107b060098201610f2b565b606085015201610f2b565b6080820152606082015260405191829182611026565b3461042157602036600319011261042157600435600354811015610421576107f890610ec0565b6103bf5761080861052d91610f2b565b604051918291602083526020830190610e31565b346104215760003660031901126104215760035461083981611105565b906108476040519283610b8e565b808252601f1961085682611105565b0160005b8181106109c857505060005b8181106108d557826040518091602082016020835281518091526040830190602060408260051b8601019301916000905b8282106108a657505050500390f35b919360019193955060206108c58192603f198a82030186528851610e56565b9601920192018594939192610897565b8061090460206108ef6108e9600195610ec0565b50610f2b565b60008260405194838680955193849201610e0e565b82019081520301902060405161091981610b3d565b61092282610f2b565b815261092f848301610f2b565b916020820192835261094360028201610f2b565b806040840152600382015480606085015260ff60048401541615159182608086015260066005850154948560a08801520154948560c08201525195516040519661098c88610b3d565b8752602087015260408601526060850152608084015260a083015260c08201526109b68286611156565b526109c18185611156565b5001610866565b6020906109d361111c565b8282870101520161085a565b34610421576060366003190112610421576004356001600160401b03811161042157610a0f903690600401610baf565b6024356001600160401b03811161042157610a2e903690600401610cac565b604435916001600160401b03831161042157610a746020610a5481953690600401610c05565b926040519061049860ff600483519486818187019761048681838b610e0e565b8101600081520301902060405192610a8b84610b3d565b610a9482610f2b565b8452610aa260018301610f2b565b85850152610ab260028301610f2b565b60408501526003820154606085015260ff6004830154161515608085015260c060066005840154938460a088015201549401938452604051610afb816101978882019485611026565b519020149182610b12575b50506040519015158152f35b9091505190604051610b3281610197868201948786526040830190610fcf565b519020148280610b06565b60e081019081106001600160401b038211176103d557604052565b608081019081106001600160401b038211176103d557604052565b60a081019081106001600160401b038211176103d557604052565b90601f801991011681019081106001600160401b038211176103d557604052565b81601f82011215610421578035906001600160401b0382116103d55760405192610be3601f8401601f191660200185610b8e565b8284526020838301011161042157816000926020809301838601378301015290565b91906080838203126104215760405190610c1e82610b58565b819380356001600160401b0381116104215782610c3c918301610baf565b835260208101356001600160401b0381116104215782610c5d918301610baf565b602084015260408101356001600160401b0381116104215782610c81918301610baf565b60408401526060810135916001600160401b03831161042157606092610ca79201610baf565b910152565b91906080838203126104215760405190610cc582610b58565b819380356001600160401b0381116104215782610ce3918301610baf565b835260208101356001600160401b0381116104215782610d04918301610baf565b602084015260408101356001600160401b0381116104215782610d28918301610c05565b60408401526060810135906001600160401b03821161042157019160a0838303126104215760405192610d5a84610b73565b80356001600160401b0381116104215783610d76918301610baf565b845260208101356001600160401b0381116104215783610d97918301610baf565b602085015260408101356001600160401b0381116104215783610dbb918301610baf565b604085015260608101356001600160401b0381116104215783610ddf918301610baf565b60608501526080810135926001600160401b03841161042157606093610e059201610baf565b60808401520152565b60005b838110610e215750506000910152565b8181015183820152602001610e11565b90602091610e4a81518092818552858086019101610e0e565b601f01601f1916010190565b9060c080610e97610e85610e73865160e0875260e0870190610e31565b60208701518682036020880152610e31565b60408601518582036040870152610e31565b936060810151606085015260808101511515608085015260a081015160a0850152015191015290565b600354811015610edb57600360005260206000200190600090565b634e487b7160e01b600052603260045260246000fd5b90600182811c92168015610f21575b6020831014610f0b57565b634e487b7160e01b600052602260045260246000fd5b91607f1691610f00565b9060405191826000825492610f3f84610ef1565b8084529360018116908115610fad5750600114610f66575b50610f6492500383610b8e565b565b90506000929192526020600020906000915b818310610f91575050906020610f649282010138610f57565b6020919350806001915483858901015201910190918492610f78565b905060209250610f6494915060ff191682840152151560051b82010138610f57565b611023916060611012611000610fee8551608086526080860190610e31565b60208601518582036020870152610e31565b60408501518482036040860152610e31565b920151906060818403910152610e31565b90565b6110239160208252606061107761106261104c84516080602088015260a0870190610e31565b6020850151868203601f19016040880152610e31565b6040840151858203601f190184870152610fcf565b910151916080601f198284030191015260806110b76110a5610e85610e73865160a0875260a0870190610e31565b60608501518482036060860152610e31565b920151906080818403910152610e31565b156110cf57565b60405162461bcd60e51b815260206004820152600e60248201526d4c6f7465206e6f2065786973746560901b6044820152606490fd5b6001600160401b0381116103d55760051b60200190565b6040519061112982610b3d565b600060c0836060815260606020820152606060408201528260608201528260808201528260a08201520152565b8051821015610edb5760209160051b010190565b6040519061117782610b58565b606080838181528160208201528160408201520152565b9060405161119b81610b58565b6060610ca7600383956111ad81610f2b565b85526111bb60018201610f2b565b60208601526111cc60028201610f2b565b604086015201610f2b565b91909182516001600160401b0381116103d5576111f48254610ef1565b601f811161129a575b506020601f8211600114611238578192939460009261122d575b50508160011b916000199060031b1c1916179055565b015190503880611217565b601f1982169083600052806000209160005b81811061128257509583600195969710611269575b505050811b019055565b015160001960f88460031b161c1916905538808061125f565b9192602060018192868b01518155019401920161124a565b826000526020600020601f830160051c810191602084106112d8575b601f0160051c01905b8181106112cc57506111fd565b600081556001016112bf565b90915081906112b6565b60036060610f64936112f58151856111d7565b6113066020820151600186016111d7565b6103036040820151600286016111d756fea264697066735822122026885b23597e035a02e49e0f30d819a5d37dcb77394c5a1297e459b3eca8cce964736f6c634300081c0033",
  "linkReferences": {},
  "deployedLinkReferences": {}
}