{
  "_format": "hh-sol-artifact-1",
  "contractName": "CoffeeSupplyChain",
  "sourceName": "contracts/CoffeeSupplyChain.sol",
  "abi": [
    {
      "anonymous": false,
      "inputs": [
        {
          "indexed": true,
          "internalType": "string",
          "name": "lot",
          "type": "string"
        },
        {
          "indexed": false,
          "internalType": "string",
          "name": "farmerName",
          "type": "string"
        },
        {
          "indexed": false,
          "internalType": "uint256",
          "name": "timestamp",
          "type": "uint256"
        }
      ],
      "name": "LotCreated",
      "type": "event"
    },
    {
      "anonymous": false,
      "inputs": [
        {
          "indexed": true,
          "internalType": "string",
          "name": "lot",
          "type": "string"
        },
        {
          "indexed": false,
          "internalType": "string",
          "name": "farmerName",
          "type": "string"
        },
        {
          "indexed": false,
          "internalType": "uint256",
          "name": "timestamp",
          "type": "uint256"
        }
      ],
      "name": "LotUpdated",
      "type": "event"
    },
    {
      "inputs": [
        {
          "internalType": "string",
          "name": "lot",
          "type": "string"
        },
        {
          "internalType": "string",
          "name": "farmerName",
          "type": "string"
        },
        {
          "internalType": "string",
          "name": "farmLocation",
          "type": "string"
        },
        {
          "internalType": "string",
          "name": "farmSize",
          "type": "string"
        },
        {
          "internalType": "string",
          "name": "quantity",
          "type": "string"
        },
        {
          "internalType": "string",
          "name": "variety",
          "type": "string"
        },
        {
          "internalType": "string",
          "name": "altitud",
          "type": "string"
        },
        {
          "internalType": "string",
          "name": "harvestingMethod",
          "type": "string"
        },
        {
          "internalType": "string",
          "name": "harvestTimestamp",
          "type": "string"
        },
        {
          "components": [
            {
              "internalType": "string",
              "name": "harvestMethod",
              "type": "string"
            },
            {
              "internalType": "string",
              "name": "harvestedQuantity",
              "type": "string"
            },
            {
              "components": [
                {
                  "internalType": "string",
                  "name": "pulpingMethod",
                  "type": "string"
                },
                {
                  "internalType": "string",
                  "name": "fermentationMethod",
                  "type": "string"
                },
                {
                  "internalType": "string",
                  "name": "dryingMethod",
                  "type": "string"
                },
                {
                  "internalType": "string",
                  "name": "millingMethod",
                  "type": "string"
                }
              ],
              "internalType": "struct CoffeeSupplyChain.ProcessingDetails",
              "name": "processing",
              "type": "tuple"
            },
            {
              "components": [
                {
                  "internalType": "string",
                  "name": "sortingMethod",
                  "type": "string"
                },
                {
                  "internalType": "string",
                  "name": "selectionCriteria",
                  "type": "string"
                },
                {
                  "internalType": "string",
                  "name": "defectsRemoved",
                  "type": "string"
                },
                {
                  "internalType": "string",
                  "name": "finalMoisture",
                  "type": "string"
                },
                {
                  "internalType": "string",
                  "name": "packagingType",
                  "type": "string"
                }
              ],
              "internalType": "struct CoffeeSupplyChain.QualityControl",
              "name": "quality",
              "type": "tuple"
            }
          ],
          "internalType": "struct CoffeeSupplyChain.ProcessingData",
          "name": "processingData",
          "type": "tuple"
        },
        {
          "components": [
            {
              "internalType": "string",
              "name": "familiesBenefited",
              "type": "string"
            },
            {
              "internalType": "string",
              "name": "biodiversityConservation",
              "type": "string"
            },
            {
              "internalType": "string",
              "name": "cultivationTechniques",
              "type": "string"
            },
            {
              "internalType": "string",
              "name": "waterManagement",
              "type": "string"
            }
          ],
          "internalType": "struct CoffeeSupplyChain.SustainabilityData",
          "name": "sustainabilityData",
          "type": "tuple"
        }
      ],
      "name": "createLot",
      "outputs": [],
      "stateMutability": "nonpayable",
      "type": "function"
    },
    {
      "inputs": [],
      "name": "getAllLotsInfo",
      "outputs": [
        {
          "components": [
            {
              "internalType": "string",
              "name": "lotNumber",
              "type": "string"
            },
            {
              "internalType": "string",
              "name": "farmerName",
              "type": "string"
            },
            {
              "internalType": "string",
              "name": "farmLocation",
              "type": "string"
            },
            {
              "internalType": "string",
              "name": "farmSize",
              "type": "string"
            },
            {
              "internalType": "string",
              "name": "quantity",
              "type": "string"
            },
            {
              "internalType": "string",
              "name": "variety",
              "type": "string"
            },
            {
              "internalType": "string",
              "name": "altitud",
              "type": "string"
            },
            {
              "internalType": "string",
              "name": "harvestingMethod",
              "type": "string"
            },
            {
              "internalType": "string",
              "name": "harvestTimestamp",
              "type": "string"
            },
            {
              "internalType": "bytes32",
              "name": "processDataHash",
              "type": "bytes32"
            },
            {
              "internalType": "bytes32",
              "name": "sustainabilityHash",
              "type": "bytes32"
            },
            {
              "internalType": "bool",
              "name": "isActive",
              "type": "bool"
            }
          ],
          "internalType": "struct CoffeeSupplyChain.MainLotData[]",
          "name": "",
          "type": "tuple[]"
        }
      ],
      "stateMutability": "view",
      "type": "function"
    },
    {
      "inputs": [
        {
          "internalType": "string",
          "name": "lot",
          "type": "string"
        }
      ],
      "name": "getMainLotData",
      "outputs": [
        {
          "components": [
            {
              "internalType": "string",
              "name": "lotNumber",
              "type": "string"
            },
            {
              "internalType": "string",
              "name": "farmerName",
              "type": "string"
            },
            {
              "internalType": "string",
              "name": "farmLocation",
              "type": "string"
            },
            {
              "internalType": "string",
              "name": "farmSize",
              "type": "string"
            },
            {
              "internalType": "string",
              "name": "quantity",
              "type": "string"
            },
            {
              "internalType": "string",
              "name": "variety",
              "type": "string"
            },
            {
              "internalType": "string",
              "name": "altitud",
              "type": "string"
            },
            {
              "internalType": "string",
              "name": "harvestingMethod",
              "type": "string"
            },
            {
              "internalType": "string",
              "name": "harvestTimestamp",
              "type": "string"
            },
            {
              "internalType": "bytes32",
              "name": "processDataHash",
              "type": "bytes32"
            },
            {
              "internalType": "bytes32",
              "name": "sustainabilityHash",
              "type": "bytes32"
            },
            {
              "internalType": "bool",
              "name": "isActive",
              "type": "bool"
            }
          ],
          "internalType": "struct CoffeeSupplyChain.MainLotData",
          "name": "",
          "type": "tuple"
        }
      ],
      "stateMutability": "view",
      "type": "function"
    },
    {
      "inputs": [
        {
          "internalType": "string",
          "name": "lot",
          "type": "string"
        }
      ],
      "name": "getProcessingData",
      "outputs": [
        {
          "components": [
            {
              "internalType": "string",
              "name": "harvestMethod",
              "type": "string"
            },
            {
              "internalType": "string",
              "name": "harvestedQuantity",
              "type": "string"
            },
            {
              "components": [
                {
                  "internalType": "string",
                  "name": "pulpingMethod",
                  "type": "string"
                },
                {
                  "internalType": "string",
                  "name": "fermentationMethod",
                  "type": "string"
                },
                {
                  "internalType": "string",
                  "name": "dryingMethod",
                  "type": "string"
                },
                {
                  "internalType": "string",
                  "name": "millingMethod",
                  "type": "string"
                }
              ],
              "internalType": "struct CoffeeSupplyChain.ProcessingDetails",
              "name": "processing",
              "type": "tuple"
            },
            {
              "components": [
                {
                  "internalType": "string",
                  "name": "sortingMethod",
                  "type": "string"
                },
                {
                  "internalType": "string",
                  "name": "selectionCriteria",
                  "type": "string"
                },
                {
                  "internalType": "string",
                  "name": "defectsRemoved",
                  "type": "string"
                },
                {
                  "internalType": "string",
                  "name": "finalMoisture",
                  "type": "string"
                },
                {
                  "internalType": "string",
                  "name": "packagingType",
                  "type": "string"
                }
              ],
              "internalType": "struct CoffeeSupplyChain.QualityControl",
              "name": "quality",
              "type": "tuple"
            }
          ],
          "internalType": "struct CoffeeSupplyChain.ProcessingData",
          "name": "",
          "type": "tuple"
        }
      ],
      "stateMutability": "view",
      "type": "function"
    },
    {
      "inputs": [
        {
          "internalType": "string",
          "name": "lot",
          "type": "string"
        }
      ],
      "name": "getSustainabilityData",
      "outputs": [
        {
          "components": [
            {
              "internalType": "string",
              "name": "familiesBenefited",
              "type": "string"
            },
            {
              "internalType": "string",
              "name": "biodiversityConservation",
              "type": "string"
            },
            {
              "internalType": "string",
              "name": "cultivationTechniques",
              "type": "string"
            },
            {
              "internalType": "string",
              "name": "waterManagement",
              "type": "string"
            }
          ],
          "internalType": "struct CoffeeSupplyChain.SustainabilityData",
          "name": "",
          "type": "tuple"
        }
      ],
      "stateMutability": "view",
      "type": "function"
    },
    {
      "inputs": [
        {
          "internalType": "uint256",
          "name": "",
          "type": "uint256"
        }
      ],
      "name": "lotIds",
      "outputs": [
        {
          "internalType": "string",
          "name": "",
          "type": "string"
        }
      ],
      "stateMutability": "view",
      "type": "function"
    },
    {
      "inputs": [
        {
          "internalType": "string",
          "name": "",
          "type": "string"
        }
      ],
      "name": "mainLotRecords",
      "outputs": [
        {
          "internalType": "string",
          "name": "lotNumber",
          "type": "string"
        },
        {
          "internalType": "string",
          "name": "farmerName",
          "type": "string"
        },
        {
          "internalType": "string",
          "name": "farmLocation",
          "type": "string"
        },
        {
          "internalType": "string",
          "name": "farmSize",
          "type": "string"
        },
        {
          "internalType": "string",
          "name": "quantity",
          "type": "string"
        },
        {
          "internalType": "string",
          "name": "variety",
          "type": "string"
        },
        {
          "internalType": "string",
          "name": "altitud",
          "type": "string"
        },
        {
          "internalType": "string",
          "name": "harvestingMethod",
          "type": "string"
        },
        {
          "internalType": "string",
          "name": "harvestTimestamp",
          "type": "string"
        },
        {
          "internalType": "bytes32",
          "name": "processDataHash",
          "type": "bytes32"
        },
        {
          "internalType": "bytes32",
          "name": "sustainabilityHash",
          "type": "bytes32"
        },
        {
          "internalType": "bool",
          "name": "isActive",
          "type": "bool"
        }
      ],
      "stateMutability": "view",
      "type": "function"
    },
    {
      "inputs": [
        {
          "internalType": "string",
          "name": "lot",
          "type": "string"
        },
        {
          "components": [
            {
              "internalType": "string",
              "name": "harvestMethod",
              "type": "string"
            },
            {
              "internalType": "string",
              "name": "harvestedQuantity",
              "type": "string"
            },
            {
              "components": [
                {
                  "internalType": "string",
                  "name": "pulpingMethod",
                  "type": "string"
                },
                {
                  "internalType": "string",
                  "name": "fermentationMethod",
                  "type": "string"
                },
                {
                  "internalType": "string",
                  "name": "dryingMethod",
                  "type": "string"
                },
                {
                  "internalType": "string",
                  "name": "millingMethod",
                  "type": "string"
                }
              ],
              "internalType": "struct CoffeeSupplyChain.ProcessingDetails",
              "name": "processing",
              "type": "tuple"
            },
            {
              "components": [
                {
                  "internalType": "string",
                  "name": "sortingMethod",
                  "type": "string"
                },
                {
                  "internalType": "string",
                  "name": "selectionCriteria",
                  "type": "string"
                },
                {
                  "internalType": "string",
                  "name": "defectsRemoved",
                  "type": "string"
                },
                {
                  "internalType": "string",
                  "name": "finalMoisture",
                  "type": "string"
                },
                {
                  "internalType": "string",
                  "name": "packagingType",
                  "type": "string"
                }
              ],
              "internalType": "struct CoffeeSupplyChain.QualityControl",
              "name": "quality",
              "type": "tuple"
            }
          ],
          "internalType": "struct CoffeeSupplyChain.ProcessingData",
          "name": "processingData",
          "type": "tuple"
        },
        {
          "components": [
            {
              "internalType": "string",
              "name": "familiesBenefited",
              "type": "string"
            },
            {
              "internalType": "string",
              "name": "biodiversityConservation",
              "type": "string"
            },
            {
              "internalType": "string",
              "name": "cultivationTechniques",
              "type": "string"
            },
            {
              "internalType": "string",
              "name": "waterManagement",
              "type": "string"
            }
          ],
          "internalType": "struct CoffeeSupplyChain.SustainabilityData",
          "name": "sustainabilityData",
          "type": "tuple"
        }
      ],
      "name": "verifyDataIntegrity",
      "outputs": [
        {
          "internalType": "bool",
          "name": "",
          "type": "bool"
        }
      ],
      "stateMutability": "view",
      "type": "function"
    }
  ],
  "bytecode": "0x60808060405234601557611774908161001b8239f35b600080fdfe6080604052600436101561001257600080fd5b60003560e01c80630252fe3e14610cc35780630450351a14610a6357806343587a9014610a1857806344bd086a146105305780634648af65146103d957806361e1b4c3146103735780638556aa03146101e45763a33de4301461007457600080fd5b346101df5760203660031901126101df576004356001600160401b0381116101df576100f760206100ac6101db933690600401610f04565b6100b4611513565b50604051906100e660ff600b8351948681818701976100d481838b611163565b810160008152030190200154166114bf565b604051938492839251928391611163565b8101600081520301902060ff600b6040519261011284610e91565b61011b816112fe565b8452610129600182016112fe565b602085015261013a600282016112fe565b604085015261014b600382016112fe565b606085015261015c600482016112fe565b608085015261016d600582016112fe565b60a085015261017e600682016112fe565b60c085015261018f600782016112fe565b60e08501526101a0600882016112fe565b6101008501526009810154610120850152600a81015461014085015201541615156101608201526040519182916020835260208301906111ab565b0390f35b600080fd5b346101df5760203660031901126101df576004356001600160401b0381116101df57610214903690600401610f04565b604051818180935160208193019161022b92611163565b810160008152036020019020610240816112fe565b61024c600183016112fe565b91610259600282016112fe565b610265600383016112fe565b91610272600482016112fe565b61027e600583016112fe565b61028a600684016112fe565b610296600785016112fe565b916102a3600886016112fe565b93600986015497600a87015496600b015460ff16976040519b8c9b6101808d526101808d016102d191611186565b8c810360208e01526102e291611186565b8b810360408d01526102f391611186565b8a810360608c015261030491611186565b89810360808b015261031591611186565b88810360a08a015261032691611186565b87810360c089015261033791611186565b86810360e088015261034891611186565b85810361010087015261035a91611186565b9261012085015261014084015215156101608301520390f35b346101df5760203660031901126101df576004356001600160401b0381116101df576103c56103b660206103ae6101db943690600401610f04565b6100b46116d1565b810160028152030190206116f5565b6040519182916020835260208301906113a2565b346101df5760203660031901126101df576004356001600160401b0381116101df5761047d60206104116101db933690600401610f04565b60405161041d81610ead565b6060815260608382015261042f6116d1565b604082015260606040519161044383610ec8565b818352818584015281604084015281808401528160808401520152604051906100e660ff600b8351948681818701976100d481838b611163565b810160018152030190206040519061049482610ead565b61049d816112fe565b82526104ab600182016112fe565b60208301526104bc600282016116f5565b604083015261051a600a604051926104d384610ec8565b6104df600682016112fe565b84526104ed600782016112fe565b60208501526104fe600882016112fe565b604085015261050f600982016112fe565b6060850152016112fe565b60808201526060820152604051918291826113f9565b346101df576101603660031901126101df576004356001600160401b0381116101df57610561903690600401610f04565b6024356001600160401b0381116101df57610580903690600401610f04565b906044356001600160401b0381116101df576105a0903690600401610f04565b906064356001600160401b0381116101df576105c0903690600401610f04565b916084356001600160401b0381116101df576105e0903690600401610f04565b9260a4356001600160401b0381116101df57610600903690600401610f04565b60c4356001600160401b0381116101df5761061f903690600401610f04565b9460e4356001600160401b0381116101df5761063f903690600401610f04565b93610104356001600160401b0381116101df57610660903690600401610f04565b93610124356001600160401b0381116101df57610681903690600401611001565b94610144356001600160401b0381116101df576106a2903690600401610f5a565b96604051998a808b80519d60208f92019e8f916106be92611163565b810160008152036020019020546106d4906112c4565b6109e25789968b968d958b60405180602081019260208452604082016106f9916113a2565b03601f198101825261070b9082610ee3565b519020978b60405180602081019261072390846113f9565b03601f19810182526107359082610ee3565b519020976040519a6107468c610e91565b8c8c5260208c0191825260408c0192835260608c0193845260808c0194855260a08c0195865260c08c0196875260e08c019788526101008c019889526101208c01998a526101408c019a8b526101608c019c60018e52604051809281925180926107af92611163565b8101600081520360200190209a516107c7908c611588565b516107d59060018c01611588565b516107e39060028b01611588565b516107f19060038a01611588565b516107ff9060048901611588565b5161080d9060058801611588565b5161081b9060068701611588565b516108299060078601611588565b516108379060088501611588565b51600983015551600a820155600b019051151560ff198254169060ff16179055604051808451610868818389611163565b8101600181520360200190209080516108819083611588565b60208101516108939060018401611588565b60408101516108a59060028401611693565b6060015180516108b89060068401611588565b60208101516108ca9060078401611588565b60408101516108dc9060088401611588565b60608101516108ee9060098401611588565b608001516108fe91600a01611588565b60405180835161090f818388611163565b8101600281520360200190209061092591611693565b600354680100000000000000008110156109cc578060016109499201600355611293565b6109b6577f0a9f342f718795a34b99dd509bd4a7358cc3f9b601cef661eca13437577c4a8892826109806109ab9461099194611588565b604051928392839251928391611163565b810103902092604051918291604083526040830190611186565b4260208301520390a2005b634e487b7160e01b600052600060045260246000fd5b634e487b7160e01b600052604160045260246000fd5b60405162461bcd60e51b815260206004820152600e60248201526d4c6f74652079612065786973746560901b6044820152606490fd5b346101df5760203660031901126101df576004356003548110156101df57610a3f90611293565b6109b657610a4f6101db916112fe565b604051918291602083526020830190611186565b346101df5760003660031901126101df57600354610a80816114fc565b90610a8e6040519283610ee3565b808252601f19610a9d826114fc565b0160005b818110610cac57505060005b818110610b1c57826040518091602082016020835281518091526040830190602060408260051b8601019301916000905b828210610aed57505050500390f35b91936001919395506020610b0c8192603f198a820301865288516111ab565b9601920192018594939192610ade565b80610b4b6020610b36610b30600195611293565b506112fe565b60008260405194838680955193849201611163565b820190815203019020604051610b6081610e91565b610b69826112fe565b8152610140610120610100610b7f8786016112fe565b9460208501958652610b93600282016112fe565b9060408601918252610ba7600382016112fe565b60608701908152610bba600483016112fe565b60808801908152610bcd600584016112fe565b9060a08901918252610be1600685016112fe565b9260c08a0193845260ff600b610bf9600788016112fe565b9660e08d019788528c610c0e600883016112fe565b9a8b9101528c60098201549b8c9101528c600a8201549c8d9101520154161515998a610160820152519a51955190519151925193519451956040519b610c538d610e91565b8c5260208c015260408b015260608a0152608089015260a088015260c087015260e0860152610100850152610120840152610140830152610160820152610c9a8286611574565b52610ca58185611574565b5001610aad565b602090610cb7611513565b82828701015201610aa1565b346101df5760603660031901126101df576004356001600160401b0381116101df57610cf3903690600401610f04565b6024356001600160401b0381116101df57610d12903690600401611001565b604435916001600160401b0383116101df57610d586020610d3881953690600401610f5a565b92604051906100e660ff600b8351948681818701976100d481838b611163565b810160008152030190209160405190610d7082610e91565b610d79846112fe565b8252610d87600185016112fe565b85830152610d97600285016112fe565b6040830152610da8600385016112fe565b6060830152610db9600485016112fe565b6080830152610dca600585016112fe565b60a0830152610ddb600685016112fe565b60c0830152610dec600785016112fe565b60e0830152610dfd600885016112fe565b6101008301526009840154918261012082015261016060ff600b600a8801549761014085019889520154161515910152604051610e4f81610e4188820194856113f9565b03601f198101835282610ee3565b519020149182610e66575b50506040519015158152f35b9091505190604051610e8681610e418682019487865260408301906113a2565b519020148280610e5a565b61018081019081106001600160401b038211176109cc57604052565b608081019081106001600160401b038211176109cc57604052565b60a081019081106001600160401b038211176109cc57604052565b90601f801991011681019081106001600160401b038211176109cc57604052565b81601f820112156101df578035906001600160401b0382116109cc5760405192610f38601f8401601f191660200185610ee3565b828452602083830101116101df57816000926020809301838601378301015290565b91906080838203126101df5760405190610f7382610ead565b819380356001600160401b0381116101df5782610f91918301610f04565b835260208101356001600160401b0381116101df5782610fb2918301610f04565b602084015260408101356001600160401b0381116101df5782610fd6918301610f04565b60408401526060810135916001600160401b0383116101df57606092610ffc9201610f04565b910152565b91906080838203126101df576040519061101a82610ead565b819380356001600160401b0381116101df5782611038918301610f04565b835260208101356001600160401b0381116101df5782611059918301610f04565b602084015260408101356001600160401b0381116101df578261107d918301610f5a565b60408401526060810135906001600160401b0382116101df57019160a0838303126101df57604051926110af84610ec8565b80356001600160401b0381116101df57836110cb918301610f04565b845260208101356001600160401b0381116101df57836110ec918301610f04565b602085015260408101356001600160401b0381116101df5783611110918301610f04565b604085015260608101356001600160401b0381116101df5783611134918301610f04565b60608501526080810135926001600160401b0384116101df5760609361115a9201610f04565b60808401520152565b60005b8381106111765750506000910152565b8181015183820152602001611166565b9060209161119f81518092818552858086019101611163565b601f01601f1916010190565b906101608061127061125c61124a6112386112266112146112026111f06111dd8c516101808d526101808d0190611186565b60208d01518c6020818403910152611186565b60408c01518b820360408d0152611186565b60608b01518a820360608c0152611186565b60808a015189820360808b0152611186565b60a089015188820360a08a0152611186565b60c088015187820360c0890152611186565b60e087015186820360e0880152611186565b610100860151858203610100870152611186565b936101208101516101208501526101408101516101408501520151151591015290565b6003548110156112ae57600360005260206000200190600090565b634e487b7160e01b600052603260045260246000fd5b90600182811c921680156112f4575b60208310146112de57565b634e487b7160e01b600052602260045260246000fd5b91607f16916112d3565b9060405191826000825492611312846112c4565b80845293600181169081156113805750600114611339575b5061133792500383610ee3565b565b90506000929192526020600020906000915b818310611364575050906020611337928201013861132a565b602091935080600191548385890101520191019091849261134b565b90506020925061133794915060ff191682840152151560051b8201013861132a565b6113f69160606113e56113d36113c18551608086526080860190611186565b60208601518582036020870152611186565b60408501518482036040860152611186565b920151906060818403910152611186565b90565b6113f69160208252606061144a61143561141f84516080602088015260a0870190611186565b6020850151868203601f19016040880152611186565b6040840151858203601f1901848701526113a2565b910151916080601f198284030191015260806114ae61149c61148a611478865160a0875260a0870190611186565b60208701518682036020880152611186565b60408601518582036040870152611186565b60608501518482036060860152611186565b920151906080818403910152611186565b156114c657565b60405162461bcd60e51b815260206004820152600e60248201526d4c6f7465206e6f2065786973746560901b6044820152606490fd5b6001600160401b0381116109cc5760051b60200190565b6040519061152082610e91565b60006101608360608152606060208201526060604082015260608082015260606080820152606060a0820152606060c0820152606060e0820152606061010082015282610120820152826101408201520152565b80518210156112ae5760209160051b010190565b91909182516001600160401b0381116109cc576115a582546112c4565b601f811161164b575b506020601f82116001146115e957819293946000926115de575b50508160011b916000199060031b1c1916179055565b0151905038806115c8565b601f1982169083600052806000209160005b8181106116335750958360019596971061161a575b505050811b019055565b015160001960f88460031b161c19169055388080611610565b9192602060018192868b0151815501940192016115fb565b826000526020600020601f830160051c81019160208410611689575b601f0160051c01905b81811061167d57506115ae565b60008155600101611670565b9091508190611667565b60036060611337936116a6815185611588565b6116b7602082015160018601611588565b6116c8604082015160028601611588565b01519101611588565b604051906116de82610ead565b606080838181528160208201528160408201520152565b9060405161170281610ead565b6060610ffc60038395611714816112fe565b8552611722600182016112fe565b6020860152611733600282016112fe565b6040860152016112fe56fea26469706673582212207e767e9bd7189ae1d205fdae35e1a87075de6590113a84258cd4c59f719cdab764736f6c634300081c0033",
  "linkReferences": {},
  "deployedLinkReferences": {}
}