{
  "_format": "hh-sol-artifact-1",
  "contractName": "CoffeeSupplyChain",
  "sourceName": "contracts/CoffeeSupplyChain.sol",
  "abi": [
    {
      "anonymous": false,
      "inputs": [
        {
          "indexed": true,
          "internalType": "string",
          "name": "lot",
          "type": "string"
        },
        {
          "indexed": false,
          "internalType": "string",
          "name": "farmerName",
          "type": "string"
        },
        {
          "indexed": false,
          "internalType": "uint256",
          "name": "timestamp",
          "type": "uint256"
        }
      ],
      "name": "LotCreated",
      "type": "event"
    },
    {
      "anonymous": false,
      "inputs": [
        {
          "indexed": true,
          "internalType": "string",
          "name": "lot",
          "type": "string"
        },
        {
          "indexed": false,
          "internalType": "string",
          "name": "farmerName",
          "type": "string"
        },
        {
          "indexed": false,
          "internalType": "uint256",
          "name": "timestamp",
          "type": "uint256"
        }
      ],
      "name": "LotUpdated",
      "type": "event"
    },
    {
      "inputs": [
        {
          "internalType": "string",
          "name": "lot",
          "type": "string"
        },
        {
          "internalType": "string",
          "name": "farmerName",
          "type": "string"
        },
        {
          "internalType": "string",
          "name": "farmLocation",
          "type": "string"
        },
        {
          "internalType": "string",
          "name": "lotWeight",
          "type": "string"
        }
      ],
      "name": "createLot",
      "outputs": [],
      "stateMutability": "nonpayable",
      "type": "function"
    },
    {
      "inputs": [],
      "name": "getAllLotsInfo",
      "outputs": [
        {
          "components": [
            {
              "internalType": "string",
              "name": "farmerName",
              "type": "string"
            },
            {
              "internalType": "string",
              "name": "farmLocation",
              "type": "string"
            },
            {
              "internalType": "string",
              "name": "lotWeight",
              "type": "string"
            },
            {
              "internalType": "uint256",
              "name": "harvestTimestamp",
              "type": "uint256"
            },
            {
              "internalType": "bool",
              "name": "isActive",
              "type": "bool"
            }
          ],
          "internalType": "struct CoffeeSupplyChain.MainLotData[]",
          "name": "",
          "type": "tuple[]"
        }
      ],
      "stateMutability": "view",
      "type": "function"
    },
    {
      "inputs": [
        {
          "internalType": "string",
          "name": "lot",
          "type": "string"
        }
      ],
      "name": "getMainLotData",
      "outputs": [
        {
          "components": [
            {
              "internalType": "string",
              "name": "farmerName",
              "type": "string"
            },
            {
              "internalType": "string",
              "name": "farmLocation",
              "type": "string"
            },
            {
              "internalType": "string",
              "name": "lotWeight",
              "type": "string"
            },
            {
              "internalType": "uint256",
              "name": "harvestTimestamp",
              "type": "uint256"
            },
            {
              "internalType": "bool",
              "name": "isActive",
              "type": "bool"
            }
          ],
          "internalType": "struct CoffeeSupplyChain.MainLotData",
          "name": "",
          "type": "tuple"
        }
      ],
      "stateMutability": "view",
      "type": "function"
    },
    {
      "inputs": [
        {
          "internalType": "uint256",
          "name": "",
          "type": "uint256"
        }
      ],
      "name": "lotIds",
      "outputs": [
        {
          "internalType": "string",
          "name": "",
          "type": "string"
        }
      ],
      "stateMutability": "view",
      "type": "function"
    },
    {
      "inputs": [
        {
          "internalType": "string",
          "name": "",
          "type": "string"
        }
      ],
      "name": "mainLotRecords",
      "outputs": [
        {
          "internalType": "string",
          "name": "farmerName",
          "type": "string"
        },
        {
          "internalType": "string",
          "name": "farmLocation",
          "type": "string"
        },
        {
          "internalType": "string",
          "name": "lotWeight",
          "type": "string"
        },
        {
          "internalType": "uint256",
          "name": "harvestTimestamp",
          "type": "uint256"
        },
        {
          "internalType": "bool",
          "name": "isActive",
          "type": "bool"
        }
      ],
      "stateMutability": "view",
      "type": "function"
    }
  ],
  "bytecode": "0x60808060405234601557610a61908161001b8239f35b600080fdfe6080604052600436101561001257600080fd5b60003560e01c80630450351a146104e1578063415e2be3146102b357806343587a90146102525780638556aa03146101855763a33de4301461005357600080fd5b346101805760203660031901126101805760043567ffffffffffffffff81116101805761008490369060040161075f565b61008c6108dd565b5060405160ff6004835192602081818701956100a9818389610683565b810160008152030190200154161561014a5760206100d69161014693604051938492839251928391610683565b8101600081520301902060ff6004604051926100f184610721565b6100fa81610821565b845261010860018201610821565b602085015261011960028201610821565b604085015260038101546060850152015416151560808201526040519182916020835260208301906106cb565b0390f35b60405162461bcd60e51b815260206004820152600e60248201526d4c6f7465206e6f2065786973746560901b6044820152606490fd5b600080fd5b346101805760203660031901126101805760043567ffffffffffffffff8111610180576101d160206101be61022593369060040161075f565b8160405193828580945193849201610683565b810160008152030190206101e481610821565b906101f160018201610821565b61024161020060028401610821565b61023360ff60046003870154960154169360405197889760a0895260a08901906106a6565b9087820360208901526106a6565b9085820360408701526106a6565b916060840152151560808301520390f35b346101805760203660031901126101805760043560015481101561018057610279906107b6565b61029d5761028961014691610821565b6040519182916020835260208301906106a6565b634e487b7160e01b600052600060045260246000fd5b346101805760803660031901126101805760043567ffffffffffffffff8111610180576102e490369060040161075f565b60243567ffffffffffffffff81116101805761030490369060040161075f565b9060443567ffffffffffffffff81116101805761032590369060040161075f565b9060643567ffffffffffffffff81116101805761034690369060040161075f565b916040519260ff60048451956020818188019861036481838c610683565b810160008152030190200154166104ab5760405160049161038482610721565b86825260208201938452604082019081526103ed60608301914283526103e36080850196600188526103d96103c760208c8c604051938492839251928391610683565b8101600081520301902096518761091f565b516001860161091f565b516002840161091f565b516003820155019051151560ff80198354169116179055600154680100000000000000008110156104955780600161042892016001556107b6565b61029d577f0a9f342f718795a34b99dd509bd4a7358cc3f9b601cef661eca13437577c4a88928261045f61048a946104709461091f565b604051928392839251928391610683565b8101039020926040519182916040835260408301906106a6565b4260208301520390a2005b634e487b7160e01b600052604160045260246000fd5b60405162461bcd60e51b815260206004820152600e60248201526d4c6f74652079612065786973746560901b6044820152606490fd5b34610180576000366003190112610180576001546104fe816108c5565b9061050c604051928361073d565b808252601f1961051b826108c5565b0160005b81811061066c57505060005b81811061059a57826040518091602082016020835281518091526040830190602060408260051b8601019301916000905b82821061056b57505050500390f35b9193600191939550602061058a8192603f198a820301865288516106cb565b960192019201859493919261055c565b806105c960206105b46105ae6001956107b6565b50610821565b60008260405194838680955193849201610683565b8201908152030190206040516105de81610721565b6105e782610821565b81526105f4848301610821565b916020820192835261060860028201610821565b80604084015260ff60046003840154938460608701520154161515928360808201525193516040519461063a86610721565b8552602085015260408401526060830152608082015261065a828661090b565b52610665818561090b565b500161052b565b6020906106776108dd565b8282870101520161051f565b60005b8381106106965750506000910152565b8181015183820152602001610686565b906020916106bf81518092818552858086019101610683565b601f01601f1916010190565b9060808061070c6106fa6106e8865160a0875260a08701906106a6565b602087015186820360208801526106a6565b604086015185820360408701526106a6565b93606081015160608501520151151591015290565b60a0810190811067ffffffffffffffff82111761049557604052565b90601f8019910116810190811067ffffffffffffffff82111761049557604052565b81601f820112156101805780359067ffffffffffffffff82116104955760405192610794601f8401601f19166020018561073d565b8284526020838301011161018057816000926020809301838601378301015290565b6001548110156107d157600160005260206000200190600090565b634e487b7160e01b600052603260045260246000fd5b90600182811c92168015610817575b602083101461080157565b634e487b7160e01b600052602260045260246000fd5b91607f16916107f6565b9060405191826000825492610835846107e7565b80845293600181169081156108a3575060011461085c575b5061085a9250038361073d565b565b90506000929192526020600020906000915b81831061088757505090602061085a928201013861084d565b602091935080600191548385890101520191019091849261086e565b90506020925061085a94915060ff191682840152151560051b8201013861084d565b67ffffffffffffffff81116104955760051b60200190565b604051906108ea82610721565b60006080836060815260606020820152606060408201528260608201520152565b80518210156107d15760209160051b010190565b919091825167ffffffffffffffff81116104955761093d82546107e7565b601f81116109e3575b506020601f82116001146109815781929394600092610976575b50508160011b916000199060031b1c1916179055565b015190503880610960565b601f1982169083600052806000209160005b8181106109cb575095836001959697106109b2575b505050811b019055565b015160001960f88460031b161c191690553880806109a8565b9192602060018192868b015181550194019201610993565b826000526020600020601f830160051c81019160208410610a21575b601f0160051c01905b818110610a155750610946565b60008155600101610a08565b90915081906109ff56fea264697066735822122030d1e069425cb4809cbd8b217d04d4269f002ee052343e7b56c248b4a59d2d9864736f6c634300081c0033",
  "linkReferences": {},
  "deployedLinkReferences": {}
}